{"contracts/SupplyChain.sol":{"SupplyChain":{"abi":[{"anonymous":false,"inputs":[{"indexed":true,"internalType":"uint256","name":"productId","type":"uint256"},{"indexed":false,"internalType":"string","name":"name","type":"string"},{"indexed":true,"internalType":"address","name":"farmer","type":"address"},{"indexed":false,"internalType":"uint256","name":"harvestDate","type":"uint256"}],"name":"ProductRegistered","type":"event"},{"anonymous":false,"inputs":[{"indexed":true,"internalType":"uint256","name":"productId","type":"uint256"},{"indexed":true,"internalType":"address","name":"from","type":"address"},{"indexed":true,"internalType":"address","name":"to","type":"address"},{"indexed":false,"internalType":"enum SupplyChain.ProductStatus","name":"newStatus","type":"uint8"},{"indexed":false,"internalType":"uint256","name":"timestamp","type":"uint256"}],"name":"ProductTransferred","type":"event"},{"anonymous":false,"inputs":[{"indexed":true,"internalType":"address","name":"stakeholder","type":"address"},{"indexed":false,"internalType":"enum SupplyChain.StakeholderRole","name":"role","type":"uint8"},{"indexed":false,"internalType":"string","name":"name","type":"string"}],"name":"StakeholderRegistered","type":"event"},{"inputs":[{"internalType":"uint256","name":"_productId","type":"uint256"}],"name":"getProduct","outputs":[{"components":[{"internalType":"uint256","name":"id","type":"uint256"},{"internalType":"string","name":"name","type":"string"},{"internalType":"string","name":"variety","type":"string"},{"internalType":"uint256","name":"quantity","type":"uint256"},{"internalType":"string","name":"farmLocation","type":"string"},{"internalType":"uint256","name":"harvestDate","type":"uint256"},{"internalType":"string","name":"qualityGrade","type":"string"},{"internalType":"enum SupplyChain.ProductStatus","name":"status","type":"uint8"},{"internalType":"address","name":"farmer","type":"address"},{"internalType":"string","name":"dataHash","type":"string"},{"internalType":"bool","name":"exists","type":"bool"}],"internalType":"struct SupplyChain.Product","name":"","type":"tuple"}],"stateMutability":"view","type":"function"},{"inputs":[{"internalType":"uint256","name":"_productId","type":"uint256"}],"name":"getProductTransactions","outputs":[{"components":[{"internalType":"uint256","name":"productId","type":"uint256"},{"internalType":"address","name":"from","type":"address"},{"internalType":"address","name":"to","type":"address"},{"internalType":"enum SupplyChain.ProductStatus","name":"newStatus","type":"uint8"},{"internalType":"string","name":"location","type":"string"},{"internalType":"uint256","name":"timestamp","type":"uint256"},{"internalType":"string","name":"transactionType","type":"string"},{"internalType":"string","name":"additionalData","type":"string"}],"internalType":"struct SupplyChain.Transaction[]","name":"","type":"tuple[]"}],"stateMutability":"view","type":"function"},{"inputs":[{"internalType":"address","name":"_farmer","type":"address"}],"name":"getProductsByFarmer","outputs":[{"internalType":"uint256[]","name":"","type":"uint256[]"}],"stateMutability":"view","type":"function"},{"inputs":[{"internalType":"address","name":"_address","type":"address"}],"name":"getStakeholder","outputs":[{"components":[{"internalType":"address","name":"walletAddress","type":"address"},{"internalType":"enum SupplyChain.StakeholderRole","name":"role","type":"uint8"},{"internalType":"string","name":"name","type":"string"},{"internalType":"string","name":"organization","type":"string"},{"internalType":"bool","name":"isRegistered","type":"bool"}],"internalType":"struct SupplyChain.Stakeholder","name":"","type":"tuple"}],"stateMutability":"view","type":"function"},{"inputs":[{"internalType":"uint256","name":"_productId","type":"uint256"},{"internalType":"string","name":"_dataHash","type":"string"}],"name":"isProductAuthentic","outputs":[{"internalType":"bool","name":"","type":"bool"}],"stateMutability":"view","type":"function"},{"inputs":[],"name":"productCounter","outputs":[{"internalType":"uint256","name":"","type":"uint256"}],"stateMutability":"view","type":"function"},{"inputs":[{"internalType":"uint256","name":"","type":"uint256"},{"internalType":"uint256","name":"","type":"uint256"}],"name":"productTransactions","outputs":[{"internalType":"uint256","name":"productId","type":"uint256"},{"internalType":"address","name":"from","type":"address"},{"internalType":"address","name":"to","type":"address"},{"internalType":"enum SupplyChain.ProductStatus","name":"newStatus","type":"uint8"},{"internalType":"string","name":"location","type":"string"},{"internalType":"uint256","name":"timestamp","type":"uint256"},{"internalType":"string","name":"transactionType","type":"string"},{"internalType":"string","name":"additionalData","type":"string"}],"stateMutability":"view","type":"function"},{"inputs":[{"internalType":"uint256","name":"","type":"uint256"}],"name":"products","outputs":[{"internalType":"uint256","name":"id","type":"uint256"},{"internalType":"string","name":"name","type":"string"},{"internalType":"string","name":"variety","type":"string"},{"internalType":"uint256","name":"quantity","type":"uint256"},{"internalType":"string","name":"farmLocation","type":"string"},{"internalType":"uint256","name":"harvestDate","type":"uint256"},{"internalType":"string","name":"qualityGrade","type":"string"},{"internalType":"enum SupplyChain.ProductStatus","name":"status","type":"uint8"},{"internalType":"address","name":"farmer","type":"address"},{"internalType":"string","name":"dataHash","type":"string"},{"internalType":"bool","name":"exists","type":"bool"}],"stateMutability":"view","type":"function"},{"inputs":[{"internalType":"string","name":"_name","type":"string"},{"internalType":"string","name":"_variety","type":"string"},{"internalType":"uint256","name":"_quantity","type":"uint256"},{"internalType":"string","name":"_farmLocation","type":"string"},{"internalType":"uint256","name":"_harvestDate","type":"uint256"},{"internalType":"string","name":"_qualityGrade","type":"string"},{"internalType":"string","name":"_dataHash","type":"string"}],"name":"registerProduct","outputs":[{"internalType":"uint256","name":"","type":"uint256"}],"stateMutability":"nonpayable","type":"function"},{"inputs":[{"internalType":"enum SupplyChain.StakeholderRole","name":"_role","type":"uint8"},{"internalType":"string","name":"_name","type":"string"},{"internalType":"string","name":"_organization","type":"string"}],"name":"registerStakeholder","outputs":[],"stateMutability":"nonpayable","type":"function"},{"inputs":[{"internalType":"address","name":"","type":"address"}],"name":"stakeholders","outputs":[{"internalType":"address","name":"walletAddress","type":"address"},{"internalType":"enum SupplyChain.StakeholderRole","name":"role","type":"uint8"},{"internalType":"string","name":"name","type":"string"},{"internalType":"string","name":"organization","type":"string"},{"internalType":"bool","name":"isRegistered","type":"bool"}],"stateMutability":"view","type":"function"},{"inputs":[{"internalType":"uint256","name":"_productId","type":"uint256"},{"internalType":"address","name":"_to","type":"address"},{"internalType":"enum SupplyChain.ProductStatus","name":"_newStatus","type":"uint8"},{"internalType":"string","name":"_location","type":"string"},{"internalType":"string","name":"_transactionType","type":"string"},{"internalType":"string","name":"_additionalData","type":"string"}],"name":"transferProduct","outputs":[],"stateMutability":"nonpayable","type":"function"}],"evm":{"bytecode":{"linkReferences":{},"object":"608060405234801561001057600080fd5b50612927806100206000396000f3fe608060405234801561001057600080fd5b50600436106100b45760003560e01c80639ab2dfa3116100715780639ab2dfa31461016e578063b9db15b41461018e578063c07cfca9146101ae578063c3a4e597146101d2578063d10e53d3146101f5578063ec90a7b01461020857600080fd5b806307dd0a0f146100b95780630ffe433d146100ce5780631f16653b146100f4578063259132d4146100fd57806362afde25146101245780637acc0b2014610144575b600080fd5b6100cc6100c7366004611ecc565b610228565b005b6100e16100dc366004611f80565b610763565b6040519081526020015b60405180910390f35b6100e160035481565b61011061010b366004612065565b610b43565b6040516100eb989796959493929190612118565b610137610132366004612195565b610d52565b6040516100eb91906121b7565b610157610152366004612230565b610f22565b6040516100eb9b9a99989796959493929190612249565b61018161017c366004612230565b611230565b6040516100eb91906122fc565b6101a161019c366004612230565b6114f1565b6040516100eb91906123ec565b6101c16101bc366004612195565b6118a2565b6040516100eb9594939291906124f3565b6101e56101e036600461254b565b6119f4565b60405190151581526020016100eb565b6100cc610203366004612592565b611a8c565b61021b610216366004612195565b611c0f565b6040516100eb9190612608565b3360009081526002602052604090206003015460ff1661028f5760405162461bcd60e51b815260206004820152601c60248201527f4e6f7420612072656769737465726564207374616b65686f6c6465720000000060448201526064015b60405180910390fd5b600086815260208190526040902060090154869060ff166102c25760405162461bcd60e51b81526004016102869061264c565b600087815260208190526040812090600782015460ff1660038111156102ea576102ea612087565b036103eb57600781015461010090046001600160a01b031633146103635760405162461bcd60e51b815260206004820152602a60248201527f4f6e6c79206661726d65722063616e207472616e7366657220686172766573746044820152691959081c1c9bd91d58dd60b21b6064820152608401610286565b60016001600160a01b038816600090815260026020526040902054600160a01b900460ff16600381111561039957610399612087565b146103e65760405162461bcd60e51b815260206004820181905260248201527f43616e206f6e6c79207472616e7366657220746f206469737472696275746f726044820152606401610286565b61059b565b6001600782015460ff16600381111561040657610406612087565b0361050857600133600090815260026020526040902054600160a01b900460ff16600381111561043857610438612087565b146104855760405162461bcd60e51b815260206004820152601d60248201527f4f6e6c79206469737472696275746f722063616e207472616e736665720000006044820152606401610286565b60026001600160a01b038816600090815260026020526040902054600160a01b900460ff1660038111156104bb576104bb612087565b146103e65760405162461bcd60e51b815260206004820152601d60248201527f43616e206f6e6c79207472616e7366657220746f2072657461696c65720000006044820152606401610286565b6002600782015460ff16600381111561052357610523612087565b0361059b57600233600090815260026020526040902054600160a01b900460ff16600381111561055557610555612087565b1461059b5760405162461bcd60e51b815260206004820152601660248201527513db9b1e481c995d185a5b195c8818d85b881cd95b1b60521b6044820152606401610286565b60078101805487919060ff191660018360038111156105bc576105bc612087565b0217905550600160008981526020019081526020016000206040518061010001604052808a8152602001336001600160a01b03168152602001896001600160a01b0316815260200188600381111561061657610616612087565b815260208082018990524260408084019190915260608084018a9052608090930188905284546001818101875560009687529583902085516007909202019081559184015194820180546001600160a01b039687166001600160a01b0319918216179091559084015160028301805491909616918116821786559284015193949193926001600160a81b03191617600160a01b8360038111156106bb576106bb612087565b0217905550608082015160038201906106d490826126ff565b5060a0820151600482015560c082015160058201906106f390826126ff565b5060e0820151600682019061070890826126ff565b505050866001600160a01b0316336001600160a01b0316897f9fa92e8b138a6a0678480e61b6e7a0ee30af964ea75bc7b4a7006435e0f9b53789426040516107519291906127bf565b60405180910390a45050505050505050565b3360009081526002602052604081206003015460ff166107c55760405162461bcd60e51b815260206004820152601c60248201527f4e6f7420612072656769737465726564207374616b65686f6c646572000000006044820152606401610286565b60008033600090815260026020526040902054600160a01b900460ff1660038111156107f3576107f3612087565b146108345760405162461bcd60e51b8152602060048201526011602482015270556e617574686f72697a656420726f6c6560781b6044820152606401610286565b60038054906000610844836127d6565b9190505550600060035490506040518061016001604052808281526020018b81526020018a81526020018981526020018881526020018781526020018681526020016000600381111561089957610899612087565b815233602080830191909152604080830188905260016060909301839052600085815280835220835181559083015190918201906108d790826126ff565b50604082015160028201906108ec90826126ff565b50606082015160038201556080820151600482019061090b90826126ff565b5060a0820151600582015560c0820151600682019061092a90826126ff565b5060e082015160078201805460ff1916600183600381111561094e5761094e612087565b021790555061010082810151600783018054610100600160a81b0319166001600160a01b03909216909202179055610120820151600882019061099190826126ff565b5061014091909101516009909101805460ff191691151591909117905560008181526001602090815260408083208151610100810183528581529283018490523391830191909152916060820190815260208082018b905242604080840191909152805180820182526007808252661a185c9d995cdd60ca1b8285015260608086019290925260809094018a90528554600181810188556000978852968490208651919095029094019384559184015194830180546001600160a01b039687166001600160a01b031991821617909155908401516002840180549190961691811682178655918401519394929392916001600160a81b03191617600160a01b836003811115610aa257610aa2612087565b021790555060808201516003820190610abb90826126ff565b5060a0820151600482015560c08201516005820190610ada90826126ff565b5060e08201516006820190610aef90826126ff565b505050336001600160a01b0316817f5b750c34ff65e7500b4250ef0db18cf3a3f0d4ce3131ef7e64d457b0bea7236f8c89604051610b2e9291906127fd565b60405180910390a39998505050505050505050565b60016020528160005260406000208181548110610b5f57600080fd5b600091825260209091206007909102018054600182015460028301546003840180549396506001600160a01b03928316955091811693600160a01b90910460ff1692909190610bad9061267c565b80601f0160208091040260200160405190810160405280929190818152602001828054610bd99061267c565b8015610c265780601f10610bfb57610100808354040283529160200191610c26565b820191906000526020600020905b815481529060010190602001808311610c0957829003601f168201915b505050505090806004015490806005018054610c419061267c565b80601f0160208091040260200160405190810160405280929190818152602001828054610c6d9061267c565b8015610cba5780601f10610c8f57610100808354040283529160200191610cba565b820191906000526020600020905b815481529060010190602001808311610c9d57829003601f168201915b505050505090806006018054610ccf9061267c565b80601f0160208091040260200160405190810160405280929190818152602001828054610cfb9061267c565b8015610d485780601f10610d1d57610100808354040283529160200191610d48565b820191906000526020600020905b815481529060010190602001808311610d2b57829003601f168201915b5050505050905088565b610d846040805160a0810190915260008082526020820190815260606020820181905260408201819052600091015290565b6001600160a01b03828116600090815260026020908152604091829020825160a0810190935280549384168352919290830190600160a01b900460ff166003811115610dd257610dd2612087565b6003811115610de357610de3612087565b8152602001600182018054610df79061267c565b80601f0160208091040260200160405190810160405280929190818152602001828054610e239061267c565b8015610e705780601f10610e4557610100808354040283529160200191610e70565b820191906000526020600020905b815481529060010190602001808311610e5357829003601f168201915b50505050508152602001600282018054610e899061267c565b80601f0160208091040260200160405190810160405280929190818152602001828054610eb59061267c565b8015610f025780601f10610ed757610100808354040283529160200191610f02565b820191906000526020600020905b815481529060010190602001808311610ee557829003601f168201915b50505091835250506003919091015460ff16151560209091015292915050565b60006020819052908152604090208054600182018054919291610f449061267c565b80601f0160208091040260200160405190810160405280929190818152602001828054610f709061267c565b8015610fbd5780601f10610f9257610100808354040283529160200191610fbd565b820191906000526020600020905b815481529060010190602001808311610fa057829003601f168201915b505050505090806002018054610fd29061267c565b80601f0160208091040260200160405190810160405280929190818152602001828054610ffe9061267c565b801561104b5780601f106110205761010080835404028352916020019161104b565b820191906000526020600020905b81548152906001019060200180831161102e57829003601f168201915b5050505050908060030154908060040180546110669061267c565b80601f01602080910402602001604051908101604052809291908181526020018280546110929061267c565b80156110df5780601f106110b4576101008083540402835291602001916110df565b820191906000526020600020905b8154815290600101906020018083116110c257829003601f168201915b5050505050908060050154908060060180546110fa9061267c565b80601f01602080910402602001604051908101604052809291908181526020018280546111269061267c565b80156111735780601f1061114857610100808354040283529160200191611173565b820191906000526020600020905b81548152906001019060200180831161115657829003601f168201915b505050506007830154600884018054939460ff8316946101009093046001600160a01b03169350916111a49061267c565b80601f01602080910402602001604051908101604052809291908181526020018280546111d09061267c565b801561121d5780601f106111f25761010080835404028352916020019161121d565b820191906000526020600020905b81548152906001019060200180831161120057829003601f168201915b5050506009909301549192505060ff168b565b600081815260208190526040902060090154606090829060ff166112665760405162461bcd60e51b81526004016102869061264c565b600083815260016020908152604080832080548251818502810185019093528083529193909284015b828210156114e45760008481526020908190206040805161010081018252600786029092018054835260018101546001600160a01b039081169484019490945260028101549384169183019190915290916060830190600160a01b900460ff16600381111561130057611300612087565b600381111561131157611311612087565b81526020016003820180546113259061267c565b80601f01602080910402602001604051908101604052809291908181526020018280546113519061267c565b801561139e5780601f106113735761010080835404028352916020019161139e565b820191906000526020600020905b81548152906001019060200180831161138157829003601f168201915b50505050508152602001600482015481526020016005820180546113c19061267c565b80601f01602080910402602001604051908101604052809291908181526020018280546113ed9061267c565b801561143a5780601f1061140f5761010080835404028352916020019161143a565b820191906000526020600020905b81548152906001019060200180831161141d57829003601f168201915b505050505081526020016006820180546114539061267c565b80601f016020809104026020016040519081016040528092919081815260200182805461147f9061267c565b80156114cc5780601f106114a1576101008083540402835291602001916114cc565b820191906000526020600020905b8154815290600101906020018083116114af57829003601f168201915b5050505050815250508152602001906001019061128f565b5050505091505b50919050565b6114f9611d92565b600082815260208190526040902060090154829060ff1661152c5760405162461bcd60e51b81526004016102869061264c565b600083815260208181526040918290208251610160810190935280548352600181018054919284019161155e9061267c565b80601f016020809104026020016040519081016040528092919081815260200182805461158a9061267c565b80156115d75780601f106115ac576101008083540402835291602001916115d7565b820191906000526020600020905b8154815290600101906020018083116115ba57829003601f168201915b505050505081526020016002820180546115f09061267c565b80601f016020809104026020016040519081016040528092919081815260200182805461161c9061267c565b80156116695780601f1061163e57610100808354040283529160200191611669565b820191906000526020600020905b81548152906001019060200180831161164c57829003601f168201915b505050505081526020016003820154815260200160048201805461168c9061267c565b80601f01602080910402602001604051908101604052809291908181526020018280546116b89061267c565b80156117055780601f106116da57610100808354040283529160200191611705565b820191906000526020600020905b8154815290600101906020018083116116e857829003601f168201915b50505050508152602001600582015481526020016006820180546117289061267c565b80601f01602080910402602001604051908101604052809291908181526020018280546117549061267c565b80156117a15780601f10611776576101008083540402835291602001916117a1565b820191906000526020600020905b81548152906001019060200180831161178457829003601f168201915b5050509183525050600782015460209091019060ff1660038111156117c8576117c8612087565b60038111156117d9576117d9612087565b8152600782015461010090046001600160a01b031660208201526008820180546040909201916118089061267c565b80601f01602080910402602001604051908101604052809291908181526020018280546118349061267c565b80156118815780601f1061185657610100808354040283529160200191611881565b820191906000526020600020905b81548152906001019060200180831161186457829003601f168201915b50505091835250506009919091015460ff1615156020909101529392505050565b600260205260009081526040902080546001820180546001600160a01b03831693600160a01b90930460ff169291906118da9061267c565b80601f01602080910402602001604051908101604052809291908181526020018280546119069061267c565b80156119535780601f1061192857610100808354040283529160200191611953565b820191906000526020600020905b81548152906001019060200180831161193657829003601f168201915b5050505050908060020180546119689061267c565b80601f01602080910402602001604051908101604052809291908181526020018280546119949061267c565b80156119e15780601f106119b6576101008083540402835291602001916119e1565b820191906000526020600020905b8154815290600101906020018083116119c457829003601f168201915b5050506003909301549192505060ff1685565b600082815260208190526040812060090154839060ff16611a275760405162461bcd60e51b81526004016102869061264c565b82604051602001611a38919061281f565b60408051601f1981840301815282825280516020918201206000888152808352929092209192611a6c92600801910161283b565b604051602081830303815290604052805190602001201491505092915050565b3360009081526002602052604090206003015460ff1615611ae45760405162461bcd60e51b8152602060048201526012602482015271105b1c9958591e481c9959da5cdd195c995960721b6044820152606401610286565b6040518060a00160405280336001600160a01b03168152602001846003811115611b1057611b10612087565b81526020808201859052604080830185905260016060909301929092523360009081526002825291909120825181546001600160a01b03919091166001600160a01b031982168117835592840151919283916001600160a81b03191617600160a01b836003811115611b8457611b84612087565b021790555060408201516001820190611b9d90826126ff565b5060608201516002820190611bb290826126ff565b50608091909101516003909101805460ff191691151591909117905560405133907f110b738ebb1be6a0003a04bc69dea2d42dce2ff6424f866e30a39749b1c2459890611c0290869086906128b1565b60405180910390a2505050565b6060600060035467ffffffffffffffff811115611c2e57611c2e611e29565b604051908082528060200260200182016040528015611c57578160200160208202803683370190505b509050600060015b6003548111611ced576000818152602081905260409020600701546001600160a01b0386811661010090920416148015611caa575060008181526020819052604090206009015460ff165b15611cdb5780838381518110611cc257611cc26128db565b602090810291909101015281611cd7816127d6565b9250505b80611ce5816127d6565b915050611c5f565b5060008167ffffffffffffffff811115611d0957611d09611e29565b604051908082528060200260200182016040528015611d32578160200160208202803683370190505b50905060005b82811015611d8957838181518110611d5257611d526128db565b6020026020010151828281518110611d6c57611d6c6128db565b602090810291909101015280611d81816127d6565b915050611d38565b50949350505050565b6040518061016001604052806000815260200160608152602001606081526020016000815260200160608152602001600081526020016060815260200160006003811115611de257611de2612087565b81526000602082018190526060604083018190529091015290565b80356001600160a01b0381168114611e1457600080fd5b919050565b60048110611e2657600080fd5b50565b634e487b7160e01b600052604160045260246000fd5b600082601f830112611e5057600080fd5b813567ffffffffffffffff80821115611e6b57611e6b611e29565b604051601f8301601f19908116603f01168101908282118183101715611e9357611e93611e29565b81604052838152866020858801011115611eac57600080fd5b836020870160208301376000602085830101528094505050505092915050565b60008060008060008060c08789031215611ee557600080fd5b86359550611ef560208801611dfd565b94506040870135611f0581611e19565b9350606087013567ffffffffffffffff80821115611f2257600080fd5b611f2e8a838b01611e3f565b94506080890135915080821115611f4457600080fd5b611f508a838b01611e3f565b935060a0890135915080821115611f6657600080fd5b50611f7389828a01611e3f565b9150509295509295509295565b600080600080600080600060e0888a031215611f9b57600080fd5b873567ffffffffffffffff80821115611fb357600080fd5b611fbf8b838c01611e3f565b985060208a0135915080821115611fd557600080fd5b611fe18b838c01611e3f565b975060408a0135965060608a0135915080821115611ffe57600080fd5b61200a8b838c01611e3f565b955060808a0135945060a08a013591508082111561202757600080fd5b6120338b838c01611e3f565b935060c08a013591508082111561204957600080fd5b506120568a828b01611e3f565b91505092959891949750929550565b6000806040838503121561207857600080fd5b50508035926020909101359150565b634e487b7160e01b600052602160045260246000fd5b60048110611e2657634e487b7160e01b600052602160045260246000fd5b6120c48161209d565b9052565b60005b838110156120e35781810151838201526020016120cb565b50506000910152565b600081518084526121048160208601602086016120c8565b601f01601f19169290920160200192915050565b8881526001600160a01b0388811660208301528716604082015260006101006121408861209d565b876060840152806080840152612158818401886120ec565b90508560a084015282810360c084015261217281866120ec565b905082810360e084015261218681856120ec565b9b9a5050505050505050505050565b6000602082840312156121a757600080fd5b6121b082611dfd565b9392505050565b602080825282516001600160a01b0316828201528201516000906121da8161209d565b80604084015250604083015160a060608401526121fa60c08401826120ec565b90506060840151601f1984830301608085015261221782826120ec565b9150506080840151151560a08401528091505092915050565b60006020828403121561224257600080fd5b5035919050565b60006101608d83528060208401526122638184018e6120ec565b90508281036040840152612277818d6120ec565b90508a60608401528281036080840152612291818b6120ec565b90508860a084015282810360c08401526122ab81896120ec565b90506122b68761209d565b60e083018790526001600160a01b0386166101008401528281036101208401526122e081866120ec565b9150508215156101408301529c9b505050505050505050505050565b60006020808301818452808551808352604092508286019150828160051b87010184880160005b838110156123de57603f19898403018552815180518452878101516001600160a01b0390811689860152878201511687850152606080820151610100919061236d828801826120bb565b50506080808301518282880152612386838801826120ec565b9250505060a080830151818701525060c080830151868303828801526123ac83826120ec565b9250505060e080830151925085820381870152506123ca81836120ec565b968901969450505090860190600101612323565b509098975050505050505050565b6020815281516020820152600060208301516101608060408501526124156101808501836120ec565b91506040850151601f198086850301606087015261243384836120ec565b93506060870151608087015260808701519150808685030160a087015261245a84836120ec565b935060a087015160c087015260c08701519150808685030160e087015261248184836120ec565b935060e08701519150610100612499818801846120bb565b87015191506101206124b5878201846001600160a01b03169052565b808801519250506101408187860301818801526124d285846120ec565b945080880151925050506124e98286018215159052565b5090949350505050565b6001600160a01b03861681526125088561209d565b84602082015260a06040820152600061252460a08301866120ec565b828103606084015261253681866120ec565b91505082151560808301529695505050505050565b6000806040838503121561255e57600080fd5b82359150602083013567ffffffffffffffff81111561257c57600080fd5b61258885828601611e3f565b9150509250929050565b6000806000606084860312156125a757600080fd5b83356125b281611e19565b9250602084013567ffffffffffffffff808211156125cf57600080fd5b6125db87838801611e3f565b935060408601359150808211156125f157600080fd5b506125fe86828701611e3f565b9150509250925092565b6020808252825182820181905260009190848201906040850190845b8181101561264057835183529284019291840191600101612624565b50909695505050505050565b602080825260169082015275141c9bd91d58dd08191bd95cc81b9bdd08195e1a5cdd60521b604082015260600190565b600181811c9082168061269057607f821691505b6020821081036114eb57634e487b7160e01b600052602260045260246000fd5b601f8211156126fa57600081815260208120601f850160051c810160208610156126d75750805b601f850160051c820191505b818110156126f6578281556001016126e3565b5050505b505050565b815167ffffffffffffffff81111561271957612719611e29565b61272d81612727845461267c565b846126b0565b602080601f831160018114612762576000841561274a5750858301515b600019600386901b1c1916600185901b1785556126f6565b600085815260208120601f198616915b8281101561279157888601518255948401946001909101908401612772565b50858210156127af5787850151600019600388901b60f8161c191681555b5050505050600190811b01905550565b604081016127cc8461209d565b9281526020015290565b6000600182016127f657634e487b7160e01b600052601160045260246000fd5b5060010190565b60408152600061281060408301856120ec565b90508260208301529392505050565b600082516128318184602087016120c8565b9190910192915050565b60008083546128498161267c565b600182811680156128615760018114612876576128a5565b60ff19841687528215158302870194506128a5565b8760005260208060002060005b8581101561289c5781548a820152908401908201612883565b50505082870194505b50929695505050505050565b6128ba8361209d565b8281526040602082015260006128d360408301846120ec565b949350505050565b634e487b7160e01b600052603260045260246000fdfea2646970667358221220df317bcf23c6540a87e3f84eec0ad7a0b76b10827210ce77d1cb3874d0df071264736f6c63430008130033","opcodes":"PUSH1 0x80 PUSH1 0x40 MSTORE CALLVALUE DUP1 ISZERO PUSH2 0x10 JUMPI PUSH1 0x0 DUP1 REVERT JUMPDEST POP PUSH2 0x2927 DUP1 PUSH2 0x20 PUSH1 0x0 CODECOPY PUSH1 0x0 RETURN INVALID PUSH1 0x80 PUSH1 0x40 MSTORE CALLVALUE DUP1 ISZERO PUSH2 0x10 JUMPI PUSH1 0x0 DUP1 REVERT JUMPDEST POP PUSH1 0x4 CALLDATASIZE LT PUSH2 0xB4 JUMPI PUSH1 0x0 CALLDATALOAD PUSH1 0xE0 SHR DUP1 PUSH4 0x9AB2DFA3 GT PUSH2 0x71 JUMPI DUP1 PUSH4 0x9AB2DFA3 EQ PUSH2 0x16E JUMPI DUP1 PUSH4 0xB9DB15B4 EQ PUSH2 0x18E JUMPI DUP1 PUSH4 0xC07CFCA9 EQ PUSH2 0x1AE JUMPI DUP1 PUSH4 0xC3A4E597 EQ PUSH2 0x1D2 JUMPI DUP1 PUSH4 0xD10E53D3 EQ PUSH2 0x1F5 JUMPI DUP1 PUSH4 0xEC90A7B0 EQ PUSH2 0x208 JUMPI PUSH1 0x0 DUP1 REVERT JUMPDEST DUP1 PUSH4 0x7DD0A0F EQ PUSH2 0xB9 JUMPI DUP1 PUSH4 0xFFE433D EQ PUSH2 0xCE JUMPI DUP1 PUSH4 0x1F16653B EQ PUSH2 0xF4 JUMPI DUP1 PUSH4 0x259132D4 EQ PUSH2 0xFD JUMPI DUP1 PUSH4 0x62AFDE25 EQ PUSH2 0x124 JUMPI DUP1 PUSH4 0x7ACC0B20 EQ PUSH2 0x144 JUMPI JUMPDEST PUSH1 0x0 DUP1 REVERT JUMPDEST PUSH2 0xCC PUSH2 0xC7 CALLDATASIZE PUSH1 0x4 PUSH2 0x1ECC JUMP JUMPDEST PUSH2 0x228 JUMP JUMPDEST STOP JUMPDEST PUSH2 0xE1 PUSH2 0xDC CALLDATASIZE PUSH1 0x4 PUSH2 0x1F80 JUMP JUMPDEST PUSH2 0x763 JUMP JUMPDEST PUSH1 0x40 MLOAD SWAP1 DUP2 MSTORE PUSH1 0x20 ADD JUMPDEST PUSH1 0x40 MLOAD DUP1 SWAP2 SUB SWAP1 RETURN JUMPDEST PUSH2 0xE1 PUSH1 0x3 SLOAD DUP2 JUMP JUMPDEST PUSH2 0x110 PUSH2 0x10B CALLDATASIZE PUSH1 0x4 PUSH2 0x2065 JUMP JUMPDEST PUSH2 0xB43 JUMP JUMPDEST PUSH1 0x40 MLOAD PUSH2 0xEB SWAP9 SWAP8 SWAP7 SWAP6 SWAP5 SWAP4 SWAP3 SWAP2 SWAP1 PUSH2 0x2118 JUMP JUMPDEST PUSH2 0x137 PUSH2 0x132 CALLDATASIZE PUSH1 0x4 PUSH2 0x2195 JUMP JUMPDEST PUSH2 0xD52 JUMP JUMPDEST PUSH1 0x40 MLOAD PUSH2 0xEB SWAP2 SWAP1 PUSH2 0x21B7 JUMP JUMPDEST PUSH2 0x157 PUSH2 0x152 CALLDATASIZE PUSH1 0x4 PUSH2 0x2230 JUMP JUMPDEST PUSH2 0xF22 JUMP JUMPDEST PUSH1 0x40 MLOAD PUSH2 0xEB SWAP12 SWAP11 SWAP10 SWAP9 SWAP8 SWAP7 SWAP6 SWAP5 SWAP4 SWAP3 SWAP2 SWAP1 PUSH2 0x2249 JUMP JUMPDEST PUSH2 0x181 PUSH2 0x17C CALLDATASIZE PUSH1 0x4 PUSH2 0x2230 JUMP JUMPDEST PUSH2 0x1230 JUMP JUMPDEST PUSH1 0x40 MLOAD PUSH2 0xEB SWAP2 SWAP1 PUSH2 0x22FC JUMP JUMPDEST PUSH2 0x1A1 PUSH2 0x19C CALLDATASIZE PUSH1 0x4 PUSH2 0x2230 JUMP JUMPDEST PUSH2 0x14F1 JUMP JUMPDEST PUSH1 0x40 MLOAD PUSH2 0xEB SWAP2 SWAP1 PUSH2 0x23EC JUMP JUMPDEST PUSH2 0x1C1 PUSH2 0x1BC CALLDATASIZE PUSH1 0x4 PUSH2 0x2195 JUMP JUMPDEST PUSH2 0x18A2 JUMP JUMPDEST PUSH1 0x40 MLOAD PUSH2 0xEB SWAP6 SWAP5 SWAP4 SWAP3 SWAP2 SWAP1 PUSH2 0x24F3 JUMP JUMPDEST PUSH2 0x1E5 PUSH2 0x1E0 CALLDATASIZE PUSH1 0x4 PUSH2 0x254B JUMP JUMPDEST PUSH2 0x19F4 JUMP JUMPDEST PUSH1 0x40 MLOAD SWAP1 ISZERO ISZERO DUP2 MSTORE PUSH1 0x20 ADD PUSH2 0xEB JUMP JUMPDEST PUSH2 0xCC PUSH2 0x203 CALLDATASIZE PUSH1 0x4 PUSH2 0x2592 JUMP JUMPDEST PUSH2 0x1A8C JUMP JUMPDEST PUSH2 0x21B PUSH2 0x216 CALLDATASIZE PUSH1 0x4 PUSH2 0x2195 JUMP JUMPDEST PUSH2 0x1C0F JUMP JUMPDEST PUSH1 0x40 MLOAD PUSH2 0xEB SWAP2 SWAP1 PUSH2 0x2608 JUMP JUMPDEST CALLER PUSH1 0x0 SWAP1 DUP2 MSTORE PUSH1 0x2 PUSH1 0x20 MSTORE PUSH1 0x40 SWAP1 KECCAK256 PUSH1 0x3 ADD SLOAD PUSH1 0xFF AND PUSH2 0x28F JUMPI PUSH1 0x40 MLOAD PUSH3 0x461BCD PUSH1 0xE5 SHL DUP2 MSTORE PUSH1 0x20 PUSH1 0x4 DUP3 ADD MSTORE PUSH1 0x1C PUSH1 0x24 DUP3 ADD MSTORE PUSH32 0x4E6F7420612072656769737465726564207374616B65686F6C64657200000000 PUSH1 0x44 DUP3 ADD MSTORE PUSH1 0x64 ADD JUMPDEST PUSH1 0x40 MLOAD DUP1 SWAP2 SUB SWAP1 REVERT JUMPDEST PUSH1 0x0 DUP7 DUP2 MSTORE PUSH1 0x20 DUP2 SWAP1 MSTORE PUSH1 0x40 SWAP1 KECCAK256 PUSH1 0x9 ADD SLOAD DUP7 SWAP1 PUSH1 0xFF AND PUSH2 0x2C2 JUMPI PUSH1 0x40 MLOAD PUSH3 0x461BCD PUSH1 0xE5 SHL DUP2 MSTORE PUSH1 0x4 ADD PUSH2 0x286 SWAP1 PUSH2 0x264C JUMP JUMPDEST PUSH1 0x0 DUP8 DUP2 MSTORE PUSH1 0x20 DUP2 SWAP1 MSTORE PUSH1 0x40 DUP2 KECCAK256 SWAP1 PUSH1 0x7 DUP3 ADD SLOAD PUSH1 0xFF AND PUSH1 0x3 DUP2 GT ISZERO PUSH2 0x2EA JUMPI PUSH2 0x2EA PUSH2 0x2087 JUMP JUMPDEST SUB PUSH2 0x3EB JUMPI PUSH1 0x7 DUP2 ADD SLOAD PUSH2 0x100 SWAP1 DIV PUSH1 0x1 PUSH1 0x1 PUSH1 0xA0 SHL SUB AND CALLER EQ PUSH2 0x363 JUMPI PUSH1 0x40 MLOAD PUSH3 0x461BCD PUSH1 0xE5 SHL DUP2 MSTORE PUSH1 0x20 PUSH1 0x4 DUP3 ADD MSTORE PUSH1 0x2A PUSH1 0x24 DUP3 ADD MSTORE PUSH32 0x4F6E6C79206661726D65722063616E207472616E736665722068617276657374 PUSH1 0x44 DUP3 ADD MSTORE PUSH10 0x1959081C1C9BD91D58DD PUSH1 0xB2 SHL PUSH1 0x64 DUP3 ADD MSTORE PUSH1 0x84 ADD PUSH2 0x286 JUMP JUMPDEST PUSH1 0x1 PUSH1 0x1 PUSH1 0x1 PUSH1 0xA0 SHL SUB DUP9 AND PUSH1 0x0 SWAP1 DUP2 MSTORE PUSH1 0x2 PUSH1 0x20 MSTORE PUSH1 0x40 SWAP1 KECCAK256 SLOAD PUSH1 0x1 PUSH1 0xA0 SHL SWAP1 DIV PUSH1 0xFF AND PUSH1 0x3 DUP2 GT ISZERO PUSH2 0x399 JUMPI PUSH2 0x399 PUSH2 0x2087 JUMP JUMPDEST EQ PUSH2 0x3E6 JUMPI PUSH1 0x40 MLOAD PUSH3 0x461BCD PUSH1 0xE5 SHL DUP2 MSTORE PUSH1 0x20 PUSH1 0x4 DUP3 ADD DUP2 SWAP1 MSTORE PUSH1 0x24 DUP3 ADD MSTORE PUSH32 0x43616E206F6E6C79207472616E7366657220746F206469737472696275746F72 PUSH1 0x44 DUP3 ADD MSTORE PUSH1 0x64 ADD PUSH2 0x286 JUMP JUMPDEST PUSH2 0x59B JUMP JUMPDEST PUSH1 0x1 PUSH1 0x7 DUP3 ADD SLOAD PUSH1 0xFF AND PUSH1 0x3 DUP2 GT ISZERO PUSH2 0x406 JUMPI PUSH2 0x406 PUSH2 0x2087 JUMP JUMPDEST SUB PUSH2 0x508 JUMPI PUSH1 0x1 CALLER PUSH1 0x0 SWAP1 DUP2 MSTORE PUSH1 0x2 PUSH1 0x20 MSTORE PUSH1 0x40 SWAP1 KECCAK256 SLOAD PUSH1 0x1 PUSH1 0xA0 SHL SWAP1 DIV PUSH1 0xFF AND PUSH1 0x3 DUP2 GT ISZERO PUSH2 0x438 JUMPI PUSH2 0x438 PUSH2 0x2087 JUMP JUMPDEST EQ PUSH2 0x485 JUMPI PUSH1 0x40 MLOAD PUSH3 0x461BCD PUSH1 0xE5 SHL DUP2 MSTORE PUSH1 0x20 PUSH1 0x4 DUP3 ADD MSTORE PUSH1 0x1D PUSH1 0x24 DUP3 ADD MSTORE PUSH32 0x4F6E6C79206469737472696275746F722063616E207472616E73666572000000 PUSH1 0x44 DUP3 ADD MSTORE PUSH1 0x64 ADD PUSH2 0x286 JUMP JUMPDEST PUSH1 0x2 PUSH1 0x1 PUSH1 0x1 PUSH1 0xA0 SHL SUB DUP9 AND PUSH1 0x0 SWAP1 DUP2 MSTORE PUSH1 0x2 PUSH1 0x20 MSTORE PUSH1 0x40 SWAP1 KECCAK256 SLOAD PUSH1 0x1 PUSH1 0xA0 SHL SWAP1 DIV PUSH1 0xFF AND PUSH1 0x3 DUP2 GT ISZERO PUSH2 0x4BB JUMPI PUSH2 0x4BB PUSH2 0x2087 JUMP JUMPDEST EQ PUSH2 0x3E6 JUMPI PUSH1 0x40 MLOAD PUSH3 0x461BCD PUSH1 0xE5 SHL DUP2 MSTORE PUSH1 0x20 PUSH1 0x4 DUP3 ADD MSTORE PUSH1 0x1D PUSH1 0x24 DUP3 ADD MSTORE PUSH32 0x43616E206F6E6C79207472616E7366657220746F2072657461696C6572000000 PUSH1 0x44 DUP3 ADD MSTORE PUSH1 0x64 ADD PUSH2 0x286 JUMP JUMPDEST PUSH1 0x2 PUSH1 0x7 DUP3 ADD SLOAD PUSH1 0xFF AND PUSH1 0x3 DUP2 GT ISZERO PUSH2 0x523 JUMPI PUSH2 0x523 PUSH2 0x2087 JUMP JUMPDEST SUB PUSH2 0x59B JUMPI PUSH1 0x2 CALLER PUSH1 0x0 SWAP1 DUP2 MSTORE PUSH1 0x2 PUSH1 0x20 MSTORE PUSH1 0x40 SWAP1 KECCAK256 SLOAD PUSH1 0x1 PUSH1 0xA0 SHL SWAP1 DIV PUSH1 0xFF AND PUSH1 0x3 DUP2 GT ISZERO PUSH2 0x555 JUMPI PUSH2 0x555 PUSH2 0x2087 JUMP JUMPDEST EQ PUSH2 0x59B JUMPI PUSH1 0x40 MLOAD PUSH3 0x461BCD PUSH1 0xE5 SHL DUP2 MSTORE PUSH1 0x20 PUSH1 0x4 DUP3 ADD MSTORE PUSH1 0x16 PUSH1 0x24 DUP3 ADD MSTORE PUSH22 0x13DB9B1E481C995D185A5B195C8818D85B881CD95B1B PUSH1 0x52 SHL PUSH1 0x44 DUP3 ADD MSTORE PUSH1 0x64 ADD PUSH2 0x286 JUMP JUMPDEST PUSH1 0x7 DUP2 ADD DUP1 SLOAD DUP8 SWAP2 SWAP1 PUSH1 0xFF NOT AND PUSH1 0x1 DUP4 PUSH1 0x3 DUP2 GT ISZERO PUSH2 0x5BC JUMPI PUSH2 0x5BC PUSH2 0x2087 JUMP JUMPDEST MUL OR SWAP1 SSTORE POP PUSH1 0x1 PUSH1 0x0 DUP10 DUP2 MSTORE PUSH1 0x20 ADD SWAP1 DUP2 MSTORE PUSH1 0x20 ADD PUSH1 0x0 KECCAK256 PUSH1 0x40 MLOAD DUP1 PUSH2 0x100 ADD PUSH1 0x40 MSTORE DUP1 DUP11 DUP2 MSTORE PUSH1 0x20 ADD CALLER PUSH1 0x1 PUSH1 0x1 PUSH1 0xA0 SHL SUB AND DUP2 MSTORE PUSH1 0x20 ADD DUP10 PUSH1 0x1 PUSH1 0x1 PUSH1 0xA0 SHL SUB AND DUP2 MSTORE PUSH1 0x20 ADD DUP9 PUSH1 0x3 DUP2 GT ISZERO PUSH2 0x616 JUMPI PUSH2 0x616 PUSH2 0x2087 JUMP JUMPDEST DUP2 MSTORE PUSH1 0x20 DUP1 DUP3 ADD DUP10 SWAP1 MSTORE TIMESTAMP PUSH1 0x40 DUP1 DUP5 ADD SWAP2 SWAP1 SWAP2 MSTORE PUSH1 0x60 DUP1 DUP5 ADD DUP11 SWAP1 MSTORE PUSH1 0x80 SWAP1 SWAP4 ADD DUP9 SWAP1 MSTORE DUP5 SLOAD PUSH1 0x1 DUP2 DUP2 ADD DUP8 SSTORE PUSH1 0x0 SWAP7 DUP8 MSTORE SWAP6 DUP4 SWAP1 KECCAK256 DUP6 MLOAD PUSH1 0x7 SWAP1 SWAP3 MUL ADD SWAP1 DUP2 SSTORE SWAP2 DUP5 ADD MLOAD SWAP5 DUP3 ADD DUP1 SLOAD PUSH1 0x1 PUSH1 0x1 PUSH1 0xA0 SHL SUB SWAP7 DUP8 AND PUSH1 0x1 PUSH1 0x1 PUSH1 0xA0 SHL SUB NOT SWAP2 DUP3 AND OR SWAP1 SWAP2 SSTORE SWAP1 DUP5 ADD MLOAD PUSH1 0x2 DUP4 ADD DUP1 SLOAD SWAP2 SWAP1 SWAP7 AND SWAP2 DUP2 AND DUP3 OR DUP7 SSTORE SWAP3 DUP5 ADD MLOAD SWAP4 SWAP5 SWAP2 SWAP4 SWAP3 PUSH1 0x1 PUSH1 0x1 PUSH1 0xA8 SHL SUB NOT AND OR PUSH1 0x1 PUSH1 0xA0 SHL DUP4 PUSH1 0x3 DUP2 GT ISZERO PUSH2 0x6BB JUMPI PUSH2 0x6BB PUSH2 0x2087 JUMP JUMPDEST MUL OR SWAP1 SSTORE POP PUSH1 0x80 DUP3 ADD MLOAD PUSH1 0x3 DUP3 ADD SWAP1 PUSH2 0x6D4 SWAP1 DUP3 PUSH2 0x26FF JUMP JUMPDEST POP PUSH1 0xA0 DUP3 ADD MLOAD PUSH1 0x4 DUP3 ADD SSTORE PUSH1 0xC0 DUP3 ADD MLOAD PUSH1 0x5 DUP3 ADD SWAP1 PUSH2 0x6F3 SWAP1 DUP3 PUSH2 0x26FF JUMP JUMPDEST POP PUSH1 0xE0 DUP3 ADD MLOAD PUSH1 0x6 DUP3 ADD SWAP1 PUSH2 0x708 SWAP1 DUP3 PUSH2 0x26FF JUMP JUMPDEST POP POP POP DUP7 PUSH1 0x1 PUSH1 0x1 PUSH1 0xA0 SHL SUB AND CALLER PUSH1 0x1 PUSH1 0x1 PUSH1 0xA0 SHL SUB AND DUP10 PUSH32 0x9FA92E8B138A6A0678480E61B6E7A0EE30AF964EA75BC7B4A7006435E0F9B537 DUP10 TIMESTAMP PUSH1 0x40 MLOAD PUSH2 0x751 SWAP3 SWAP2 SWAP1 PUSH2 0x27BF JUMP JUMPDEST PUSH1 0x40 MLOAD DUP1 SWAP2 SUB SWAP1 LOG4 POP POP POP POP POP POP POP POP JUMP JUMPDEST CALLER PUSH1 0x0 SWAP1 DUP2 MSTORE PUSH1 0x2 PUSH1 0x20 MSTORE PUSH1 0x40 DUP2 KECCAK256 PUSH1 0x3 ADD SLOAD PUSH1 0xFF AND PUSH2 0x7C5 JUMPI PUSH1 0x40 MLOAD PUSH3 0x461BCD PUSH1 0xE5 SHL DUP2 MSTORE PUSH1 0x20 PUSH1 0x4 DUP3 ADD MSTORE PUSH1 0x1C PUSH1 0x24 DUP3 ADD MSTORE PUSH32 0x4E6F7420612072656769737465726564207374616B65686F6C64657200000000 PUSH1 0x44 DUP3 ADD MSTORE PUSH1 0x64 ADD PUSH2 0x286 JUMP JUMPDEST PUSH1 0x0 DUP1 CALLER PUSH1 0x0 SWAP1 DUP2 MSTORE PUSH1 0x2 PUSH1 0x20 MSTORE PUSH1 0x40 SWAP1 KECCAK256 SLOAD PUSH1 0x1 PUSH1 0xA0 SHL SWAP1 DIV PUSH1 0xFF AND PUSH1 0x3 DUP2 GT ISZERO PUSH2 0x7F3 JUMPI PUSH2 0x7F3 PUSH2 0x2087 JUMP JUMPDEST EQ PUSH2 0x834 JUMPI PUSH1 0x40 MLOAD PUSH3 0x461BCD PUSH1 0xE5 SHL DUP2 MSTORE PUSH1 0x20 PUSH1 0x4 DUP3 ADD MSTORE PUSH1 0x11 PUSH1 0x24 DUP3 ADD MSTORE PUSH17 0x556E617574686F72697A656420726F6C65 PUSH1 0x78 SHL PUSH1 0x44 DUP3 ADD MSTORE PUSH1 0x64 ADD PUSH2 0x286 JUMP JUMPDEST PUSH1 0x3 DUP1 SLOAD SWAP1 PUSH1 0x0 PUSH2 0x844 DUP4 PUSH2 0x27D6 JUMP JUMPDEST SWAP2 SWAP1 POP SSTORE POP PUSH1 0x0 PUSH1 0x3 SLOAD SWAP1 POP PUSH1 0x40 MLOAD DUP1 PUSH2 0x160 ADD PUSH1 0x40 MSTORE DUP1 DUP3 DUP2 MSTORE PUSH1 0x20 ADD DUP12 DUP2 MSTORE PUSH1 0x20 ADD DUP11 DUP2 MSTORE PUSH1 0x20 ADD DUP10 DUP2 MSTORE PUSH1 0x20 ADD DUP9 DUP2 MSTORE PUSH1 0x20 ADD DUP8 DUP2 MSTORE PUSH1 0x20 ADD DUP7 DUP2 MSTORE PUSH1 0x20 ADD PUSH1 0x0 PUSH1 0x3 DUP2 GT ISZERO PUSH2 0x899 JUMPI PUSH2 0x899 PUSH2 0x2087 JUMP JUMPDEST DUP2 MSTORE CALLER PUSH1 0x20 DUP1 DUP4 ADD SWAP2 SWAP1 SWAP2 MSTORE PUSH1 0x40 DUP1 DUP4 ADD DUP9 SWAP1 MSTORE PUSH1 0x1 PUSH1 0x60 SWAP1 SWAP4 ADD DUP4 SWAP1 MSTORE PUSH1 0x0 DUP6 DUP2 MSTORE DUP1 DUP4 MSTORE KECCAK256 DUP4 MLOAD DUP2 SSTORE SWAP1 DUP4 ADD MLOAD SWAP1 SWAP2 DUP3 ADD SWAP1 PUSH2 0x8D7 SWAP1 DUP3 PUSH2 0x26FF JUMP JUMPDEST POP PUSH1 0x40 DUP3 ADD MLOAD PUSH1 0x2 DUP3 ADD SWAP1 PUSH2 0x8EC SWAP1 DUP3 PUSH2 0x26FF JUMP JUMPDEST POP PUSH1 0x60 DUP3 ADD MLOAD PUSH1 0x3 DUP3 ADD SSTORE PUSH1 0x80 DUP3 ADD MLOAD PUSH1 0x4 DUP3 ADD SWAP1 PUSH2 0x90B SWAP1 DUP3 PUSH2 0x26FF JUMP JUMPDEST POP PUSH1 0xA0 DUP3 ADD MLOAD PUSH1 0x5 DUP3 ADD SSTORE PUSH1 0xC0 DUP3 ADD MLOAD PUSH1 0x6 DUP3 ADD SWAP1 PUSH2 0x92A SWAP1 DUP3 PUSH2 0x26FF JUMP JUMPDEST POP PUSH1 0xE0 DUP3 ADD MLOAD PUSH1 0x7 DUP3 ADD DUP1 SLOAD PUSH1 0xFF NOT AND PUSH1 0x1 DUP4 PUSH1 0x3 DUP2 GT ISZERO PUSH2 0x94E JUMPI PUSH2 0x94E PUSH2 0x2087 JUMP JUMPDEST MUL OR SWAP1 SSTORE POP PUSH2 0x100 DUP3 DUP2 ADD MLOAD PUSH1 0x7 DUP4 ADD DUP1 SLOAD PUSH2 0x100 PUSH1 0x1 PUSH1 0xA8 SHL SUB NOT AND PUSH1 0x1 PUSH1 0x1 PUSH1 0xA0 SHL SUB SWAP1 SWAP3 AND SWAP1 SWAP3 MUL OR SWAP1 SSTORE PUSH2 0x120 DUP3 ADD MLOAD PUSH1 0x8 DUP3 ADD SWAP1 PUSH2 0x991 SWAP1 DUP3 PUSH2 0x26FF JUMP JUMPDEST POP PUSH2 0x140 SWAP2 SWAP1 SWAP2 ADD MLOAD PUSH1 0x9 SWAP1 SWAP2 ADD DUP1 SLOAD PUSH1 0xFF NOT AND SWAP2 ISZERO ISZERO SWAP2 SWAP1 SWAP2 OR SWAP1 SSTORE PUSH1 0x0 DUP2 DUP2 MSTORE PUSH1 0x1 PUSH1 0x20 SWAP1 DUP2 MSTORE PUSH1 0x40 DUP1 DUP4 KECCAK256 DUP2 MLOAD PUSH2 0x100 DUP2 ADD DUP4 MSTORE DUP6 DUP2 MSTORE SWAP3 DUP4 ADD DUP5 SWAP1 MSTORE CALLER SWAP2 DUP4 ADD SWAP2 SWAP1 SWAP2 MSTORE SWAP2 PUSH1 0x60 DUP3 ADD SWAP1 DUP2 MSTORE PUSH1 0x20 DUP1 DUP3 ADD DUP12 SWAP1 MSTORE TIMESTAMP PUSH1 0x40 DUP1 DUP5 ADD SWAP2 SWAP1 SWAP2 MSTORE DUP1 MLOAD DUP1 DUP3 ADD DUP3 MSTORE PUSH1 0x7 DUP1 DUP3 MSTORE PUSH7 0x1A185C9D995CDD PUSH1 0xCA SHL DUP3 DUP6 ADD MSTORE PUSH1 0x60 DUP1 DUP7 ADD SWAP3 SWAP1 SWAP3 MSTORE PUSH1 0x80 SWAP1 SWAP5 ADD DUP11 SWAP1 MSTORE DUP6 SLOAD PUSH1 0x1 DUP2 DUP2 ADD DUP9 SSTORE PUSH1 0x0 SWAP8 DUP9 MSTORE SWAP7 DUP5 SWAP1 KECCAK256 DUP7 MLOAD SWAP2 SWAP1 SWAP6 MUL SWAP1 SWAP5 ADD SWAP4 DUP5 SSTORE SWAP2 DUP5 ADD MLOAD SWAP5 DUP4 ADD DUP1 SLOAD PUSH1 0x1 PUSH1 0x1 PUSH1 0xA0 SHL SUB SWAP7 DUP8 AND PUSH1 0x1 PUSH1 0x1 PUSH1 0xA0 SHL SUB NOT SWAP2 DUP3 AND OR SWAP1 SWAP2 SSTORE SWAP1 DUP5 ADD MLOAD PUSH1 0x2 DUP5 ADD DUP1 SLOAD SWAP2 SWAP1 SWAP7 AND SWAP2 DUP2 AND DUP3 OR DUP7 SSTORE SWAP2 DUP5 ADD MLOAD SWAP4 SWAP5 SWAP3 SWAP4 SWAP3 SWAP2 PUSH1 0x1 PUSH1 0x1 PUSH1 0xA8 SHL SUB NOT AND OR PUSH1 0x1 PUSH1 0xA0 SHL DUP4 PUSH1 0x3 DUP2 GT ISZERO PUSH2 0xAA2 JUMPI PUSH2 0xAA2 PUSH2 0x2087 JUMP JUMPDEST MUL OR SWAP1 SSTORE POP PUSH1 0x80 DUP3 ADD MLOAD PUSH1 0x3 DUP3 ADD SWAP1 PUSH2 0xABB SWAP1 DUP3 PUSH2 0x26FF JUMP JUMPDEST POP PUSH1 0xA0 DUP3 ADD MLOAD PUSH1 0x4 DUP3 ADD SSTORE PUSH1 0xC0 DUP3 ADD MLOAD PUSH1 0x5 DUP3 ADD SWAP1 PUSH2 0xADA SWAP1 DUP3 PUSH2 0x26FF JUMP JUMPDEST POP PUSH1 0xE0 DUP3 ADD MLOAD PUSH1 0x6 DUP3 ADD SWAP1 PUSH2 0xAEF SWAP1 DUP3 PUSH2 0x26FF JUMP JUMPDEST POP POP POP CALLER PUSH1 0x1 PUSH1 0x1 PUSH1 0xA0 SHL SUB AND DUP2 PUSH32 0x5B750C34FF65E7500B4250EF0DB18CF3A3F0D4CE3131EF7E64D457B0BEA7236F DUP13 DUP10 PUSH1 0x40 MLOAD PUSH2 0xB2E SWAP3 SWAP2 SWAP1 PUSH2 0x27FD JUMP JUMPDEST PUSH1 0x40 MLOAD DUP1 SWAP2 SUB SWAP1 LOG3 SWAP10 SWAP9 POP POP POP POP POP POP POP POP POP JUMP JUMPDEST PUSH1 0x1 PUSH1 0x20 MSTORE DUP2 PUSH1 0x0 MSTORE PUSH1 0x40 PUSH1 0x0 KECCAK256 DUP2 DUP2 SLOAD DUP2 LT PUSH2 0xB5F JUMPI PUSH1 0x0 DUP1 REVERT JUMPDEST PUSH1 0x0 SWAP2 DUP3 MSTORE PUSH1 0x20 SWAP1 SWAP2 KECCAK256 PUSH1 0x7 SWAP1 SWAP2 MUL ADD DUP1 SLOAD PUSH1 0x1 DUP3 ADD SLOAD PUSH1 0x2 DUP4 ADD SLOAD PUSH1 0x3 DUP5 ADD DUP1 SLOAD SWAP4 SWAP7 POP PUSH1 0x1 PUSH1 0x1 PUSH1 0xA0 SHL SUB SWAP3 DUP4 AND SWAP6 POP SWAP2 DUP2 AND SWAP4 PUSH1 0x1 PUSH1 0xA0 SHL SWAP1 SWAP2 DIV PUSH1 0xFF AND SWAP3 SWAP1 SWAP2 SWAP1 PUSH2 0xBAD SWAP1 PUSH2 0x267C JUMP JUMPDEST DUP1 PUSH1 0x1F ADD PUSH1 0x20 DUP1 SWAP2 DIV MUL PUSH1 0x20 ADD PUSH1 0x40 MLOAD SWAP1 DUP2 ADD PUSH1 0x40 MSTORE DUP1 SWAP3 SWAP2 SWAP1 DUP2 DUP2 MSTORE PUSH1 0x20 ADD DUP3 DUP1 SLOAD PUSH2 0xBD9 SWAP1 PUSH2 0x267C JUMP JUMPDEST DUP1 ISZERO PUSH2 0xC26 JUMPI DUP1 PUSH1 0x1F LT PUSH2 0xBFB JUMPI PUSH2 0x100 DUP1 DUP4 SLOAD DIV MUL DUP4 MSTORE SWAP2 PUSH1 0x20 ADD SWAP2 PUSH2 0xC26 JUMP JUMPDEST DUP3 ADD SWAP2 SWAP1 PUSH1 0x0 MSTORE PUSH1 0x20 PUSH1 0x0 KECCAK256 SWAP1 JUMPDEST DUP2 SLOAD DUP2 MSTORE SWAP1 PUSH1 0x1 ADD SWAP1 PUSH1 0x20 ADD DUP1 DUP4 GT PUSH2 0xC09 JUMPI DUP3 SWAP1 SUB PUSH1 0x1F AND DUP3 ADD SWAP2 JUMPDEST POP POP POP POP POP SWAP1 DUP1 PUSH1 0x4 ADD SLOAD SWAP1 DUP1 PUSH1 0x5 ADD DUP1 SLOAD PUSH2 0xC41 SWAP1 PUSH2 0x267C JUMP JUMPDEST DUP1 PUSH1 0x1F ADD PUSH1 0x20 DUP1 SWAP2 DIV MUL PUSH1 0x20 ADD PUSH1 0x40 MLOAD SWAP1 DUP2 ADD PUSH1 0x40 MSTORE DUP1 SWAP3 SWAP2 SWAP1 DUP2 DUP2 MSTORE PUSH1 0x20 ADD DUP3 DUP1 SLOAD PUSH2 0xC6D SWAP1 PUSH2 0x267C JUMP JUMPDEST DUP1 ISZERO PUSH2 0xCBA JUMPI DUP1 PUSH1 0x1F LT PUSH2 0xC8F JUMPI PUSH2 0x100 DUP1 DUP4 SLOAD DIV MUL DUP4 MSTORE SWAP2 PUSH1 0x20 ADD SWAP2 PUSH2 0xCBA JUMP JUMPDEST DUP3 ADD SWAP2 SWAP1 PUSH1 0x0 MSTORE PUSH1 0x20 PUSH1 0x0 KECCAK256 SWAP1 JUMPDEST DUP2 SLOAD DUP2 MSTORE SWAP1 PUSH1 0x1 ADD SWAP1 PUSH1 0x20 ADD DUP1 DUP4 GT PUSH2 0xC9D JUMPI DUP3 SWAP1 SUB PUSH1 0x1F AND DUP3 ADD SWAP2 JUMPDEST POP POP POP POP POP SWAP1 DUP1 PUSH1 0x6 ADD DUP1 SLOAD PUSH2 0xCCF SWAP1 PUSH2 0x267C JUMP JUMPDEST DUP1 PUSH1 0x1F ADD PUSH1 0x20 DUP1 SWAP2 DIV MUL PUSH1 0x20 ADD PUSH1 0x40 MLOAD SWAP1 DUP2 ADD PUSH1 0x40 MSTORE DUP1 SWAP3 SWAP2 SWAP1 DUP2 DUP2 MSTORE PUSH1 0x20 ADD DUP3 DUP1 SLOAD PUSH2 0xCFB SWAP1 PUSH2 0x267C JUMP JUMPDEST DUP1 ISZERO PUSH2 0xD48 JUMPI DUP1 PUSH1 0x1F LT PUSH2 0xD1D JUMPI PUSH2 0x100 DUP1 DUP4 SLOAD DIV MUL DUP4 MSTORE SWAP2 PUSH1 0x20 ADD SWAP2 PUSH2 0xD48 JUMP JUMPDEST DUP3 ADD SWAP2 SWAP1 PUSH1 0x0 MSTORE PUSH1 0x20 PUSH1 0x0 KECCAK256 SWAP1 JUMPDEST DUP2 SLOAD DUP2 MSTORE SWAP1 PUSH1 0x1 ADD SWAP1 PUSH1 0x20 ADD DUP1 DUP4 GT PUSH2 0xD2B JUMPI DUP3 SWAP1 SUB PUSH1 0x1F AND DUP3 ADD SWAP2 JUMPDEST POP POP POP POP POP SWAP1 POP DUP9 JUMP JUMPDEST PUSH2 0xD84 PUSH1 0x40 DUP1 MLOAD PUSH1 0xA0 DUP2 ADD SWAP1 SWAP2 MSTORE PUSH1 0x0 DUP1 DUP3 MSTORE PUSH1 0x20 DUP3 ADD SWAP1 DUP2 MSTORE PUSH1 0x60 PUSH1 0x20 DUP3 ADD DUP2 SWAP1 MSTORE PUSH1 0x40 DUP3 ADD DUP2 SWAP1 MSTORE PUSH1 0x0 SWAP2 ADD MSTORE SWAP1 JUMP JUMPDEST PUSH1 0x1 PUSH1 0x1 PUSH1 0xA0 SHL SUB DUP3 DUP2 AND PUSH1 0x0 SWAP1 DUP2 MSTORE PUSH1 0x2 PUSH1 0x20 SWAP1 DUP2 MSTORE PUSH1 0x40 SWAP2 DUP3 SWAP1 KECCAK256 DUP3 MLOAD PUSH1 0xA0 DUP2 ADD SWAP1 SWAP4 MSTORE DUP1 SLOAD SWAP4 DUP5 AND DUP4 MSTORE SWAP2 SWAP3 SWAP1 DUP4 ADD SWAP1 PUSH1 0x1 PUSH1 0xA0 SHL SWAP1 DIV PUSH1 0xFF AND PUSH1 0x3 DUP2 GT ISZERO PUSH2 0xDD2 JUMPI PUSH2 0xDD2 PUSH2 0x2087 JUMP JUMPDEST PUSH1 0x3 DUP2 GT ISZERO PUSH2 0xDE3 JUMPI PUSH2 0xDE3 PUSH2 0x2087 JUMP JUMPDEST DUP2 MSTORE PUSH1 0x20 ADD PUSH1 0x1 DUP3 ADD DUP1 SLOAD PUSH2 0xDF7 SWAP1 PUSH2 0x267C JUMP JUMPDEST DUP1 PUSH1 0x1F ADD PUSH1 0x20 DUP1 SWAP2 DIV MUL PUSH1 0x20 ADD PUSH1 0x40 MLOAD SWAP1 DUP2 ADD PUSH1 0x40 MSTORE DUP1 SWAP3 SWAP2 SWAP1 DUP2 DUP2 MSTORE PUSH1 0x20 ADD DUP3 DUP1 SLOAD PUSH2 0xE23 SWAP1 PUSH2 0x267C JUMP JUMPDEST DUP1 ISZERO PUSH2 0xE70 JUMPI DUP1 PUSH1 0x1F LT PUSH2 0xE45 JUMPI PUSH2 0x100 DUP1 DUP4 SLOAD DIV MUL DUP4 MSTORE SWAP2 PUSH1 0x20 ADD SWAP2 PUSH2 0xE70 JUMP JUMPDEST DUP3 ADD SWAP2 SWAP1 PUSH1 0x0 MSTORE PUSH1 0x20 PUSH1 0x0 KECCAK256 SWAP1 JUMPDEST DUP2 SLOAD DUP2 MSTORE SWAP1 PUSH1 0x1 ADD SWAP1 PUSH1 0x20 ADD DUP1 DUP4 GT PUSH2 0xE53 JUMPI DUP3 SWAP1 SUB PUSH1 0x1F AND DUP3 ADD SWAP2 JUMPDEST POP POP POP POP POP DUP2 MSTORE PUSH1 0x20 ADD PUSH1 0x2 DUP3 ADD DUP1 SLOAD PUSH2 0xE89 SWAP1 PUSH2 0x267C JUMP JUMPDEST DUP1 PUSH1 0x1F ADD PUSH1 0x20 DUP1 SWAP2 DIV MUL PUSH1 0x20 ADD PUSH1 0x40 MLOAD SWAP1 DUP2 ADD PUSH1 0x40 MSTORE DUP1 SWAP3 SWAP2 SWAP1 DUP2 DUP2 MSTORE PUSH1 0x20 ADD DUP3 DUP1 SLOAD PUSH2 0xEB5 SWAP1 PUSH2 0x267C JUMP JUMPDEST DUP1 ISZERO PUSH2 0xF02 JUMPI DUP1 PUSH1 0x1F LT PUSH2 0xED7 JUMPI PUSH2 0x100 DUP1 DUP4 SLOAD DIV MUL DUP4 MSTORE SWAP2 PUSH1 0x20 ADD SWAP2 PUSH2 0xF02 JUMP JUMPDEST DUP3 ADD SWAP2 SWAP1 PUSH1 0x0 MSTORE PUSH1 0x20 PUSH1 0x0 KECCAK256 SWAP1 JUMPDEST DUP2 SLOAD DUP2 MSTORE SWAP1 PUSH1 0x1 ADD SWAP1 PUSH1 0x20 ADD DUP1 DUP4 GT PUSH2 0xEE5 JUMPI DUP3 SWAP1 SUB PUSH1 0x1F AND DUP3 ADD SWAP2 JUMPDEST POP POP POP SWAP2 DUP4 MSTORE POP POP PUSH1 0x3 SWAP2 SWAP1 SWAP2 ADD SLOAD PUSH1 0xFF AND ISZERO ISZERO PUSH1 0x20 SWAP1 SWAP2 ADD MSTORE SWAP3 SWAP2 POP POP JUMP JUMPDEST PUSH1 0x0 PUSH1 0x20 DUP2 SWAP1 MSTORE SWAP1 DUP2 MSTORE PUSH1 0x40 SWAP1 KECCAK256 DUP1 SLOAD PUSH1 0x1 DUP3 ADD DUP1 SLOAD SWAP2 SWAP3 SWAP2 PUSH2 0xF44 SWAP1 PUSH2 0x267C JUMP JUMPDEST DUP1 PUSH1 0x1F ADD PUSH1 0x20 DUP1 SWAP2 DIV MUL PUSH1 0x20 ADD PUSH1 0x40 MLOAD SWAP1 DUP2 ADD PUSH1 0x40 MSTORE DUP1 SWAP3 SWAP2 SWAP1 DUP2 DUP2 MSTORE PUSH1 0x20 ADD DUP3 DUP1 SLOAD PUSH2 0xF70 SWAP1 PUSH2 0x267C JUMP JUMPDEST DUP1 ISZERO PUSH2 0xFBD JUMPI DUP1 PUSH1 0x1F LT PUSH2 0xF92 JUMPI PUSH2 0x100 DUP1 DUP4 SLOAD DIV MUL DUP4 MSTORE SWAP2 PUSH1 0x20 ADD SWAP2 PUSH2 0xFBD JUMP JUMPDEST DUP3 ADD SWAP2 SWAP1 PUSH1 0x0 MSTORE PUSH1 0x20 PUSH1 0x0 KECCAK256 SWAP1 JUMPDEST DUP2 SLOAD DUP2 MSTORE SWAP1 PUSH1 0x1 ADD SWAP1 PUSH1 0x20 ADD DUP1 DUP4 GT PUSH2 0xFA0 JUMPI DUP3 SWAP1 SUB PUSH1 0x1F AND DUP3 ADD SWAP2 JUMPDEST POP POP POP POP POP SWAP1 DUP1 PUSH1 0x2 ADD DUP1 SLOAD PUSH2 0xFD2 SWAP1 PUSH2 0x267C JUMP JUMPDEST DUP1 PUSH1 0x1F ADD PUSH1 0x20 DUP1 SWAP2 DIV MUL PUSH1 0x20 ADD PUSH1 0x40 MLOAD SWAP1 DUP2 ADD PUSH1 0x40 MSTORE DUP1 SWAP3 SWAP2 SWAP1 DUP2 DUP2 MSTORE PUSH1 0x20 ADD DUP3 DUP1 SLOAD PUSH2 0xFFE SWAP1 PUSH2 0x267C JUMP JUMPDEST DUP1 ISZERO PUSH2 0x104B JUMPI DUP1 PUSH1 0x1F LT PUSH2 0x1020 JUMPI PUSH2 0x100 DUP1 DUP4 SLOAD DIV MUL DUP4 MSTORE SWAP2 PUSH1 0x20 ADD SWAP2 PUSH2 0x104B JUMP JUMPDEST DUP3 ADD SWAP2 SWAP1 PUSH1 0x0 MSTORE PUSH1 0x20 PUSH1 0x0 KECCAK256 SWAP1 JUMPDEST DUP2 SLOAD DUP2 MSTORE SWAP1 PUSH1 0x1 ADD SWAP1 PUSH1 0x20 ADD DUP1 DUP4 GT PUSH2 0x102E JUMPI DUP3 SWAP1 SUB PUSH1 0x1F AND DUP3 ADD SWAP2 JUMPDEST POP POP POP POP POP SWAP1 DUP1 PUSH1 0x3 ADD SLOAD SWAP1 DUP1 PUSH1 0x4 ADD DUP1 SLOAD PUSH2 0x1066 SWAP1 PUSH2 0x267C JUMP JUMPDEST DUP1 PUSH1 0x1F ADD PUSH1 0x20 DUP1 SWAP2 DIV MUL PUSH1 0x20 ADD PUSH1 0x40 MLOAD SWAP1 DUP2 ADD PUSH1 0x40 MSTORE DUP1 SWAP3 SWAP2 SWAP1 DUP2 DUP2 MSTORE PUSH1 0x20 ADD DUP3 DUP1 SLOAD PUSH2 0x1092 SWAP1 PUSH2 0x267C JUMP JUMPDEST DUP1 ISZERO PUSH2 0x10DF JUMPI DUP1 PUSH1 0x1F LT PUSH2 0x10B4 JUMPI PUSH2 0x100 DUP1 DUP4 SLOAD DIV MUL DUP4 MSTORE SWAP2 PUSH1 0x20 ADD SWAP2 PUSH2 0x10DF JUMP JUMPDEST DUP3 ADD SWAP2 SWAP1 PUSH1 0x0 MSTORE PUSH1 0x20 PUSH1 0x0 KECCAK256 SWAP1 JUMPDEST DUP2 SLOAD DUP2 MSTORE SWAP1 PUSH1 0x1 ADD SWAP1 PUSH1 0x20 ADD DUP1 DUP4 GT PUSH2 0x10C2 JUMPI DUP3 SWAP1 SUB PUSH1 0x1F AND DUP3 ADD SWAP2 JUMPDEST POP POP POP POP POP SWAP1 DUP1 PUSH1 0x5 ADD SLOAD SWAP1 DUP1 PUSH1 0x6 ADD DUP1 SLOAD PUSH2 0x10FA SWAP1 PUSH2 0x267C JUMP JUMPDEST DUP1 PUSH1 0x1F ADD PUSH1 0x20 DUP1 SWAP2 DIV MUL PUSH1 0x20 ADD PUSH1 0x40 MLOAD SWAP1 DUP2 ADD PUSH1 0x40 MSTORE DUP1 SWAP3 SWAP2 SWAP1 DUP2 DUP2 MSTORE PUSH1 0x20 ADD DUP3 DUP1 SLOAD PUSH2 0x1126 SWAP1 PUSH2 0x267C JUMP JUMPDEST DUP1 ISZERO PUSH2 0x1173 JUMPI DUP1 PUSH1 0x1F LT PUSH2 0x1148 JUMPI PUSH2 0x100 DUP1 DUP4 SLOAD DIV MUL DUP4 MSTORE SWAP2 PUSH1 0x20 ADD SWAP2 PUSH2 0x1173 JUMP JUMPDEST DUP3 ADD SWAP2 SWAP1 PUSH1 0x0 MSTORE PUSH1 0x20 PUSH1 0x0 KECCAK256 SWAP1 JUMPDEST DUP2 SLOAD DUP2 MSTORE SWAP1 PUSH1 0x1 ADD SWAP1 PUSH1 0x20 ADD DUP1 DUP4 GT PUSH2 0x1156 JUMPI DUP3 SWAP1 SUB PUSH1 0x1F AND DUP3 ADD SWAP2 JUMPDEST POP POP POP POP PUSH1 0x7 DUP4 ADD SLOAD PUSH1 0x8 DUP5 ADD DUP1 SLOAD SWAP4 SWAP5 PUSH1 0xFF DUP4 AND SWAP5 PUSH2 0x100 SWAP1 SWAP4 DIV PUSH1 0x1 PUSH1 0x1 PUSH1 0xA0 SHL SUB AND SWAP4 POP SWAP2 PUSH2 0x11A4 SWAP1 PUSH2 0x267C JUMP JUMPDEST DUP1 PUSH1 0x1F ADD PUSH1 0x20 DUP1 SWAP2 DIV MUL PUSH1 0x20 ADD PUSH1 0x40 MLOAD SWAP1 DUP2 ADD PUSH1 0x40 MSTORE DUP1 SWAP3 SWAP2 SWAP1 DUP2 DUP2 MSTORE PUSH1 0x20 ADD DUP3 DUP1 SLOAD PUSH2 0x11D0 SWAP1 PUSH2 0x267C JUMP JUMPDEST DUP1 ISZERO PUSH2 0x121D JUMPI DUP1 PUSH1 0x1F LT PUSH2 0x11F2 JUMPI PUSH2 0x100 DUP1 DUP4 SLOAD DIV MUL DUP4 MSTORE SWAP2 PUSH1 0x20 ADD SWAP2 PUSH2 0x121D JUMP JUMPDEST DUP3 ADD SWAP2 SWAP1 PUSH1 0x0 MSTORE PUSH1 0x20 PUSH1 0x0 KECCAK256 SWAP1 JUMPDEST DUP2 SLOAD DUP2 MSTORE SWAP1 PUSH1 0x1 ADD SWAP1 PUSH1 0x20 ADD DUP1 DUP4 GT PUSH2 0x1200 JUMPI DUP3 SWAP1 SUB PUSH1 0x1F AND DUP3 ADD SWAP2 JUMPDEST POP POP POP PUSH1 0x9 SWAP1 SWAP4 ADD SLOAD SWAP2 SWAP3 POP POP PUSH1 0xFF AND DUP12 JUMP JUMPDEST PUSH1 0x0 DUP2 DUP2 MSTORE PUSH1 0x20 DUP2 SWAP1 MSTORE PUSH1 0x40 SWAP1 KECCAK256 PUSH1 0x9 ADD SLOAD PUSH1 0x60 SWAP1 DUP3 SWAP1 PUSH1 0xFF AND PUSH2 0x1266 JUMPI PUSH1 0x40 MLOAD PUSH3 0x461BCD PUSH1 0xE5 SHL DUP2 MSTORE PUSH1 0x4 ADD PUSH2 0x286 SWAP1 PUSH2 0x264C JUMP JUMPDEST PUSH1 0x0 DUP4 DUP2 MSTORE PUSH1 0x1 PUSH1 0x20 SWAP1 DUP2 MSTORE PUSH1 0x40 DUP1 DUP4 KECCAK256 DUP1 SLOAD DUP3 MLOAD DUP2 DUP6 MUL DUP2 ADD DUP6 ADD SWAP1 SWAP4 MSTORE DUP1 DUP4 MSTORE SWAP2 SWAP4 SWAP1 SWAP3 DUP5 ADD JUMPDEST DUP3 DUP3 LT ISZERO PUSH2 0x14E4 JUMPI PUSH1 0x0 DUP5 DUP2 MSTORE PUSH1 0x20 SWAP1 DUP2 SWAP1 KECCAK256 PUSH1 0x40 DUP1 MLOAD PUSH2 0x100 DUP2 ADD DUP3 MSTORE PUSH1 0x7 DUP7 MUL SWAP1 SWAP3 ADD DUP1 SLOAD DUP4 MSTORE PUSH1 0x1 DUP2 ADD SLOAD PUSH1 0x1 PUSH1 0x1 PUSH1 0xA0 SHL SUB SWAP1 DUP2 AND SWAP5 DUP5 ADD SWAP5 SWAP1 SWAP5 MSTORE PUSH1 0x2 DUP2 ADD SLOAD SWAP4 DUP5 AND SWAP2 DUP4 ADD SWAP2 SWAP1 SWAP2 MSTORE SWAP1 SWAP2 PUSH1 0x60 DUP4 ADD SWAP1 PUSH1 0x1 PUSH1 0xA0 SHL SWAP1 DIV PUSH1 0xFF AND PUSH1 0x3 DUP2 GT ISZERO PUSH2 0x1300 JUMPI PUSH2 0x1300 PUSH2 0x2087 JUMP JUMPDEST PUSH1 0x3 DUP2 GT ISZERO PUSH2 0x1311 JUMPI PUSH2 0x1311 PUSH2 0x2087 JUMP JUMPDEST DUP2 MSTORE PUSH1 0x20 ADD PUSH1 0x3 DUP3 ADD DUP1 SLOAD PUSH2 0x1325 SWAP1 PUSH2 0x267C JUMP JUMPDEST DUP1 PUSH1 0x1F ADD PUSH1 0x20 DUP1 SWAP2 DIV MUL PUSH1 0x20 ADD PUSH1 0x40 MLOAD SWAP1 DUP2 ADD PUSH1 0x40 MSTORE DUP1 SWAP3 SWAP2 SWAP1 DUP2 DUP2 MSTORE PUSH1 0x20 ADD DUP3 DUP1 SLOAD PUSH2 0x1351 SWAP1 PUSH2 0x267C JUMP JUMPDEST DUP1 ISZERO PUSH2 0x139E JUMPI DUP1 PUSH1 0x1F LT PUSH2 0x1373 JUMPI PUSH2 0x100 DUP1 DUP4 SLOAD DIV MUL DUP4 MSTORE SWAP2 PUSH1 0x20 ADD SWAP2 PUSH2 0x139E JUMP JUMPDEST DUP3 ADD SWAP2 SWAP1 PUSH1 0x0 MSTORE PUSH1 0x20 PUSH1 0x0 KECCAK256 SWAP1 JUMPDEST DUP2 SLOAD DUP2 MSTORE SWAP1 PUSH1 0x1 ADD SWAP1 PUSH1 0x20 ADD DUP1 DUP4 GT PUSH2 0x1381 JUMPI DUP3 SWAP1 SUB PUSH1 0x1F AND DUP3 ADD SWAP2 JUMPDEST POP POP POP POP POP DUP2 MSTORE PUSH1 0x20 ADD PUSH1 0x4 DUP3 ADD SLOAD DUP2 MSTORE PUSH1 0x20 ADD PUSH1 0x5 DUP3 ADD DUP1 SLOAD PUSH2 0x13C1 SWAP1 PUSH2 0x267C JUMP JUMPDEST DUP1 PUSH1 0x1F ADD PUSH1 0x20 DUP1 SWAP2 DIV MUL PUSH1 0x20 ADD PUSH1 0x40 MLOAD SWAP1 DUP2 ADD PUSH1 0x40 MSTORE DUP1 SWAP3 SWAP2 SWAP1 DUP2 DUP2 MSTORE PUSH1 0x20 ADD DUP3 DUP1 SLOAD PUSH2 0x13ED SWAP1 PUSH2 0x267C JUMP JUMPDEST DUP1 ISZERO PUSH2 0x143A JUMPI DUP1 PUSH1 0x1F LT PUSH2 0x140F JUMPI PUSH2 0x100 DUP1 DUP4 SLOAD DIV MUL DUP4 MSTORE SWAP2 PUSH1 0x20 ADD SWAP2 PUSH2 0x143A JUMP JUMPDEST DUP3 ADD SWAP2 SWAP1 PUSH1 0x0 MSTORE PUSH1 0x20 PUSH1 0x0 KECCAK256 SWAP1 JUMPDEST DUP2 SLOAD DUP2 MSTORE SWAP1 PUSH1 0x1 ADD SWAP1 PUSH1 0x20 ADD DUP1 DUP4 GT PUSH2 0x141D JUMPI DUP3 SWAP1 SUB PUSH1 0x1F AND DUP3 ADD SWAP2 JUMPDEST POP POP POP POP POP DUP2 MSTORE PUSH1 0x20 ADD PUSH1 0x6 DUP3 ADD DUP1 SLOAD PUSH2 0x1453 SWAP1 PUSH2 0x267C JUMP JUMPDEST DUP1 PUSH1 0x1F ADD PUSH1 0x20 DUP1 SWAP2 DIV MUL PUSH1 0x20 ADD PUSH1 0x40 MLOAD SWAP1 DUP2 ADD PUSH1 0x40 MSTORE DUP1 SWAP3 SWAP2 SWAP1 DUP2 DUP2 MSTORE PUSH1 0x20 ADD DUP3 DUP1 SLOAD PUSH2 0x147F SWAP1 PUSH2 0x267C JUMP JUMPDEST DUP1 ISZERO PUSH2 0x14CC JUMPI DUP1 PUSH1 0x1F LT PUSH2 0x14A1 JUMPI PUSH2 0x100 DUP1 DUP4 SLOAD DIV MUL DUP4 MSTORE SWAP2 PUSH1 0x20 ADD SWAP2 PUSH2 0x14CC JUMP JUMPDEST DUP3 ADD SWAP2 SWAP1 PUSH1 0x0 MSTORE PUSH1 0x20 PUSH1 0x0 KECCAK256 SWAP1 JUMPDEST DUP2 SLOAD DUP2 MSTORE SWAP1 PUSH1 0x1 ADD SWAP1 PUSH1 0x20 ADD DUP1 DUP4 GT PUSH2 0x14AF JUMPI DUP3 SWAP1 SUB PUSH1 0x1F AND DUP3 ADD SWAP2 JUMPDEST POP POP POP POP POP DUP2 MSTORE POP POP DUP2 MSTORE PUSH1 0x20 ADD SWAP1 PUSH1 0x1 ADD SWAP1 PUSH2 0x128F JUMP JUMPDEST POP POP POP POP SWAP2 POP JUMPDEST POP SWAP2 SWAP1 POP JUMP JUMPDEST PUSH2 0x14F9 PUSH2 0x1D92 JUMP JUMPDEST PUSH1 0x0 DUP3 DUP2 MSTORE PUSH1 0x20 DUP2 SWAP1 MSTORE PUSH1 0x40 SWAP1 KECCAK256 PUSH1 0x9 ADD SLOAD DUP3 SWAP1 PUSH1 0xFF AND PUSH2 0x152C JUMPI PUSH1 0x40 MLOAD PUSH3 0x461BCD PUSH1 0xE5 SHL DUP2 MSTORE PUSH1 0x4 ADD PUSH2 0x286 SWAP1 PUSH2 0x264C JUMP JUMPDEST PUSH1 0x0 DUP4 DUP2 MSTORE PUSH1 0x20 DUP2 DUP2 MSTORE PUSH1 0x40 SWAP2 DUP3 SWAP1 KECCAK256 DUP3 MLOAD PUSH2 0x160 DUP2 ADD SWAP1 SWAP4 MSTORE DUP1 SLOAD DUP4 MSTORE PUSH1 0x1 DUP2 ADD DUP1 SLOAD SWAP2 SWAP3 DUP5 ADD SWAP2 PUSH2 0x155E SWAP1 PUSH2 0x267C JUMP JUMPDEST DUP1 PUSH1 0x1F ADD PUSH1 0x20 DUP1 SWAP2 DIV MUL PUSH1 0x20 ADD PUSH1 0x40 MLOAD SWAP1 DUP2 ADD PUSH1 0x40 MSTORE DUP1 SWAP3 SWAP2 SWAP1 DUP2 DUP2 MSTORE PUSH1 0x20 ADD DUP3 DUP1 SLOAD PUSH2 0x158A SWAP1 PUSH2 0x267C JUMP JUMPDEST DUP1 ISZERO PUSH2 0x15D7 JUMPI DUP1 PUSH1 0x1F LT PUSH2 0x15AC JUMPI PUSH2 0x100 DUP1 DUP4 SLOAD DIV MUL DUP4 MSTORE SWAP2 PUSH1 0x20 ADD SWAP2 PUSH2 0x15D7 JUMP JUMPDEST DUP3 ADD SWAP2 SWAP1 PUSH1 0x0 MSTORE PUSH1 0x20 PUSH1 0x0 KECCAK256 SWAP1 JUMPDEST DUP2 SLOAD DUP2 MSTORE SWAP1 PUSH1 0x1 ADD SWAP1 PUSH1 0x20 ADD DUP1 DUP4 GT PUSH2 0x15BA JUMPI DUP3 SWAP1 SUB PUSH1 0x1F AND DUP3 ADD SWAP2 JUMPDEST POP POP POP POP POP DUP2 MSTORE PUSH1 0x20 ADD PUSH1 0x2 DUP3 ADD DUP1 SLOAD PUSH2 0x15F0 SWAP1 PUSH2 0x267C JUMP JUMPDEST DUP1 PUSH1 0x1F ADD PUSH1 0x20 DUP1 SWAP2 DIV MUL PUSH1 0x20 ADD PUSH1 0x40 MLOAD SWAP1 DUP2 ADD PUSH1 0x40 MSTORE DUP1 SWAP3 SWAP2 SWAP1 DUP2 DUP2 MSTORE PUSH1 0x20 ADD DUP3 DUP1 SLOAD PUSH2 0x161C SWAP1 PUSH2 0x267C JUMP JUMPDEST DUP1 ISZERO PUSH2 0x1669 JUMPI DUP1 PUSH1 0x1F LT PUSH2 0x163E JUMPI PUSH2 0x100 DUP1 DUP4 SLOAD DIV MUL DUP4 MSTORE SWAP2 PUSH1 0x20 ADD SWAP2 PUSH2 0x1669 JUMP JUMPDEST DUP3 ADD SWAP2 SWAP1 PUSH1 0x0 MSTORE PUSH1 0x20 PUSH1 0x0 KECCAK256 SWAP1 JUMPDEST DUP2 SLOAD DUP2 MSTORE SWAP1 PUSH1 0x1 ADD SWAP1 PUSH1 0x20 ADD DUP1 DUP4 GT PUSH2 0x164C JUMPI DUP3 SWAP1 SUB PUSH1 0x1F AND DUP3 ADD SWAP2 JUMPDEST POP POP POP POP POP DUP2 MSTORE PUSH1 0x20 ADD PUSH1 0x3 DUP3 ADD SLOAD DUP2 MSTORE PUSH1 0x20 ADD PUSH1 0x4 DUP3 ADD DUP1 SLOAD PUSH2 0x168C SWAP1 PUSH2 0x267C JUMP JUMPDEST DUP1 PUSH1 0x1F ADD PUSH1 0x20 DUP1 SWAP2 DIV MUL PUSH1 0x20 ADD PUSH1 0x40 MLOAD SWAP1 DUP2 ADD PUSH1 0x40 MSTORE DUP1 SWAP3 SWAP2 SWAP1 DUP2 DUP2 MSTORE PUSH1 0x20 ADD DUP3 DUP1 SLOAD PUSH2 0x16B8 SWAP1 PUSH2 0x267C JUMP JUMPDEST DUP1 ISZERO PUSH2 0x1705 JUMPI DUP1 PUSH1 0x1F LT PUSH2 0x16DA JUMPI PUSH2 0x100 DUP1 DUP4 SLOAD DIV MUL DUP4 MSTORE SWAP2 PUSH1 0x20 ADD SWAP2 PUSH2 0x1705 JUMP JUMPDEST DUP3 ADD SWAP2 SWAP1 PUSH1 0x0 MSTORE PUSH1 0x20 PUSH1 0x0 KECCAK256 SWAP1 JUMPDEST DUP2 SLOAD DUP2 MSTORE SWAP1 PUSH1 0x1 ADD SWAP1 PUSH1 0x20 ADD DUP1 DUP4 GT PUSH2 0x16E8 JUMPI DUP3 SWAP1 SUB PUSH1 0x1F AND DUP3 ADD SWAP2 JUMPDEST POP POP POP POP POP DUP2 MSTORE PUSH1 0x20 ADD PUSH1 0x5 DUP3 ADD SLOAD DUP2 MSTORE PUSH1 0x20 ADD PUSH1 0x6 DUP3 ADD DUP1 SLOAD PUSH2 0x1728 SWAP1 PUSH2 0x267C JUMP JUMPDEST DUP1 PUSH1 0x1F ADD PUSH1 0x20 DUP1 SWAP2 DIV MUL PUSH1 0x20 ADD PUSH1 0x40 MLOAD SWAP1 DUP2 ADD PUSH1 0x40 MSTORE DUP1 SWAP3 SWAP2 SWAP1 DUP2 DUP2 MSTORE PUSH1 0x20 ADD DUP3 DUP1 SLOAD PUSH2 0x1754 SWAP1 PUSH2 0x267C JUMP JUMPDEST DUP1 ISZERO PUSH2 0x17A1 JUMPI DUP1 PUSH1 0x1F LT PUSH2 0x1776 JUMPI PUSH2 0x100 DUP1 DUP4 SLOAD DIV MUL DUP4 MSTORE SWAP2 PUSH1 0x20 ADD SWAP2 PUSH2 0x17A1 JUMP JUMPDEST DUP3 ADD SWAP2 SWAP1 PUSH1 0x0 MSTORE PUSH1 0x20 PUSH1 0x0 KECCAK256 SWAP1 JUMPDEST DUP2 SLOAD DUP2 MSTORE SWAP1 PUSH1 0x1 ADD SWAP1 PUSH1 0x20 ADD DUP1 DUP4 GT PUSH2 0x1784 JUMPI DUP3 SWAP1 SUB PUSH1 0x1F AND DUP3 ADD SWAP2 JUMPDEST POP POP POP SWAP2 DUP4 MSTORE POP POP PUSH1 0x7 DUP3 ADD SLOAD PUSH1 0x20 SWAP1 SWAP2 ADD SWAP1 PUSH1 0xFF AND PUSH1 0x3 DUP2 GT ISZERO PUSH2 0x17C8 JUMPI PUSH2 0x17C8 PUSH2 0x2087 JUMP JUMPDEST PUSH1 0x3 DUP2 GT ISZERO PUSH2 0x17D9 JUMPI PUSH2 0x17D9 PUSH2 0x2087 JUMP JUMPDEST DUP2 MSTORE PUSH1 0x7 DUP3 ADD SLOAD PUSH2 0x100 SWAP1 DIV PUSH1 0x1 PUSH1 0x1 PUSH1 0xA0 SHL SUB AND PUSH1 0x20 DUP3 ADD MSTORE PUSH1 0x8 DUP3 ADD DUP1 SLOAD PUSH1 0x40 SWAP1 SWAP3 ADD SWAP2 PUSH2 0x1808 SWAP1 PUSH2 0x267C JUMP JUMPDEST DUP1 PUSH1 0x1F ADD PUSH1 0x20 DUP1 SWAP2 DIV MUL PUSH1 0x20 ADD PUSH1 0x40 MLOAD SWAP1 DUP2 ADD PUSH1 0x40 MSTORE DUP1 SWAP3 SWAP2 SWAP1 DUP2 DUP2 MSTORE PUSH1 0x20 ADD DUP3 DUP1 SLOAD PUSH2 0x1834 SWAP1 PUSH2 0x267C JUMP JUMPDEST DUP1 ISZERO PUSH2 0x1881 JUMPI DUP1 PUSH1 0x1F LT PUSH2 0x1856 JUMPI PUSH2 0x100 DUP1 DUP4 SLOAD DIV MUL DUP4 MSTORE SWAP2 PUSH1 0x20 ADD SWAP2 PUSH2 0x1881 JUMP JUMPDEST DUP3 ADD SWAP2 SWAP1 PUSH1 0x0 MSTORE PUSH1 0x20 PUSH1 0x0 KECCAK256 SWAP1 JUMPDEST DUP2 SLOAD DUP2 MSTORE SWAP1 PUSH1 0x1 ADD SWAP1 PUSH1 0x20 ADD DUP1 DUP4 GT PUSH2 0x1864 JUMPI DUP3 SWAP1 SUB PUSH1 0x1F AND DUP3 ADD SWAP2 JUMPDEST POP POP POP SWAP2 DUP4 MSTORE POP POP PUSH1 0x9 SWAP2 SWAP1 SWAP2 ADD SLOAD PUSH1 0xFF AND ISZERO ISZERO PUSH1 0x20 SWAP1 SWAP2 ADD MSTORE SWAP4 SWAP3 POP POP POP JUMP JUMPDEST PUSH1 0x2 PUSH1 0x20 MSTORE PUSH1 0x0 SWAP1 DUP2 MSTORE PUSH1 0x40 SWAP1 KECCAK256 DUP1 SLOAD PUSH1 0x1 DUP3 ADD DUP1 SLOAD PUSH1 0x1 PUSH1 0x1 PUSH1 0xA0 SHL SUB DUP4 AND SWAP4 PUSH1 0x1 PUSH1 0xA0 SHL SWAP1 SWAP4 DIV PUSH1 0xFF AND SWAP3 SWAP2 SWAP1 PUSH2 0x18DA SWAP1 PUSH2 0x267C JUMP JUMPDEST DUP1 PUSH1 0x1F ADD PUSH1 0x20 DUP1 SWAP2 DIV MUL PUSH1 0x20 ADD PUSH1 0x40 MLOAD SWAP1 DUP2 ADD PUSH1 0x40 MSTORE DUP1 SWAP3 SWAP2 SWAP1 DUP2 DUP2 MSTORE PUSH1 0x20 ADD DUP3 DUP1 SLOAD PUSH2 0x1906 SWAP1 PUSH2 0x267C JUMP JUMPDEST DUP1 ISZERO PUSH2 0x1953 JUMPI DUP1 PUSH1 0x1F LT PUSH2 0x1928 JUMPI PUSH2 0x100 DUP1 DUP4 SLOAD DIV MUL DUP4 MSTORE SWAP2 PUSH1 0x20 ADD SWAP2 PUSH2 0x1953 JUMP JUMPDEST DUP3 ADD SWAP2 SWAP1 PUSH1 0x0 MSTORE PUSH1 0x20 PUSH1 0x0 KECCAK256 SWAP1 JUMPDEST DUP2 SLOAD DUP2 MSTORE SWAP1 PUSH1 0x1 ADD SWAP1 PUSH1 0x20 ADD DUP1 DUP4 GT PUSH2 0x1936 JUMPI DUP3 SWAP1 SUB PUSH1 0x1F AND DUP3 ADD SWAP2 JUMPDEST POP POP POP POP POP SWAP1 DUP1 PUSH1 0x2 ADD DUP1 SLOAD PUSH2 0x1968 SWAP1 PUSH2 0x267C JUMP JUMPDEST DUP1 PUSH1 0x1F ADD PUSH1 0x20 DUP1 SWAP2 DIV MUL PUSH1 0x20 ADD PUSH1 0x40 MLOAD SWAP1 DUP2 ADD PUSH1 0x40 MSTORE DUP1 SWAP3 SWAP2 SWAP1 DUP2 DUP2 MSTORE PUSH1 0x20 ADD DUP3 DUP1 SLOAD PUSH2 0x1994 SWAP1 PUSH2 0x267C JUMP JUMPDEST DUP1 ISZERO PUSH2 0x19E1 JUMPI DUP1 PUSH1 0x1F LT PUSH2 0x19B6 JUMPI PUSH2 0x100 DUP1 DUP4 SLOAD DIV MUL DUP4 MSTORE SWAP2 PUSH1 0x20 ADD SWAP2 PUSH2 0x19E1 JUMP JUMPDEST DUP3 ADD SWAP2 SWAP1 PUSH1 0x0 MSTORE PUSH1 0x20 PUSH1 0x0 KECCAK256 SWAP1 JUMPDEST DUP2 SLOAD DUP2 MSTORE SWAP1 PUSH1 0x1 ADD SWAP1 PUSH1 0x20 ADD DUP1 DUP4 GT PUSH2 0x19C4 JUMPI DUP3 SWAP1 SUB PUSH1 0x1F AND DUP3 ADD SWAP2 JUMPDEST POP POP POP PUSH1 0x3 SWAP1 SWAP4 ADD SLOAD SWAP2 SWAP3 POP POP PUSH1 0xFF AND DUP6 JUMP JUMPDEST PUSH1 0x0 DUP3 DUP2 MSTORE PUSH1 0x20 DUP2 SWAP1 MSTORE PUSH1 0x40 DUP2 KECCAK256 PUSH1 0x9 ADD SLOAD DUP4 SWAP1 PUSH1 0xFF AND PUSH2 0x1A27 JUMPI PUSH1 0x40 MLOAD PUSH3 0x461BCD PUSH1 0xE5 SHL DUP2 MSTORE PUSH1 0x4 ADD PUSH2 0x286 SWAP1 PUSH2 0x264C JUMP JUMPDEST DUP3 PUSH1 0x40 MLOAD PUSH1 0x20 ADD PUSH2 0x1A38 SWAP2 SWAP1 PUSH2 0x281F JUMP JUMPDEST PUSH1 0x40 DUP1 MLOAD PUSH1 0x1F NOT DUP2 DUP5 SUB ADD DUP2 MSTORE DUP3 DUP3 MSTORE DUP1 MLOAD PUSH1 0x20 SWAP2 DUP3 ADD KECCAK256 PUSH1 0x0 DUP9 DUP2 MSTORE DUP1 DUP4 MSTORE SWAP3 SWAP1 SWAP3 KECCAK256 SWAP2 SWAP3 PUSH2 0x1A6C SWAP3 PUSH1 0x8 ADD SWAP2 ADD PUSH2 0x283B JUMP JUMPDEST PUSH1 0x40 MLOAD PUSH1 0x20 DUP2 DUP4 SUB SUB DUP2 MSTORE SWAP1 PUSH1 0x40 MSTORE DUP1 MLOAD SWAP1 PUSH1 0x20 ADD KECCAK256 EQ SWAP2 POP POP SWAP3 SWAP2 POP POP JUMP JUMPDEST CALLER PUSH1 0x0 SWAP1 DUP2 MSTORE PUSH1 0x2 PUSH1 0x20 MSTORE PUSH1 0x40 SWAP1 KECCAK256 PUSH1 0x3 ADD SLOAD PUSH1 0xFF AND ISZERO PUSH2 0x1AE4 JUMPI PUSH1 0x40 MLOAD PUSH3 0x461BCD PUSH1 0xE5 SHL DUP2 MSTORE PUSH1 0x20 PUSH1 0x4 DUP3 ADD MSTORE PUSH1 0x12 PUSH1 0x24 DUP3 ADD MSTORE PUSH18 0x105B1C9958591E481C9959DA5CDD195C9959 PUSH1 0x72 SHL PUSH1 0x44 DUP3 ADD MSTORE PUSH1 0x64 ADD PUSH2 0x286 JUMP JUMPDEST PUSH1 0x40 MLOAD DUP1 PUSH1 0xA0 ADD PUSH1 0x40 MSTORE DUP1 CALLER PUSH1 0x1 PUSH1 0x1 PUSH1 0xA0 SHL SUB AND DUP2 MSTORE PUSH1 0x20 ADD DUP5 PUSH1 0x3 DUP2 GT ISZERO PUSH2 0x1B10 JUMPI PUSH2 0x1B10 PUSH2 0x2087 JUMP JUMPDEST DUP2 MSTORE PUSH1 0x20 DUP1 DUP3 ADD DUP6 SWAP1 MSTORE PUSH1 0x40 DUP1 DUP4 ADD DUP6 SWAP1 MSTORE PUSH1 0x1 PUSH1 0x60 SWAP1 SWAP4 ADD SWAP3 SWAP1 SWAP3 MSTORE CALLER PUSH1 0x0 SWAP1 DUP2 MSTORE PUSH1 0x2 DUP3 MSTORE SWAP2 SWAP1 SWAP2 KECCAK256 DUP3 MLOAD DUP2 SLOAD PUSH1 0x1 PUSH1 0x1 PUSH1 0xA0 SHL SUB SWAP2 SWAP1 SWAP2 AND PUSH1 0x1 PUSH1 0x1 PUSH1 0xA0 SHL SUB NOT DUP3 AND DUP2 OR DUP4 SSTORE SWAP3 DUP5 ADD MLOAD SWAP2 SWAP3 DUP4 SWAP2 PUSH1 0x1 PUSH1 0x1 PUSH1 0xA8 SHL SUB NOT AND OR PUSH1 0x1 PUSH1 0xA0 SHL DUP4 PUSH1 0x3 DUP2 GT ISZERO PUSH2 0x1B84 JUMPI PUSH2 0x1B84 PUSH2 0x2087 JUMP JUMPDEST MUL OR SWAP1 SSTORE POP PUSH1 0x40 DUP3 ADD MLOAD PUSH1 0x1 DUP3 ADD SWAP1 PUSH2 0x1B9D SWAP1 DUP3 PUSH2 0x26FF JUMP JUMPDEST POP PUSH1 0x60 DUP3 ADD MLOAD PUSH1 0x2 DUP3 ADD SWAP1 PUSH2 0x1BB2 SWAP1 DUP3 PUSH2 0x26FF JUMP JUMPDEST POP PUSH1 0x80 SWAP2 SWAP1 SWAP2 ADD MLOAD PUSH1 0x3 SWAP1 SWAP2 ADD DUP1 SLOAD PUSH1 0xFF NOT AND SWAP2 ISZERO ISZERO SWAP2 SWAP1 SWAP2 OR SWAP1 SSTORE PUSH1 0x40 MLOAD CALLER SWAP1 PUSH32 0x110B738EBB1BE6A0003A04BC69DEA2D42DCE2FF6424F866E30A39749B1C24598 SWAP1 PUSH2 0x1C02 SWAP1 DUP7 SWAP1 DUP7 SWAP1 PUSH2 0x28B1 JUMP JUMPDEST PUSH1 0x40 MLOAD DUP1 SWAP2 SUB SWAP1 LOG2 POP POP POP JUMP JUMPDEST PUSH1 0x60 PUSH1 0x0 PUSH1 0x3 SLOAD PUSH8 0xFFFFFFFFFFFFFFFF DUP2 GT ISZERO PUSH2 0x1C2E JUMPI PUSH2 0x1C2E PUSH2 0x1E29 JUMP JUMPDEST PUSH1 0x40 MLOAD SWAP1 DUP1 DUP3 MSTORE DUP1 PUSH1 0x20 MUL PUSH1 0x20 ADD DUP3 ADD PUSH1 0x40 MSTORE DUP1 ISZERO PUSH2 0x1C57 JUMPI DUP2 PUSH1 0x20 ADD PUSH1 0x20 DUP3 MUL DUP1 CALLDATASIZE DUP4 CALLDATACOPY ADD SWAP1 POP JUMPDEST POP SWAP1 POP PUSH1 0x0 PUSH1 0x1 JUMPDEST PUSH1 0x3 SLOAD DUP2 GT PUSH2 0x1CED JUMPI PUSH1 0x0 DUP2 DUP2 MSTORE PUSH1 0x20 DUP2 SWAP1 MSTORE PUSH1 0x40 SWAP1 KECCAK256 PUSH1 0x7 ADD SLOAD PUSH1 0x1 PUSH1 0x1 PUSH1 0xA0 SHL SUB DUP7 DUP2 AND PUSH2 0x100 SWAP1 SWAP3 DIV AND EQ DUP1 ISZERO PUSH2 0x1CAA JUMPI POP PUSH1 0x0 DUP2 DUP2 MSTORE PUSH1 0x20 DUP2 SWAP1 MSTORE PUSH1 0x40 SWAP1 KECCAK256 PUSH1 0x9 ADD SLOAD PUSH1 0xFF AND JUMPDEST ISZERO PUSH2 0x1CDB JUMPI DUP1 DUP4 DUP4 DUP2 MLOAD DUP2 LT PUSH2 0x1CC2 JUMPI PUSH2 0x1CC2 PUSH2 0x28DB JUMP JUMPDEST PUSH1 0x20 SWAP1 DUP2 MUL SWAP2 SWAP1 SWAP2 ADD ADD MSTORE DUP2 PUSH2 0x1CD7 DUP2 PUSH2 0x27D6 JUMP JUMPDEST SWAP3 POP POP JUMPDEST DUP1 PUSH2 0x1CE5 DUP2 PUSH2 0x27D6 JUMP JUMPDEST SWAP2 POP POP PUSH2 0x1C5F JUMP JUMPDEST POP PUSH1 0x0 DUP2 PUSH8 0xFFFFFFFFFFFFFFFF DUP2 GT ISZERO PUSH2 0x1D09 JUMPI PUSH2 0x1D09 PUSH2 0x1E29 JUMP JUMPDEST PUSH1 0x40 MLOAD SWAP1 DUP1 DUP3 MSTORE DUP1 PUSH1 0x20 MUL PUSH1 0x20 ADD DUP3 ADD PUSH1 0x40 MSTORE DUP1 ISZERO PUSH2 0x1D32 JUMPI DUP2 PUSH1 0x20 ADD PUSH1 0x20 DUP3 MUL DUP1 CALLDATASIZE DUP4 CALLDATACOPY ADD SWAP1 POP JUMPDEST POP SWAP1 POP PUSH1 0x0 JUMPDEST DUP3 DUP2 LT ISZERO PUSH2 0x1D89 JUMPI DUP4 DUP2 DUP2 MLOAD DUP2 LT PUSH2 0x1D52 JUMPI PUSH2 0x1D52 PUSH2 0x28DB JUMP JUMPDEST PUSH1 0x20 MUL PUSH1 0x20 ADD ADD MLOAD DUP3 DUP3 DUP2 MLOAD DUP2 LT PUSH2 0x1D6C JUMPI PUSH2 0x1D6C PUSH2 0x28DB JUMP JUMPDEST PUSH1 0x20 SWAP1 DUP2 MUL SWAP2 SWAP1 SWAP2 ADD ADD MSTORE DUP1 PUSH2 0x1D81 DUP2 PUSH2 0x27D6 JUMP JUMPDEST SWAP2 POP POP PUSH2 0x1D38 JUMP JUMPDEST POP SWAP5 SWAP4 POP POP POP POP JUMP JUMPDEST PUSH1 0x40 MLOAD DUP1 PUSH2 0x160 ADD PUSH1 0x40 MSTORE DUP1 PUSH1 0x0 DUP2 MSTORE PUSH1 0x20 ADD PUSH1 0x60 DUP2 MSTORE PUSH1 0x20 ADD PUSH1 0x60 DUP2 MSTORE PUSH1 0x20 ADD PUSH1 0x0 DUP2 MSTORE PUSH1 0x20 ADD PUSH1 0x60 DUP2 MSTORE PUSH1 0x20 ADD PUSH1 0x0 DUP2 MSTORE PUSH1 0x20 ADD PUSH1 0x60 DUP2 MSTORE PUSH1 0x20 ADD PUSH1 0x0 PUSH1 0x3 DUP2 GT ISZERO PUSH2 0x1DE2 JUMPI PUSH2 0x1DE2 PUSH2 0x2087 JUMP JUMPDEST DUP2 MSTORE PUSH1 0x0 PUSH1 0x20 DUP3 ADD DUP2 SWAP1 MSTORE PUSH1 0x60 PUSH1 0x40 DUP4 ADD DUP2 SWAP1 MSTORE SWAP1 SWAP2 ADD MSTORE SWAP1 JUMP JUMPDEST DUP1 CALLDATALOAD PUSH1 0x1 PUSH1 0x1 PUSH1 0xA0 SHL SUB DUP2 AND DUP2 EQ PUSH2 0x1E14 JUMPI PUSH1 0x0 DUP1 REVERT JUMPDEST SWAP2 SWAP1 POP JUMP JUMPDEST PUSH1 0x4 DUP2 LT PUSH2 0x1E26 JUMPI PUSH1 0x0 DUP1 REVERT JUMPDEST POP JUMP JUMPDEST PUSH4 0x4E487B71 PUSH1 0xE0 SHL PUSH1 0x0 MSTORE PUSH1 0x41 PUSH1 0x4 MSTORE PUSH1 0x24 PUSH1 0x0 REVERT JUMPDEST PUSH1 0x0 DUP3 PUSH1 0x1F DUP4 ADD SLT PUSH2 0x1E50 JUMPI PUSH1 0x0 DUP1 REVERT JUMPDEST DUP2 CALLDATALOAD PUSH8 0xFFFFFFFFFFFFFFFF DUP1 DUP3 GT ISZERO PUSH2 0x1E6B JUMPI PUSH2 0x1E6B PUSH2 0x1E29 JUMP JUMPDEST PUSH1 0x40 MLOAD PUSH1 0x1F DUP4 ADD PUSH1 0x1F NOT SWAP1 DUP2 AND PUSH1 0x3F ADD AND DUP2 ADD SWAP1 DUP3 DUP3 GT DUP2 DUP4 LT OR ISZERO PUSH2 0x1E93 JUMPI PUSH2 0x1E93 PUSH2 0x1E29 JUMP JUMPDEST DUP2 PUSH1 0x40 MSTORE DUP4 DUP2 MSTORE DUP7 PUSH1 0x20 DUP6 DUP9 ADD ADD GT ISZERO PUSH2 0x1EAC JUMPI PUSH1 0x0 DUP1 REVERT JUMPDEST DUP4 PUSH1 0x20 DUP8 ADD PUSH1 0x20 DUP4 ADD CALLDATACOPY PUSH1 0x0 PUSH1 0x20 DUP6 DUP4 ADD ADD MSTORE DUP1 SWAP5 POP POP POP POP POP SWAP3 SWAP2 POP POP JUMP JUMPDEST PUSH1 0x0 DUP1 PUSH1 0x0 DUP1 PUSH1 0x0 DUP1 PUSH1 0xC0 DUP8 DUP10 SUB SLT ISZERO PUSH2 0x1EE5 JUMPI PUSH1 0x0 DUP1 REVERT JUMPDEST DUP7 CALLDATALOAD SWAP6 POP PUSH2 0x1EF5 PUSH1 0x20 DUP9 ADD PUSH2 0x1DFD JUMP JUMPDEST SWAP5 POP PUSH1 0x40 DUP8 ADD CALLDATALOAD PUSH2 0x1F05 DUP2 PUSH2 0x1E19 JUMP JUMPDEST SWAP4 POP PUSH1 0x60 DUP8 ADD CALLDATALOAD PUSH8 0xFFFFFFFFFFFFFFFF DUP1 DUP3 GT ISZERO PUSH2 0x1F22 JUMPI PUSH1 0x0 DUP1 REVERT JUMPDEST PUSH2 0x1F2E DUP11 DUP4 DUP12 ADD PUSH2 0x1E3F JUMP JUMPDEST SWAP5 POP PUSH1 0x80 DUP10 ADD CALLDATALOAD SWAP2 POP DUP1 DUP3 GT ISZERO PUSH2 0x1F44 JUMPI PUSH1 0x0 DUP1 REVERT JUMPDEST PUSH2 0x1F50 DUP11 DUP4 DUP12 ADD PUSH2 0x1E3F JUMP JUMPDEST SWAP4 POP PUSH1 0xA0 DUP10 ADD CALLDATALOAD SWAP2 POP DUP1 DUP3 GT ISZERO PUSH2 0x1F66 JUMPI PUSH1 0x0 DUP1 REVERT JUMPDEST POP PUSH2 0x1F73 DUP10 DUP3 DUP11 ADD PUSH2 0x1E3F JUMP JUMPDEST SWAP2 POP POP SWAP3 SWAP6 POP SWAP3 SWAP6 POP SWAP3 SWAP6 JUMP JUMPDEST PUSH1 0x0 DUP1 PUSH1 0x0 DUP1 PUSH1 0x0 DUP1 PUSH1 0x0 PUSH1 0xE0 DUP9 DUP11 SUB SLT ISZERO PUSH2 0x1F9B JUMPI PUSH1 0x0 DUP1 REVERT JUMPDEST DUP8 CALLDATALOAD PUSH8 0xFFFFFFFFFFFFFFFF DUP1 DUP3 GT ISZERO PUSH2 0x1FB3 JUMPI PUSH1 0x0 DUP1 REVERT JUMPDEST PUSH2 0x1FBF DUP12 DUP4 DUP13 ADD PUSH2 0x1E3F JUMP JUMPDEST SWAP9 POP PUSH1 0x20 DUP11 ADD CALLDATALOAD SWAP2 POP DUP1 DUP3 GT ISZERO PUSH2 0x1FD5 JUMPI PUSH1 0x0 DUP1 REVERT JUMPDEST PUSH2 0x1FE1 DUP12 DUP4 DUP13 ADD PUSH2 0x1E3F JUMP JUMPDEST SWAP8 POP PUSH1 0x40 DUP11 ADD CALLDATALOAD SWAP7 POP PUSH1 0x60 DUP11 ADD CALLDATALOAD SWAP2 POP DUP1 DUP3 GT ISZERO PUSH2 0x1FFE JUMPI PUSH1 0x0 DUP1 REVERT JUMPDEST PUSH2 0x200A DUP12 DUP4 DUP13 ADD PUSH2 0x1E3F JUMP JUMPDEST SWAP6 POP PUSH1 0x80 DUP11 ADD CALLDATALOAD SWAP5 POP PUSH1 0xA0 DUP11 ADD CALLDATALOAD SWAP2 POP DUP1 DUP3 GT ISZERO PUSH2 0x2027 JUMPI PUSH1 0x0 DUP1 REVERT JUMPDEST PUSH2 0x2033 DUP12 DUP4 DUP13 ADD PUSH2 0x1E3F JUMP JUMPDEST SWAP4 POP PUSH1 0xC0 DUP11 ADD CALLDATALOAD SWAP2 POP DUP1 DUP3 GT ISZERO PUSH2 0x2049 JUMPI PUSH1 0x0 DUP1 REVERT JUMPDEST POP PUSH2 0x2056 DUP11 DUP3 DUP12 ADD PUSH2 0x1E3F JUMP JUMPDEST SWAP2 POP POP SWAP3 SWAP6 SWAP9 SWAP2 SWAP5 SWAP8 POP SWAP3 SWAP6 POP JUMP JUMPDEST PUSH1 0x0 DUP1 PUSH1 0x40 DUP4 DUP6 SUB SLT ISZERO PUSH2 0x2078 JUMPI PUSH1 0x0 DUP1 REVERT JUMPDEST POP POP DUP1 CALLDATALOAD SWAP3 PUSH1 0x20 SWAP1 SWAP2 ADD CALLDATALOAD SWAP2 POP JUMP JUMPDEST PUSH4 0x4E487B71 PUSH1 0xE0 SHL PUSH1 0x0 MSTORE PUSH1 0x21 PUSH1 0x4 MSTORE PUSH1 0x24 PUSH1 0x0 REVERT JUMPDEST PUSH1 0x4 DUP2 LT PUSH2 0x1E26 JUMPI PUSH4 0x4E487B71 PUSH1 0xE0 SHL PUSH1 0x0 MSTORE PUSH1 0x21 PUSH1 0x4 MSTORE PUSH1 0x24 PUSH1 0x0 REVERT JUMPDEST PUSH2 0x20C4 DUP2 PUSH2 0x209D JUMP JUMPDEST SWAP1 MSTORE JUMP JUMPDEST PUSH1 0x0 JUMPDEST DUP4 DUP2 LT ISZERO PUSH2 0x20E3 JUMPI DUP2 DUP2 ADD MLOAD DUP4 DUP3 ADD MSTORE PUSH1 0x20 ADD PUSH2 0x20CB JUMP JUMPDEST POP POP PUSH1 0x0 SWAP2 ADD MSTORE JUMP JUMPDEST PUSH1 0x0 DUP2 MLOAD DUP1 DUP5 MSTORE PUSH2 0x2104 DUP2 PUSH1 0x20 DUP7 ADD PUSH1 0x20 DUP7 ADD PUSH2 0x20C8 JUMP JUMPDEST PUSH1 0x1F ADD PUSH1 0x1F NOT AND SWAP3 SWAP1 SWAP3 ADD PUSH1 0x20 ADD SWAP3 SWAP2 POP POP JUMP JUMPDEST DUP9 DUP2 MSTORE PUSH1 0x1 PUSH1 0x1 PUSH1 0xA0 SHL SUB DUP9 DUP2 AND PUSH1 0x20 DUP4 ADD MSTORE DUP8 AND PUSH1 0x40 DUP3 ADD MSTORE PUSH1 0x0 PUSH2 0x100 PUSH2 0x2140 DUP9 PUSH2 0x209D JUMP JUMPDEST DUP8 PUSH1 0x60 DUP5 ADD MSTORE DUP1 PUSH1 0x80 DUP5 ADD MSTORE PUSH2 0x2158 DUP2 DUP5 ADD DUP9 PUSH2 0x20EC JUMP JUMPDEST SWAP1 POP DUP6 PUSH1 0xA0 DUP5 ADD MSTORE DUP3 DUP2 SUB PUSH1 0xC0 DUP5 ADD MSTORE PUSH2 0x2172 DUP2 DUP7 PUSH2 0x20EC JUMP JUMPDEST SWAP1 POP DUP3 DUP2 SUB PUSH1 0xE0 DUP5 ADD MSTORE PUSH2 0x2186 DUP2 DUP6 PUSH2 0x20EC JUMP JUMPDEST SWAP12 SWAP11 POP POP POP POP POP POP POP POP POP POP POP JUMP JUMPDEST PUSH1 0x0 PUSH1 0x20 DUP3 DUP5 SUB SLT ISZERO PUSH2 0x21A7 JUMPI PUSH1 0x0 DUP1 REVERT JUMPDEST PUSH2 0x21B0 DUP3 PUSH2 0x1DFD JUMP JUMPDEST SWAP4 SWAP3 POP POP POP JUMP JUMPDEST PUSH1 0x20 DUP1 DUP3 MSTORE DUP3 MLOAD PUSH1 0x1 PUSH1 0x1 PUSH1 0xA0 SHL SUB AND DUP3 DUP3 ADD MSTORE DUP3 ADD MLOAD PUSH1 0x0 SWAP1 PUSH2 0x21DA DUP2 PUSH2 0x209D JUMP JUMPDEST DUP1 PUSH1 0x40 DUP5 ADD MSTORE POP PUSH1 0x40 DUP4 ADD MLOAD PUSH1 0xA0 PUSH1 0x60 DUP5 ADD MSTORE PUSH2 0x21FA PUSH1 0xC0 DUP5 ADD DUP3 PUSH2 0x20EC JUMP JUMPDEST SWAP1 POP PUSH1 0x60 DUP5 ADD MLOAD PUSH1 0x1F NOT DUP5 DUP4 SUB ADD PUSH1 0x80 DUP6 ADD MSTORE PUSH2 0x2217 DUP3 DUP3 PUSH2 0x20EC JUMP JUMPDEST SWAP2 POP POP PUSH1 0x80 DUP5 ADD MLOAD ISZERO ISZERO PUSH1 0xA0 DUP5 ADD MSTORE DUP1 SWAP2 POP POP SWAP3 SWAP2 POP POP JUMP JUMPDEST PUSH1 0x0 PUSH1 0x20 DUP3 DUP5 SUB SLT ISZERO PUSH2 0x2242 JUMPI PUSH1 0x0 DUP1 REVERT JUMPDEST POP CALLDATALOAD SWAP2 SWAP1 POP JUMP JUMPDEST PUSH1 0x0 PUSH2 0x160 DUP14 DUP4 MSTORE DUP1 PUSH1 0x20 DUP5 ADD MSTORE PUSH2 0x2263 DUP2 DUP5 ADD DUP15 PUSH2 0x20EC JUMP JUMPDEST SWAP1 POP DUP3 DUP2 SUB PUSH1 0x40 DUP5 ADD MSTORE PUSH2 0x2277 DUP2 DUP14 PUSH2 0x20EC JUMP JUMPDEST SWAP1 POP DUP11 PUSH1 0x60 DUP5 ADD MSTORE DUP3 DUP2 SUB PUSH1 0x80 DUP5 ADD MSTORE PUSH2 0x2291 DUP2 DUP12 PUSH2 0x20EC JUMP JUMPDEST SWAP1 POP DUP9 PUSH1 0xA0 DUP5 ADD MSTORE DUP3 DUP2 SUB PUSH1 0xC0 DUP5 ADD MSTORE PUSH2 0x22AB DUP2 DUP10 PUSH2 0x20EC JUMP JUMPDEST SWAP1 POP PUSH2 0x22B6 DUP8 PUSH2 0x209D JUMP JUMPDEST PUSH1 0xE0 DUP4 ADD DUP8 SWAP1 MSTORE PUSH1 0x1 PUSH1 0x1 PUSH1 0xA0 SHL SUB DUP7 AND PUSH2 0x100 DUP5 ADD MSTORE DUP3 DUP2 SUB PUSH2 0x120 DUP5 ADD MSTORE PUSH2 0x22E0 DUP2 DUP7 PUSH2 0x20EC JUMP JUMPDEST SWAP2 POP POP DUP3 ISZERO ISZERO PUSH2 0x140 DUP4 ADD MSTORE SWAP13 SWAP12 POP POP POP POP POP POP POP POP POP POP POP POP JUMP JUMPDEST PUSH1 0x0 PUSH1 0x20 DUP1 DUP4 ADD DUP2 DUP5 MSTORE DUP1 DUP6 MLOAD DUP1 DUP4 MSTORE PUSH1 0x40 SWAP3 POP DUP3 DUP7 ADD SWAP2 POP DUP3 DUP2 PUSH1 0x5 SHL DUP8 ADD ADD DUP5 DUP9 ADD PUSH1 0x0 JUMPDEST DUP4 DUP2 LT ISZERO PUSH2 0x23DE JUMPI PUSH1 0x3F NOT DUP10 DUP5 SUB ADD DUP6 MSTORE DUP2 MLOAD DUP1 MLOAD DUP5 MSTORE DUP8 DUP2 ADD MLOAD PUSH1 0x1 PUSH1 0x1 PUSH1 0xA0 SHL SUB SWAP1 DUP2 AND DUP10 DUP7 ADD MSTORE DUP8 DUP3 ADD MLOAD AND DUP8 DUP6 ADD MSTORE PUSH1 0x60 DUP1 DUP3 ADD MLOAD PUSH2 0x100 SWAP2 SWAP1 PUSH2 0x236D DUP3 DUP9 ADD DUP3 PUSH2 0x20BB JUMP JUMPDEST POP POP PUSH1 0x80 DUP1 DUP4 ADD MLOAD DUP3 DUP3 DUP9 ADD MSTORE PUSH2 0x2386 DUP4 DUP9 ADD DUP3 PUSH2 0x20EC JUMP JUMPDEST SWAP3 POP POP POP PUSH1 0xA0 DUP1 DUP4 ADD MLOAD DUP2 DUP8 ADD MSTORE POP PUSH1 0xC0 DUP1 DUP4 ADD MLOAD DUP7 DUP4 SUB DUP3 DUP9 ADD MSTORE PUSH2 0x23AC DUP4 DUP3 PUSH2 0x20EC JUMP JUMPDEST SWAP3 POP POP POP PUSH1 0xE0 DUP1 DUP4 ADD MLOAD SWAP3 POP DUP6 DUP3 SUB DUP2 DUP8 ADD MSTORE POP PUSH2 0x23CA DUP2 DUP4 PUSH2 0x20EC JUMP JUMPDEST SWAP7 DUP10 ADD SWAP7 SWAP5 POP POP POP SWAP1 DUP7 ADD SWAP1 PUSH1 0x1 ADD PUSH2 0x2323 JUMP JUMPDEST POP SWAP1 SWAP9 SWAP8 POP POP POP POP POP POP POP POP JUMP JUMPDEST PUSH1 0x20 DUP2 MSTORE DUP2 MLOAD PUSH1 0x20 DUP3 ADD MSTORE PUSH1 0x0 PUSH1 0x20 DUP4 ADD MLOAD PUSH2 0x160 DUP1 PUSH1 0x40 DUP6 ADD MSTORE PUSH2 0x2415 PUSH2 0x180 DUP6 ADD DUP4 PUSH2 0x20EC JUMP JUMPDEST SWAP2 POP PUSH1 0x40 DUP6 ADD MLOAD PUSH1 0x1F NOT DUP1 DUP7 DUP6 SUB ADD PUSH1 0x60 DUP8 ADD MSTORE PUSH2 0x2433 DUP5 DUP4 PUSH2 0x20EC JUMP JUMPDEST SWAP4 POP PUSH1 0x60 DUP8 ADD MLOAD PUSH1 0x80 DUP8 ADD MSTORE PUSH1 0x80 DUP8 ADD MLOAD SWAP2 POP DUP1 DUP7 DUP6 SUB ADD PUSH1 0xA0 DUP8 ADD MSTORE PUSH2 0x245A DUP5 DUP4 PUSH2 0x20EC JUMP JUMPDEST SWAP4 POP PUSH1 0xA0 DUP8 ADD MLOAD PUSH1 0xC0 DUP8 ADD MSTORE PUSH1 0xC0 DUP8 ADD MLOAD SWAP2 POP DUP1 DUP7 DUP6 SUB ADD PUSH1 0xE0 DUP8 ADD MSTORE PUSH2 0x2481 DUP5 DUP4 PUSH2 0x20EC JUMP JUMPDEST SWAP4 POP PUSH1 0xE0 DUP8 ADD MLOAD SWAP2 POP PUSH2 0x100 PUSH2 0x2499 DUP2 DUP9 ADD DUP5 PUSH2 0x20BB JUMP JUMPDEST DUP8 ADD MLOAD SWAP2 POP PUSH2 0x120 PUSH2 0x24B5 DUP8 DUP3 ADD DUP5 PUSH1 0x1 PUSH1 0x1 PUSH1 0xA0 SHL SUB AND SWAP1 MSTORE JUMP JUMPDEST DUP1 DUP9 ADD MLOAD SWAP3 POP POP PUSH2 0x140 DUP2 DUP8 DUP7 SUB ADD DUP2 DUP9 ADD MSTORE PUSH2 0x24D2 DUP6 DUP5 PUSH2 0x20EC JUMP JUMPDEST SWAP5 POP DUP1 DUP9 ADD MLOAD SWAP3 POP POP POP PUSH2 0x24E9 DUP3 DUP7 ADD DUP3 ISZERO ISZERO SWAP1 MSTORE JUMP JUMPDEST POP SWAP1 SWAP5 SWAP4 POP POP POP POP JUMP JUMPDEST PUSH1 0x1 PUSH1 0x1 PUSH1 0xA0 SHL SUB DUP7 AND DUP2 MSTORE PUSH2 0x2508 DUP6 PUSH2 0x209D JUMP JUMPDEST DUP5 PUSH1 0x20 DUP3 ADD MSTORE PUSH1 0xA0 PUSH1 0x40 DUP3 ADD MSTORE PUSH1 0x0 PUSH2 0x2524 PUSH1 0xA0 DUP4 ADD DUP7 PUSH2 0x20EC JUMP JUMPDEST DUP3 DUP2 SUB PUSH1 0x60 DUP5 ADD MSTORE PUSH2 0x2536 DUP2 DUP7 PUSH2 0x20EC JUMP JUMPDEST SWAP2 POP POP DUP3 ISZERO ISZERO PUSH1 0x80 DUP4 ADD MSTORE SWAP7 SWAP6 POP POP POP POP POP POP JUMP JUMPDEST PUSH1 0x0 DUP1 PUSH1 0x40 DUP4 DUP6 SUB SLT ISZERO PUSH2 0x255E JUMPI PUSH1 0x0 DUP1 REVERT JUMPDEST DUP3 CALLDATALOAD SWAP2 POP PUSH1 0x20 DUP4 ADD CALLDATALOAD PUSH8 0xFFFFFFFFFFFFFFFF DUP2 GT ISZERO PUSH2 0x257C JUMPI PUSH1 0x0 DUP1 REVERT JUMPDEST PUSH2 0x2588 DUP6 DUP3 DUP7 ADD PUSH2 0x1E3F JUMP JUMPDEST SWAP2 POP POP SWAP3 POP SWAP3 SWAP1 POP JUMP JUMPDEST PUSH1 0x0 DUP1 PUSH1 0x0 PUSH1 0x60 DUP5 DUP7 SUB SLT ISZERO PUSH2 0x25A7 JUMPI PUSH1 0x0 DUP1 REVERT JUMPDEST DUP4 CALLDATALOAD PUSH2 0x25B2 DUP2 PUSH2 0x1E19 JUMP JUMPDEST SWAP3 POP PUSH1 0x20 DUP5 ADD CALLDATALOAD PUSH8 0xFFFFFFFFFFFFFFFF DUP1 DUP3 GT ISZERO PUSH2 0x25CF JUMPI PUSH1 0x0 DUP1 REVERT JUMPDEST PUSH2 0x25DB DUP8 DUP4 DUP9 ADD PUSH2 0x1E3F JUMP JUMPDEST SWAP4 POP PUSH1 0x40 DUP7 ADD CALLDATALOAD SWAP2 POP DUP1 DUP3 GT ISZERO PUSH2 0x25F1 JUMPI PUSH1 0x0 DUP1 REVERT JUMPDEST POP PUSH2 0x25FE DUP7 DUP3 DUP8 ADD PUSH2 0x1E3F JUMP JUMPDEST SWAP2 POP POP SWAP3 POP SWAP3 POP SWAP3 JUMP JUMPDEST PUSH1 0x20 DUP1 DUP3 MSTORE DUP3 MLOAD DUP3 DUP3 ADD DUP2 SWAP1 MSTORE PUSH1 0x0 SWAP2 SWAP1 DUP5 DUP3 ADD SWAP1 PUSH1 0x40 DUP6 ADD SWAP1 DUP5 JUMPDEST DUP2 DUP2 LT ISZERO PUSH2 0x2640 JUMPI DUP4 MLOAD DUP4 MSTORE SWAP3 DUP5 ADD SWAP3 SWAP2 DUP5 ADD SWAP2 PUSH1 0x1 ADD PUSH2 0x2624 JUMP JUMPDEST POP SWAP1 SWAP7 SWAP6 POP POP POP POP POP POP JUMP JUMPDEST PUSH1 0x20 DUP1 DUP3 MSTORE PUSH1 0x16 SWAP1 DUP3 ADD MSTORE PUSH22 0x141C9BD91D58DD08191BD95CC81B9BDD08195E1A5CDD PUSH1 0x52 SHL PUSH1 0x40 DUP3 ADD MSTORE PUSH1 0x60 ADD SWAP1 JUMP JUMPDEST PUSH1 0x1 DUP2 DUP2 SHR SWAP1 DUP3 AND DUP1 PUSH2 0x2690 JUMPI PUSH1 0x7F DUP3 AND SWAP2 POP JUMPDEST PUSH1 0x20 DUP3 LT DUP2 SUB PUSH2 0x14EB JUMPI PUSH4 0x4E487B71 PUSH1 0xE0 SHL PUSH1 0x0 MSTORE PUSH1 0x22 PUSH1 0x4 MSTORE PUSH1 0x24 PUSH1 0x0 REVERT JUMPDEST PUSH1 0x1F DUP3 GT ISZERO PUSH2 0x26FA JUMPI PUSH1 0x0 DUP2 DUP2 MSTORE PUSH1 0x20 DUP2 KECCAK256 PUSH1 0x1F DUP6 ADD PUSH1 0x5 SHR DUP2 ADD PUSH1 0x20 DUP7 LT ISZERO PUSH2 0x26D7 JUMPI POP DUP1 JUMPDEST PUSH1 0x1F DUP6 ADD PUSH1 0x5 SHR DUP3 ADD SWAP2 POP JUMPDEST DUP2 DUP2 LT ISZERO PUSH2 0x26F6 JUMPI DUP3 DUP2 SSTORE PUSH1 0x1 ADD PUSH2 0x26E3 JUMP JUMPDEST POP POP POP JUMPDEST POP POP POP JUMP JUMPDEST DUP2 MLOAD PUSH8 0xFFFFFFFFFFFFFFFF DUP2 GT ISZERO PUSH2 0x2719 JUMPI PUSH2 0x2719 PUSH2 0x1E29 JUMP JUMPDEST PUSH2 0x272D DUP2 PUSH2 0x2727 DUP5 SLOAD PUSH2 0x267C JUMP JUMPDEST DUP5 PUSH2 0x26B0 JUMP JUMPDEST PUSH1 0x20 DUP1 PUSH1 0x1F DUP4 GT PUSH1 0x1 DUP2 EQ PUSH2 0x2762 JUMPI PUSH1 0x0 DUP5 ISZERO PUSH2 0x274A JUMPI POP DUP6 DUP4 ADD MLOAD JUMPDEST PUSH1 0x0 NOT PUSH1 0x3 DUP7 SWAP1 SHL SHR NOT AND PUSH1 0x1 DUP6 SWAP1 SHL OR DUP6 SSTORE PUSH2 0x26F6 JUMP JUMPDEST PUSH1 0x0 DUP6 DUP2 MSTORE PUSH1 0x20 DUP2 KECCAK256 PUSH1 0x1F NOT DUP7 AND SWAP2 JUMPDEST DUP3 DUP2 LT ISZERO PUSH2 0x2791 JUMPI DUP9 DUP7 ADD MLOAD DUP3 SSTORE SWAP5 DUP5 ADD SWAP5 PUSH1 0x1 SWAP1 SWAP2 ADD SWAP1 DUP5 ADD PUSH2 0x2772 JUMP JUMPDEST POP DUP6 DUP3 LT ISZERO PUSH2 0x27AF JUMPI DUP8 DUP6 ADD MLOAD PUSH1 0x0 NOT PUSH1 0x3 DUP9 SWAP1 SHL PUSH1 0xF8 AND SHR NOT AND DUP2 SSTORE JUMPDEST POP POP POP POP POP PUSH1 0x1 SWAP1 DUP2 SHL ADD SWAP1 SSTORE POP JUMP JUMPDEST PUSH1 0x40 DUP2 ADD PUSH2 0x27CC DUP5 PUSH2 0x209D JUMP JUMPDEST SWAP3 DUP2 MSTORE PUSH1 0x20 ADD MSTORE SWAP1 JUMP JUMPDEST PUSH1 0x0 PUSH1 0x1 DUP3 ADD PUSH2 0x27F6 JUMPI PUSH4 0x4E487B71 PUSH1 0xE0 SHL PUSH1 0x0 MSTORE PUSH1 0x11 PUSH1 0x4 MSTORE PUSH1 0x24 PUSH1 0x0 REVERT JUMPDEST POP PUSH1 0x1 ADD SWAP1 JUMP JUMPDEST PUSH1 0x40 DUP2 MSTORE PUSH1 0x0 PUSH2 0x2810 PUSH1 0x40 DUP4 ADD DUP6 PUSH2 0x20EC JUMP JUMPDEST SWAP1 POP DUP3 PUSH1 0x20 DUP4 ADD MSTORE SWAP4 SWAP3 POP POP POP JUMP JUMPDEST PUSH1 0x0 DUP3 MLOAD PUSH2 0x2831 DUP2 DUP5 PUSH1 0x20 DUP8 ADD PUSH2 0x20C8 JUMP JUMPDEST SWAP2 SWAP1 SWAP2 ADD SWAP3 SWAP2 POP POP JUMP JUMPDEST PUSH1 0x0 DUP1 DUP4 SLOAD PUSH2 0x2849 DUP2 PUSH2 0x267C JUMP JUMPDEST PUSH1 0x1 DUP3 DUP2 AND DUP1 ISZERO PUSH2 0x2861 JUMPI PUSH1 0x1 DUP2 EQ PUSH2 0x2876 JUMPI PUSH2 0x28A5 JUMP JUMPDEST PUSH1 0xFF NOT DUP5 AND DUP8 MSTORE DUP3 ISZERO ISZERO DUP4 MUL DUP8 ADD SWAP5 POP PUSH2 0x28A5 JUMP JUMPDEST DUP8 PUSH1 0x0 MSTORE PUSH1 0x20 DUP1 PUSH1 0x0 KECCAK256 PUSH1 0x0 JUMPDEST DUP6 DUP2 LT ISZERO PUSH2 0x289C JUMPI DUP2 SLOAD DUP11 DUP3 ADD MSTORE SWAP1 DUP5 ADD SWAP1 DUP3 ADD PUSH2 0x2883 JUMP JUMPDEST POP POP POP DUP3 DUP8 ADD SWAP5 POP JUMPDEST POP SWAP3 SWAP7 SWAP6 POP POP POP POP POP POP JUMP JUMPDEST PUSH2 0x28BA DUP4 PUSH2 0x209D JUMP JUMPDEST DUP3 DUP2 MSTORE PUSH1 0x40 PUSH1 0x20 DUP3 ADD MSTORE PUSH1 0x0 PUSH2 0x28D3 PUSH1 0x40 DUP4 ADD DUP5 PUSH2 0x20EC JUMP JUMPDEST SWAP5 SWAP4 POP POP POP POP JUMP JUMPDEST PUSH4 0x4E487B71 PUSH1 0xE0 SHL PUSH1 0x0 MSTORE PUSH1 0x32 PUSH1 0x4 MSTORE PUSH1 0x24 PUSH1 0x0 REVERT INVALID LOG2 PUSH5 0x6970667358 0x22 SLT KECCAK256 0xDF BALANCE PUSH28 0xCF23C6540A87E3F84EEC0AD7A0B76B10827210CE77D1CB3874D0DF07 SLT PUSH5 0x736F6C6343 STOP ADDMOD SGT STOP CALLER "},"methodIdentifiers":{"getProduct(uint256)":"b9db15b4","getProductTransactions(uint256)":"9ab2dfa3","getProductsByFarmer(address)":"ec90a7b0","getStakeholder(address)":"62afde25","isProductAuthentic(uint256,string)":"c3a4e597","productCounter()":"1f16653b","productTransactions(uint256,uint256)":"259132d4","products(uint256)":"7acc0b20","registerProduct(string,string,uint256,string,uint256,string,string)":"0ffe433d","registerStakeholder(uint8,string,string)":"d10e53d3","stakeholders(address)":"c07cfca9","transferProduct(uint256,address,uint8,string,string,string)":"07dd0a0f"}}}}}