{"contracts/SupplyChain.sol":{"SupplyChain":{"abi":[{"anonymous":false,"inputs":[{"indexed":true,"internalType":"uint256","name":"productId","type":"uint256"},{"indexed":false,"internalType":"string","name":"name","type":"string"},{"indexed":true,"internalType":"address","name":"farmer","type":"address"},{"indexed":false,"internalType":"uint256","name":"harvestDate","type":"uint256"}],"name":"ProductRegistered","type":"event"},{"anonymous":false,"inputs":[{"indexed":true,"internalType":"uint256","name":"productId","type":"uint256"},{"indexed":true,"internalType":"address","name":"from","type":"address"},{"indexed":true,"internalType":"address","name":"to","type":"address"},{"indexed":false,"internalType":"enum SupplyChain.ProductStatus","name":"newStatus","type":"uint8"},{"indexed":false,"internalType":"uint256","name":"timestamp","type":"uint256"}],"name":"ProductTransferred","type":"event"},{"anonymous":false,"inputs":[{"indexed":true,"internalType":"address","name":"stakeholder","type":"address"},{"indexed":false,"internalType":"enum SupplyChain.StakeholderRole","name":"role","type":"uint8"},{"indexed":false,"internalType":"string","name":"name","type":"string"}],"name":"StakeholderRegistered","type":"event"},{"inputs":[{"internalType":"uint256","name":"_productId","type":"uint256"},{"internalType":"string","name":"_name","type":"string"},{"internalType":"string","name":"_org","type":"string"}],"name":"addDistributorDetails","outputs":[],"stateMutability":"nonpayable","type":"function"},{"inputs":[{"internalType":"uint256","name":"_productId","type":"uint256"},{"internalType":"string","name":"_name","type":"string"},{"internalType":"string","name":"_org","type":"string"}],"name":"addRetailerDetails","outputs":[],"stateMutability":"nonpayable","type":"function"},{"inputs":[{"internalType":"uint256","name":"_productId","type":"uint256"}],"name":"getProduct","outputs":[{"components":[{"internalType":"uint256","name":"id","type":"uint256"},{"internalType":"string","name":"name","type":"string"},{"internalType":"string","name":"variety","type":"string"},{"internalType":"uint256","name":"quantity","type":"uint256"},{"internalType":"string","name":"farmLocation","type":"string"},{"internalType":"uint256","name":"harvestDate","type":"uint256"},{"internalType":"string","name":"qualityGrade","type":"string"},{"internalType":"enum SupplyChain.ProductStatus","name":"status","type":"uint8"},{"internalType":"address","name":"farmer","type":"address"},{"internalType":"string","name":"dataHash","type":"string"},{"internalType":"bool","name":"exists","type":"bool"},{"internalType":"string","name":"farmerName","type":"string"},{"internalType":"string","name":"farmerOrganization","type":"string"},{"internalType":"address","name":"distributor","type":"address"},{"internalType":"string","name":"distributorName","type":"string"},{"internalType":"string","name":"distributorOrganization","type":"string"},{"internalType":"address","name":"retailer","type":"address"},{"internalType":"string","name":"retailerName","type":"string"},{"internalType":"string","name":"retailerOrganization","type":"string"},{"internalType":"uint256","name":"farmerRegisteredAt","type":"uint256"},{"internalType":"uint256","name":"distributorAddedAt","type":"uint256"},{"internalType":"uint256","name":"retailerAddedAt","type":"uint256"},{"internalType":"uint256","name":"soldAt","type":"uint256"}],"internalType":"struct SupplyChain.Product","name":"","type":"tuple"}],"stateMutability":"view","type":"function"},{"inputs":[{"internalType":"uint256","name":"_productId","type":"uint256"}],"name":"getProductTransactions","outputs":[{"components":[{"internalType":"uint256","name":"productId","type":"uint256"},{"internalType":"address","name":"from","type":"address"},{"internalType":"address","name":"to","type":"address"},{"internalType":"enum SupplyChain.ProductStatus","name":"newStatus","type":"uint8"},{"internalType":"string","name":"location","type":"string"},{"internalType":"uint256","name":"timestamp","type":"uint256"},{"internalType":"string","name":"transactionType","type":"string"},{"internalType":"string","name":"additionalData","type":"string"}],"internalType":"struct SupplyChain.Transaction[]","name":"","type":"tuple[]"}],"stateMutability":"view","type":"function"},{"inputs":[{"internalType":"address","name":"_farmer","type":"address"}],"name":"getProductsByFarmer","outputs":[{"internalType":"uint256[]","name":"","type":"uint256[]"}],"stateMutability":"view","type":"function"},{"inputs":[{"internalType":"address","name":"_address","type":"address"}],"name":"getStakeholder","outputs":[{"components":[{"internalType":"address","name":"walletAddress","type":"address"},{"internalType":"enum SupplyChain.StakeholderRole","name":"role","type":"uint8"},{"internalType":"string","name":"name","type":"string"},{"internalType":"string","name":"organization","type":"string"},{"internalType":"bool","name":"isRegistered","type":"bool"}],"internalType":"struct SupplyChain.Stakeholder","name":"","type":"tuple"}],"stateMutability":"view","type":"function"},{"inputs":[{"internalType":"uint256","name":"_productId","type":"uint256"},{"internalType":"string","name":"_dataHash","type":"string"}],"name":"isProductAuthentic","outputs":[{"internalType":"bool","name":"","type":"bool"}],"stateMutability":"view","type":"function"},{"inputs":[],"name":"productCounter","outputs":[{"internalType":"uint256","name":"","type":"uint256"}],"stateMutability":"view","type":"function"},{"inputs":[{"internalType":"uint256","name":"","type":"uint256"},{"internalType":"uint256","name":"","type":"uint256"}],"name":"productTransactions","outputs":[{"internalType":"uint256","name":"productId","type":"uint256"},{"internalType":"address","name":"from","type":"address"},{"internalType":"address","name":"to","type":"address"},{"internalType":"enum SupplyChain.ProductStatus","name":"newStatus","type":"uint8"},{"internalType":"string","name":"location","type":"string"},{"internalType":"uint256","name":"timestamp","type":"uint256"},{"internalType":"string","name":"transactionType","type":"string"},{"internalType":"string","name":"additionalData","type":"string"}],"stateMutability":"view","type":"function"},{"inputs":[{"internalType":"uint256","name":"","type":"uint256"}],"name":"products","outputs":[{"internalType":"uint256","name":"id","type":"uint256"},{"internalType":"string","name":"name","type":"string"},{"internalType":"string","name":"variety","type":"string"},{"internalType":"uint256","name":"quantity","type":"uint256"},{"internalType":"string","name":"farmLocation","type":"string"},{"internalType":"uint256","name":"harvestDate","type":"uint256"},{"internalType":"string","name":"qualityGrade","type":"string"},{"internalType":"enum SupplyChain.ProductStatus","name":"status","type":"uint8"},{"internalType":"address","name":"farmer","type":"address"},{"internalType":"string","name":"dataHash","type":"string"},{"internalType":"bool","name":"exists","type":"bool"},{"internalType":"string","name":"farmerName","type":"string"},{"internalType":"string","name":"farmerOrganization","type":"string"},{"internalType":"address","name":"distributor","type":"address"},{"internalType":"string","name":"distributorName","type":"string"},{"internalType":"string","name":"distributorOrganization","type":"string"},{"internalType":"address","name":"retailer","type":"address"},{"internalType":"string","name":"retailerName","type":"string"},{"internalType":"string","name":"retailerOrganization","type":"string"},{"internalType":"uint256","name":"farmerRegisteredAt","type":"uint256"},{"internalType":"uint256","name":"distributorAddedAt","type":"uint256"},{"internalType":"uint256","name":"retailerAddedAt","type":"uint256"},{"internalType":"uint256","name":"soldAt","type":"uint256"}],"stateMutability":"view","type":"function"},{"inputs":[{"internalType":"string","name":"_name","type":"string"},{"internalType":"string","name":"_variety","type":"string"},{"internalType":"uint256","name":"_quantity","type":"uint256"},{"internalType":"string","name":"_farmLocation","type":"string"},{"internalType":"uint256","name":"_harvestDate","type":"uint256"},{"internalType":"string","name":"_qualityGrade","type":"string"},{"internalType":"string","name":"_dataHash","type":"string"}],"name":"registerProduct","outputs":[{"internalType":"uint256","name":"","type":"uint256"}],"stateMutability":"nonpayable","type":"function"},{"inputs":[{"internalType":"enum SupplyChain.StakeholderRole","name":"_role","type":"uint8"},{"internalType":"string","name":"_name","type":"string"},{"internalType":"string","name":"_organization","type":"string"}],"name":"registerStakeholder","outputs":[],"stateMutability":"nonpayable","type":"function"},{"inputs":[{"internalType":"address","name":"","type":"address"}],"name":"stakeholders","outputs":[{"internalType":"address","name":"walletAddress","type":"address"},{"internalType":"enum SupplyChain.StakeholderRole","name":"role","type":"uint8"},{"internalType":"string","name":"name","type":"string"},{"internalType":"string","name":"organization","type":"string"},{"internalType":"bool","name":"isRegistered","type":"bool"}],"stateMutability":"view","type":"function"},{"inputs":[{"internalType":"uint256","name":"_productId","type":"uint256"},{"internalType":"address","name":"_to","type":"address"},{"internalType":"enum SupplyChain.ProductStatus","name":"_newStatus","type":"uint8"},{"internalType":"string","name":"_location","type":"string"},{"internalType":"string","name":"_transactionType","type":"string"},{"internalType":"string","name":"_additionalData","type":"string"}],"name":"transferProduct","outputs":[],"stateMutability":"nonpayable","type":"function"}],"evm":{"bytecode":{"linkReferences":{},"object":"60808060405234610016576136c9908161001c8239f35b600080fdfe6101e0604052600436101561001357600080fd5b60003560e01c806307dd0a0f14612a495780630ad4ef38146127765780630ffe433d1461161f5780631f16653b14611601578063259132d41461151b5780633c5e5d3a1461125157806362afde25146111405780637acc0b2014610e465780639ab2dfa314610c56578063b9db15b41461081a578063c07cfca914610776578063c3a4e5971461063a578063d10e53d3146101e45763ec90a7b0146100b757600080fd5b346101df576020806003193601126101df576100d1612e84565b90600354916100df8361364d565b92600191600091906001600160a01b03908116845b8381111561017b57505050506101098161364d565b9360005b82811061015157505050604051918083018184528451809152816040850195019160005b82811061013e5785870386f35b8351875295810195928101928401610131565b80610162610173928498969861367f565b5161016d828761367f565b526131ca565b94929461010d565b806000989698526000875260406000208284600783015460081c161490816101d0575b506101b5575b6101ad906131ca565b9694966100f4565b936101c8818661016d6101ad948a61367f565b9490506101a4565b60ff915060090154163861019e565b600080fd5b346101df5760603660031901126101df576004803510156101df576024356001600160401b0381116101df5761021e903690600401612f29565b6044356001600160401b0381116101df5761023d903690600401612f29565b9033600052600260205260ff600360406000200154166106005761026381511515613142565b61026e6004356130da565b600360ff60043516116105cc576040519061028882612eb6565b338252602082019261029b6004356130da565b6004358452604083019082825260608401526001608084015233600052600260205260406000209360018060a01b03845116855491516102da816130da565b6102e3816130da565b60ff60a01b9060a01b16916affffffffffffffffffffff60a81b1617178455519283516001600160401b0381116104f5576103216001830154612ffa565b601f8111610585575b506020601f821160011461051657819293949560009261050b575b50508160011b916000199060031b1c19161760018201555b60608301519283516001600160401b0381116104f5576103806002840154612ffa565b601f81116104aa575b506020601f82116001146104355791816080926003946103da979860009261042a575b50508160011b9160001990861b1c19161760028501555b0151151591019060ff801983541691151516179055565b7f110b738ebb1be6a0003a04bc69dea2d42dce2ff6424f866e30a39749b1c245986040516104096004356130da565b600435815260406020820152806104253394604083019061311d565b0390a2005b0151905088806103ac565b601f198216956002850160005260206000209660005b8181106104925750926103da969760039593600193836080971061047a575b505050811b0160028501556103c3565b015160001983881b60f8161c1916905588808061046a565b8383015189556001909801976020938401930161044b565b600284016000526020600020601f830160051c810191602084106104eb575b601f0160051c01905b8181106104df5750610389565b600081556001016104d2565b90915081906104c9565b634e487b7160e01b600052604160045260246000fd5b015190508580610345565b6001830160005260206000209060005b601f198416811061056d575060019394959683601f19811610610554575b505050811b01600182015561035d565b015160001960f88460031b161c19169055858080610544565b9091602060018192858b015181550193019101610526565b600183016000526020600020601f830160051c8101602084106105c5575b601f830160051c820181106105b957505061032a565b600081556001016105a3565b50806105a3565b60405162461bcd60e51b815260206004820152600c60248201526b496e76616c696420726f6c6560a01b6044820152606490fd5b60405162461bcd60e51b8152602060048201526012602482015271105b1c9958591e481c9959da5cdd195c995960721b6044820152606490fd5b346101df5760403660031901126101df576004356024356001600160401b0381116101df5761066d903690600401612f29565b816000526020916000835261068c60ff600960406000200154166135f1565b60005260008252600860406000200160405183818181019360009080546106b281612ffa565b916001918083169081156107565750600114610718575b5050506106df925003601f198101835282612f08565b5190209060405161070c8482816106ff81830196878151938492016130fa565b8101038084520182612f08565b51902014604051908152f35b6000908152858120929350915b83831061074057505050916106df92820101869288806106c9565b8054878401870152869450918501918101610725565b925050506106df94925060ff1916865280151502820101869288806106c9565b346101df5760203660031901126101df576001600160a01b0380610798612e84565b166000526002602052604060002080549061080e60ff8360a01c16916108006107c360018301613034565b60ff60036107d360028601613034565b94015416946040519788971687526107ea816130da565b602087015260a0604087015260a086019061311d565b90848203606086015261311d565b90151560808301520390f35b346101df5760203660031901126101df5760006102c060405161083c81612ed1565b8281526060602082015260606040820152826060820152606060808201528260a0820152606060c08201528260e08201528261010082015260606101208201528261014082015260606101608201526060610180820152826101a082015260606101c082015260606101e082015282610200820152606061022082015260606102408201528261026082015282610280820152826102a082015201526004358060005260006020526108f860ff600960406000200154166135f1565b6000526000602052604060002060156040519161091483612ed1565b8054835261092460018201613034565b602084015261093560028201613034565b60408401526003810154606084015261095060048201613034565b6080840152600581015460a084015261096b60068201613034565b60c0840152600781015460ff8116610982816130da565b60e0850152600890811c6001600160a01b03166101008501526109a6908201613034565b61012084015260ff60098201541615156101408401526109c8600a8201613034565b6101608401526109da600b8201613034565b610180840152600c8101546001600160a01b03166101a0840152610a00600d8201613034565b6101c0840152610a12600e8201613034565b6101e0840152600f8101546001600160a01b0316610200840152610a3860108201613034565b610220840152610a4a60118201613034565b6102408401526012810154610260840152601381015461028084015260148101546102a084015201546102c0820152604051809160208252805160208301526102c0610c27610c0f610be1610bc9610b9b610b83610b5d610b1d610afc8a8c60806060610ae0610acb60208601516102e0604087015261030086019061311d565b6040860151858203601f19018487015261311d565b93015191015260808c01518d8203601f190160a08f015261311d565b60a08b015160c08d015260c08b01518c60e0601f198285030191015261311d565b60e08a0151610b2b816130da565b6101008c015260018060a01b036101008b0151166101208c01526101208a0151601f198c8303016101408d015261311d565b61014089015115156101608b0152610160890151601f198b8303016101808c015261311d565b610180880151898203601f19016101a08b015261311d565b6101a08701516001600160a01b03166101c089810191909152870151888203601f19016101e08a015261311d565b6101e0860151878203601f190161020089015261311d565b6102008501516001600160a01b031661022087810191909152850151868203601f190161024088015261311d565b610240840151858203601f190161026087015261311d565b916102608101516102808501526102808101516102a08501526102a08101518285015201516102e08301520390f35b346101df576020806003193601126101df57600435806000526000825260ff90610c8982600960406000200154166135f1565b60005260018083526040600020928354610ca281613636565b93610cb06040519586612f08565b81855260009586528286208386019691875b848410610da7575050505050604051928184019082855251809152604084019160408260051b86010195926000905b838210610cfe5786880387f35b90919293948380610d96839a603f198b82030186528951908151815260018060a01b0380858401511685830152604083015116604082015260608083015190610d46826130da565b82015260e0610d85610d6860808086015190610100809187015285019061311d565b60a0808601519085015260c080860151908583039086015261311d565b9201519060e081840391015261311d565b999701959493919091019101610cf1565b95600786829a9860409a989a51610dbd81612e9a565b86548152848701546001600160a01b03908116848301526002880154908116604083015260a090811c8716610df1816130da565b6060830152610e0260038901613034565b6080830152600488015490820152610e1c60058801613034565b60c0820152610e2d60068801613034565b60e0820152815201930193019291979597969496610cc2565b346101df5760203660031901126101df57600435600052600060205260406000208061018052805490600101610e7b90613034565b60805261018051600201610e8e90613034565b60c05261018051600381015461010052600401610eaa90613034565b61018051600581015490600601610ec090613034565b61018051600781015490600801610ed690613034565b61018051600981015460ff1690600a01610eef90613034565b9161018051600b01610f0090613034565b61018051600c8101546001600160a01b03169691959190610f2390600d01613034565b9761018051600e01610f3490613034565b61018051600f8101546001600160a01b03169c919b9190610f5790601001613034565b6101205261018051601101610f6b90613034565b6101c05261018051601281015460e0526013810154610160526014810154610140526015015460a052604051806101a052526102e0806101a051602001526101a0510160805190610fbb9161311d565b6101a051808203906040015260c05190610fd49161311d565b610100516101a051606001526101a0518082039060800152610ff59161311d565b906101a05160a001526101a0518082039060c001526110139161311d565b9060ff8116611021816130da565b6101a05160e00152600160a01b600190039060081c166101a05161010001526101a0518082039061012001526110569161311d565b9015156101a05161014001526101a0518082039061016001526110789161311d565b6101a05180820390610180015261108e9161311d565b906101a0516101a001526101a051808203906101c001526110ae9161311d565b6101a051808203906101e001526110c49161311d565b906101a05161020001526101a05180820390610220015261012051906110e99161311d565b6101a0518082039061024001526101c051906111049161311d565b60e0516101a0516102600152610160516101a0516102800152610140516101a0516102a0015260a0516101a0516102c001526101a05180910390f35b346101df576020806003193601126101df5761115a612e84565b906000608060405161116b81612eb6565b828152828482015260606040820152606080820152015260018060a01b0380921660005260028152604060002090611244604051926111a984612eb6565b61123160ff8254878116875260a01c16848601906111c6816130da565b81526111d460018401613034565b906040870191825260ff60036111ec60028701613034565b9560608a0196875201541695608088019615158752604051988998828a525116908801525161121a816130da565b60408701525160a0606087015260c086019061311d565b9051848203601f1901608086015261311d565b9051151560a08301520390f35b346101df5761125f36612f7f565b91806000526020906000825261127f60ff600960406000200154166135f1565b60005260008152604060002091600f8301805460018060a01b0381166114df576112ab83511515613142565b6001600160a01b0319163317905580516001600160401b03919060108501908381116104f557806112dc8354612ffa565b93601f94858111611490575b50869085831160011461142b57600092611420575b50508160011b916000199060031b1c19161790555b601184019285519283116104f55761132a8454612ffa565b8281116113dd575b508091831160011461137657508192939460009261136b575b50508160011b916000199060031b1c19161790555b601442910155600080f35b01519050848061134b565b90601f198316958460005282600020926000905b8882106113c5575050836001959697106113ac575b505050811b019055611360565b015160001960f88460031b161c1916905584808061139f565b8060018596829496860151815501950193019061138a565b84600052816000208380860160051c820192848710611417575b0160051c01905b81811061140b5750611332565b600081556001016113fe565b925081926113f7565b0151905088806112fd565b60008581528881209350601f198516905b8982821061147a575050908460019594939210611461575b505050811b019055611312565b015160001960f88460031b161c19169055888080611454565b600185968293968601518155019501930161143c565b90915083600052866000208580850160051c8201928986106114d6575b9085949392910160051c01905b8181106114c757506112e8565b600081558493506001016114ba565b925081926114ad565b60405162461bcd60e51b815260048101859052601460248201527314995d185a5b195c88185b1c9958591e481cd95d60621b6044820152606490fd5b346101df5760403660031901126101df57602435600435600052600160205260406000209081548110156101df5761155291612fc8565b508054600182015460028301546001600160a01b03918216936115fd926115ef916115dc60a085901c60ff1661158a60038401613034565b906004840154946115a960066115a260058801613034565b9601613034565b976040519b8c9b8c5260208c01521660408a01526115c6816130da565b60608901526101008060808a015288019061311d565b9160a087015285820360c087015261311d565b9083820360e085015261311d565b0390f35b346101df5760003660031901126101df576020600354604051908152f35b346101df5760e03660031901126101df576004356001600160401b0381116101df5761164f903690600401612f29565b6024356001600160401b0381116101df5761166e903690600401612f29565b6064356001600160401b0381116101df5761168d903690600401612f29565b9160a4356001600160401b0381116101df576116ad903690600401612f29565b9160c4356001600160401b0381116101df576116cd903690600401612f29565b903360005260026020526116eb60ff6003604060002001541661317e565b33600052600260205260ff60406000205460a01c16611709816130da565b61273d576117186003546131ca565b938460035533600052600260205260406000209060405161173881612eb6565b82546001600160a01b038116825260a01c60ff16611755816130da565b602082015261176660018401613034565b9060408101918252608060ff600361178060028801613034565b96876060860152015416151591015251906040519361179e85612ed1565b8785528660208601526040850152604435606085015287608085015260843560a085015260c0840152600060e08401523361010084015283610120840152600161014084015261016083015261018082015260006101a082015260405161180481612eed565b600081526101c082015260405161181a81612eed565b600081526101e0820152600061020082015260405161183881612eed565b6000815261022082015260405161184e81612eed565b6000815261024082015242610260820152600061028082015260006102a082015260006102c08201528360005260006020526040600020908051825560208101518051906001600160401b0382116104f55781906118af6001860154612ffa565b601f81116126ea575b50602090601f83116001146126785760009261266d575b50508160011b916000199060031b1c19161760018301555b60408101518051906001600160401b0382116104f557819061190c6002860154612ffa565b601f811161261a575b50602090601f83116001146125a85760009261259d575b50508160011b916000199060031b1c19161760028301555b6060810151600383015560808101518051906001600160401b0382116104f55781906119736004860154612ffa565b601f811161254a575b50602090601f83116001146124d8576000926124cd575b50508160011b916000199060031b1c19161760048301555b60a0810151600583015560c08101518051906001600160401b0382116104f55781906119da6006860154612ffa565b601f811161247a575b50602090601f8311600114612408576000926123fd575b50508160011b916000199060031b1c19161760068301555b60078201611a2d60e0830151611a27816130da565b826131ef565b6101008201518154610100600160a81b03191660089190911b610100600160a81b03161790556101208101518051906001600160401b0382116104f5578190611a796008860154612ffa565b601f81116123aa575b50602090601f83116001146123385760009261232d575b50508160011b916000199060031b1c19161760088301555b611ad16101408201511515600984019060ff801983541691151516179055565b6101608101518051906001600160401b0382116104f5578190611af7600a860154612ffa565b601f81116122da575b50602090601f83116001146122685760009261225d575b50508160011b916000199060031b1c191617600a8301555b6101808101518051906001600160401b0382116104f5578190611b55600b860154612ffa565b601f811161220a575b50602090601f83116001146121985760009261218d575b50508160011b916000199060031b1c191617600b8301555b600c820160018060a01b036101a0830151166bffffffffffffffffffffffff60a01b8254161790556101c08101518051906001600160401b0382116104f5578190611bdb600d860154612ffa565b601f811161213a575b50602090601f83116001146120c8576000926120bd575b50508160011b916000199060031b1c191617600d8301555b6101e08101518051906001600160401b0382116104f5578190611c39600e860154612ffa565b601f811161206a575b50602090601f8311600114611ff857600092611fed575b50508160011b916000199060031b1c191617600e8301555b600f820160018060a01b03610200830151166bffffffffffffffffffffffff60a01b8254161790556102208101518051906001600160401b0382116104f5578190611cbf6010860154612ffa565b601f8111611f9a575b50602090601f8311600114611f2857600092611f1d575b50508160011b916000199060031b1c19161760108301555b6102408101518051906001600160401b0382116104f557611d1b6011850154612ffa565b601f8111611ed6575b50602090601f8311600114611e60579180601594926102c094600092611e55575b50508160011b916000199060031b1c19161760118501555b610260810151601285015561028081015160138501556102a08101516014850155015191015582600052600160205260406000209360405190611d9f82612e9a565b848252600060208301523360408301526000606083015260808201524260a08201526040519460408601928684106001600160401b038511176104f557602096611e089460405260078152661a185c9d995cdd60ca1b8882015260c084015260e0830152613207565b817f5b750c34ff65e7500b4250ef0db18cf3a3f0d4ce3131ef7e64d457b0bea7236f611e3f6040519360408552604085019061311d565b92608435868201528033940390a3604051908152f35b015190508a80611d45565b906011850160005260206000209160005b601f1985168110611ebe575092601594926001926102c09583601f19811610611ea5575b505050811b016011850155611d5d565b015160001960f88460031b161c191690558a8080611e95565b91926020600181928685015181550194019201611e71565b601185016000526020600020601f840160051c810160208510611f16575b601f830160051c82018110611f0a575050611d24565b60008155600101611ef4565b5080611ef4565b015190508880611cdf565b9250601085016000526020600020906000935b601f1984168510611f7f576001945083601f19811610611f66575b505050811b016010830155611cf7565b015160001960f88460031b161c19169055888080611f56565b81810151835560209485019460019093019290910190611f3b565b909150601085016000526020600020601f840160051c810160208510611fe6575b90849392915b601f830160051c82018110611fd7575050611cc8565b60008155859450600101611fc1565b5080611fbb565b015190508880611c59565b9250600e85016000526020600020906000935b601f198416851061204f576001945083601f19811610612036575b505050811b01600e830155611c71565b015160001960f88460031b161c19169055888080612026565b8181015183556020948501946001909301929091019061200b565b909150600e85016000526020600020601f840160051c8101602085106120b6575b90849392915b601f830160051c820181106120a7575050611c42565b60008155859450600101612091565b508061208b565b015190508880611bfb565b9250600d85016000526020600020906000935b601f198416851061211f576001945083601f19811610612106575b505050811b01600d830155611c13565b015160001960f88460031b161c191690558880806120f6565b818101518355602094850194600190930192909101906120db565b909150600d85016000526020600020601f840160051c810160208510612186575b90849392915b601f830160051c82018110612177575050611be4565b60008155859450600101612161565b508061215b565b015190508880611b75565b9250600b85016000526020600020906000935b601f19841685106121ef576001945083601f198116106121d6575b505050811b01600b830155611b8d565b015160001960f88460031b161c191690558880806121c6565b818101518355602094850194600190930192909101906121ab565b909150600b85016000526020600020601f840160051c810160208510612256575b90849392915b601f830160051c82018110612247575050611b5e565b60008155859450600101612231565b508061222b565b015190508880611b17565b9250600a85016000526020600020906000935b601f19841685106122bf576001945083601f198116106122a6575b505050811b01600a830155611b2f565b015160001960f88460031b161c19169055888080612296565b8181015183556020948501946001909301929091019061227b565b909150600a85016000526020600020601f840160051c810160208510612326575b90849392915b601f830160051c82018110612317575050611b00565b60008155859450600101612301565b50806122fb565b015190508880611a99565b9250600885016000526020600020906000935b601f198416851061238f576001945083601f19811610612376575b505050811b016008830155611ab1565b015160001960f88460031b161c19169055888080612366565b8181015183556020948501946001909301929091019061234b565b909150600885016000526020600020601f840160051c8101602085106123f6575b90849392915b601f830160051c820181106123e7575050611a82565b600081558594506001016123d1565b50806123cb565b0151905088806119fa565b9250600685016000526020600020906000935b601f198416851061245f576001945083601f19811610612446575b505050811b016006830155611a12565b015160001960f88460031b161c19169055888080612436565b8181015183556020948501946001909301929091019061241b565b909150600685016000526020600020601f840160051c8101602085106124c6575b90849392915b601f830160051c820181106124b75750506119e3565b600081558594506001016124a1565b508061249b565b015190508880611993565b9250600485016000526020600020906000935b601f198416851061252f576001945083601f19811610612516575b505050811b0160048301556119ab565b015160001960f88460031b161c19169055888080612506565b818101518355602094850194600190930192909101906124eb565b909150600485016000526020600020601f840160051c810160208510612596575b90849392915b601f830160051c8201811061258757505061197c565b60008155859450600101612571565b508061256b565b01519050888061192c565b9250600285016000526020600020906000935b601f19841685106125ff576001945083601f198116106125e6575b505050811b016002830155611944565b015160001960f88460031b161c191690558880806125d6565b818101518355602094850194600190930192909101906125bb565b909150600285016000526020600020601f840160051c810160208510612666575b90849392915b601f830160051c82018110612657575050611915565b60008155859450600101612641565b508061263b565b0151905088806118cf565b9250600185016000526020600020906000935b601f19841685106126cf576001945083601f198116106126b6575b505050811b0160018301556118e7565b015160001960f88460031b161c191690558880806126a6565b8181015183556020948501946001909301929091019061268b565b909150600185016000526020600020601f840160051c810160208510612736575b90849392915b601f830160051c820181106127275750506118b8565b60008155859450600101612711565b508061270b565b60405162461bcd60e51b8152602060048201526011602482015270556e617574686f72697a656420726f6c6560781b6044820152606490fd5b346101df5761278436612f7f565b9180600052602090600082526127a460ff600960406000200154166135f1565b60005260008152604060002091600c8301805460018060a01b038116612a04576127d083511515613142565b6001600160a01b0319163317905580516001600160401b039190600d8501908381116104f557806128018354612ffa565b93601f948581116129b5575b50869085831160011461295057600092612945575b50508160011b916000199060031b1c19161790555b600e84019285519283116104f55761284f8454612ffa565b828111612902575b508091831160011461289b575081929394600092612890575b50508160011b916000199060031b1c19161790555b601342910155600080f35b015190508480612870565b90601f198316958460005282600020926000905b8882106128ea575050836001959697106128d1575b505050811b019055612885565b015160001960f88460031b161c191690558480806128c4565b806001859682949686015181550195019301906128af565b84600052816000208380860160051c82019284871061293c575b0160051c01905b8181106129305750612857565b60008155600101612923565b9250819261291c565b015190508880612822565b60008581528881209350601f198516905b8982821061299f575050908460019594939210612986575b505050811b019055612837565b015160001960f88460031b161c19169055888080612979565b6001859682939686015181550195019301612961565b90915083600052866000208580850160051c8201928986106129fb575b9085949392910160051c01905b8181106129ec575061280d565b600081558493506001016129df565b925081926129d2565b60405162461bcd60e51b815260048101859052601760248201527f4469737472696275746f7220616c7265616479207365740000000000000000006044820152606490fd5b346101df5760c03660031901126101df576024356001600160a01b03811681036101df57600460443510156101df576001600160401b036064358181116101df57612a98903690600401612f29565b6084358281116101df57612ab0903690600401612f29565b9160a4359081116101df57612ac9903690600401612f29565b91336000526002602052612ae760ff6003604060002001541661317e565b6004356000526000602052612b0660ff600960406000200154166135f1565b6004356000526000602052604060002092600784015460ff8116612b29816130da565b80612d0d575060081c6001600160a01b03163303612cb5576001600160a01b03851660009081526002602052604090205460019060a01c60ff16612b6c816130da565b03612c7157612c07935b612b85604435600783016131ef565b612b906044356130da565b60036044351480612c65575b612c59575b50600435600052600160205260406000209160405193612bc085612e9a565b60043585523360208601526001600160a01b0387166040860152612be56044356130da565b604435606086015260808501524260a085015260c084015260e0830152613207565b60405190612c166044356130da565b60443582524260208301526001600160a01b0316903390600435907f9fa92e8b138a6a0678480e61b6e7a0ee30af964ea75bc7b4a7006435e0f9b53790604090a4005b60154291015585612ba1565b50601581015415612b9c565b606460405162461bcd60e51b815260206004820152602060248201527f43616e206f6e6c79207472616e7366657220746f206469737472696275746f726044820152fd5b60405162461bcd60e51b815260206004820152602a60248201527f4f6e6c79206661726d65722063616e207472616e7366657220686172766573746044820152691959081c1c9bd91d58dd60b21b6064820152608490fd5b9050612d18816130da565b60018103612e065750336000526002602052600160ff60406000205460a01c16612d41816130da565b03612dc15760018060a01b0385166000526002602052600260ff60406000205460a01c16612d6e816130da565b03612d7c57612c0793612b76565b60405162461bcd60e51b815260206004820152601d60248201527f43616e206f6e6c79207472616e7366657220746f2072657461696c65720000006044820152606490fd5b60405162461bcd60e51b815260206004820152601d60248201527f4f6e6c79206469737472696275746f722063616e207472616e736665720000006044820152606490fd5b80612e126002926130da565b14612e21575b612c0793612b76565b336000526002602052600260ff60406000205460a01c16612e41816130da565b14612e185760405162461bcd60e51b815260206004820152601660248201527513db9b1e481c995d185a5b195c8818d85b881cd95b1b60521b6044820152606490fd5b600435906001600160a01b03821682036101df57565b61010081019081106001600160401b038211176104f557604052565b60a081019081106001600160401b038211176104f557604052565b6102e081019081106001600160401b038211176104f557604052565b602081019081106001600160401b038211176104f557604052565b90601f801991011681019081106001600160401b038211176104f557604052565b81601f820112156101df578035906001600160401b0382116104f55760405192612f5d601f8401601f191660200185612f08565b828452602083830101116101df57816000926020809301838601378301015290565b60606003198201126101df57600435916001600160401b036024358181116101df5783612fae91600401612f29565b926044359182116101df57612fc591600401612f29565b90565b8054821015612fe4576000526007602060002091020190600090565b634e487b7160e01b600052603260045260246000fd5b90600182811c9216801561302a575b602083101461301457565b634e487b7160e01b600052602260045260246000fd5b91607f1691613009565b906040519182600082549261304884612ffa565b9081845260019485811690816000146130b75750600114613074575b505061307292500383612f08565b565b9093915060005260209081600020936000915b81831061309f57505061307293508201013880613064565b85548884018501529485019487945091830191613087565b91505061307294506020925060ff191682840152151560051b8201013880613064565b600411156130e457565b634e487b7160e01b600052602160045260246000fd5b60005b83811061310d5750506000910152565b81810151838201526020016130fd565b90602091613136815180928185528580860191016130fa565b601f01601f1916010190565b1561314957565b60405162461bcd60e51b815260206004820152600d60248201526c13985b59481c995c5d5a5c9959609a1b6044820152606490fd5b1561318557565b60405162461bcd60e51b815260206004820152601c60248201527f4e6f7420612072656769737465726564207374616b65686f6c646572000000006044820152606490fd5b60001981146131d95760010190565b634e487b7160e01b600052601160045260246000fd5b906131f9816130da565b60ff80198354169116179055565b8054680100000000000000008110156104f55761322b906001928382018155612fc8565b6135db578251815560208084015183830180546001600160a01b0319166001600160a01b0392831617905560408501516002840180546060880151949594919390921690613278816130da565b613281816130da565b6001600160a81b03199092161760a09190911b60ff60a01b16179055608084015180516001600160401b03936003939091818501908681116104f557806132c88354612ffa565b95601f96878111613589575b5085908783116001146135275760009261351c575b505060001982881b1c191690881b1790555b60a087015160048201556005810160c08801518051908782116104f5576133228354612ffa565b8681116134d6575b5084908683116001146134695791806006949260e0969460009261345e575b5050600019828a1b1c1916908a1b1790555b019601519081519485116104f5576133738754612ffa565b838111613418575b50809285116001146133b257509383949184926000956133a7575b50501b92600019911b1c1916179055565b015193503880613396565b92919084601f1981168860005285600020956000905b898383106133fe57505050106133e4575b50505050811b019055565b01519060f884600019921b161c19169055388080806133d9565b8587015189559097019694850194889350908101906133c8565b87600052816000208480880160051c820192848910613455575b0160051c019087905b82811061344957505061337b565b6000815501879061343b565b92508192613432565b015190503880613349565b899291601f1983169185600052876000209260005b898282106134c05750509160e097959391856006989694106134a8575b505050811b01905561335b565b0151600019838c1b60f8161c1916905538808061349b565b8385015186558e9790950194938401930161347e565b83600052856000208780850160051c820192888610613513575b0160051c01908a905b82811061350757505061332a565b60008155018a906134f9565b925081926134f0565b0151905038806132e9565b908a9350601f1983169185600052876000209260005b89828210613573575050841161355b575b505050811b0190556132fb565b0151600019838a1b60f8161c1916905538808061354e565b8385015186558e9790950194938401930161353d565b90915060008481528681208880860160051c8201938987106135d2575b918d9187969594930160051c01925b8381106135c4575050506132d4565b8281558695508d91016135b5565b935081936135a6565b634e487b7160e01b600052600060045260246000fd5b156135f857565b60405162461bcd60e51b8152602060048201526016602482015275141c9bd91d58dd08191bd95cc81b9bdd08195e1a5cdd60521b6044820152606490fd5b6001600160401b0381116104f55760051b60200190565b9061365782613636565b6136646040519182612f08565b8281528092613675601f1991613636565b0190602036910137565b8051821015612fe45760209160051b01019056fea264697066735822122016ebe6eb8619c7875b2ad3c5ec164d8236c831ce0c5e35225ca2a8c46a39c98364736f6c63430008130033","opcodes":"PUSH1 0x80 DUP1 PUSH1 0x40 MSTORE CALLVALUE PUSH2 0x16 JUMPI PUSH2 0x36C9 SWAP1 DUP2 PUSH2 0x1C DUP3 CODECOPY RETURN JUMPDEST PUSH1 0x0 DUP1 REVERT INVALID PUSH2 0x1E0 PUSH1 0x40 MSTORE PUSH1 0x4 CALLDATASIZE LT ISZERO PUSH2 0x13 JUMPI PUSH1 0x0 DUP1 REVERT JUMPDEST PUSH1 0x0 CALLDATALOAD PUSH1 0xE0 SHR DUP1 PUSH4 0x7DD0A0F EQ PUSH2 0x2A49 JUMPI DUP1 PUSH4 0xAD4EF38 EQ PUSH2 0x2776 JUMPI DUP1 PUSH4 0xFFE433D EQ PUSH2 0x161F JUMPI DUP1 PUSH4 0x1F16653B EQ PUSH2 0x1601 JUMPI DUP1 PUSH4 0x259132D4 EQ PUSH2 0x151B JUMPI DUP1 PUSH4 0x3C5E5D3A EQ PUSH2 0x1251 JUMPI DUP1 PUSH4 0x62AFDE25 EQ PUSH2 0x1140 JUMPI DUP1 PUSH4 0x7ACC0B20 EQ PUSH2 0xE46 JUMPI DUP1 PUSH4 0x9AB2DFA3 EQ PUSH2 0xC56 JUMPI DUP1 PUSH4 0xB9DB15B4 EQ PUSH2 0x81A JUMPI DUP1 PUSH4 0xC07CFCA9 EQ PUSH2 0x776 JUMPI DUP1 PUSH4 0xC3A4E597 EQ PUSH2 0x63A JUMPI DUP1 PUSH4 0xD10E53D3 EQ PUSH2 0x1E4 JUMPI PUSH4 0xEC90A7B0 EQ PUSH2 0xB7 JUMPI PUSH1 0x0 DUP1 REVERT JUMPDEST CALLVALUE PUSH2 0x1DF JUMPI PUSH1 0x20 DUP1 PUSH1 0x3 NOT CALLDATASIZE ADD SLT PUSH2 0x1DF JUMPI PUSH2 0xD1 PUSH2 0x2E84 JUMP JUMPDEST SWAP1 PUSH1 0x3 SLOAD SWAP2 PUSH2 0xDF DUP4 PUSH2 0x364D JUMP JUMPDEST SWAP3 PUSH1 0x1 SWAP2 PUSH1 0x0 SWAP2 SWAP1 PUSH1 0x1 PUSH1 0x1 PUSH1 0xA0 SHL SUB SWAP1 DUP2 AND DUP5 JUMPDEST DUP4 DUP2 GT ISZERO PUSH2 0x17B JUMPI POP POP POP POP PUSH2 0x109 DUP2 PUSH2 0x364D JUMP JUMPDEST SWAP4 PUSH1 0x0 JUMPDEST DUP3 DUP2 LT PUSH2 0x151 JUMPI POP POP POP PUSH1 0x40 MLOAD SWAP2 DUP1 DUP4 ADD DUP2 DUP5 MSTORE DUP5 MLOAD DUP1 SWAP2 MSTORE DUP2 PUSH1 0x40 DUP6 ADD SWAP6 ADD SWAP2 PUSH1 0x0 JUMPDEST DUP3 DUP2 LT PUSH2 0x13E JUMPI DUP6 DUP8 SUB DUP7 RETURN JUMPDEST DUP4 MLOAD DUP8 MSTORE SWAP6 DUP2 ADD SWAP6 SWAP3 DUP2 ADD SWAP3 DUP5 ADD PUSH2 0x131 JUMP JUMPDEST DUP1 PUSH2 0x162 PUSH2 0x173 SWAP3 DUP5 SWAP9 SWAP7 SWAP9 PUSH2 0x367F JUMP JUMPDEST MLOAD PUSH2 0x16D DUP3 DUP8 PUSH2 0x367F JUMP JUMPDEST MSTORE PUSH2 0x31CA JUMP JUMPDEST SWAP5 SWAP3 SWAP5 PUSH2 0x10D JUMP JUMPDEST DUP1 PUSH1 0x0 SWAP9 SWAP7 SWAP9 MSTORE PUSH1 0x0 DUP8 MSTORE PUSH1 0x40 PUSH1 0x0 KECCAK256 DUP3 DUP5 PUSH1 0x7 DUP4 ADD SLOAD PUSH1 0x8 SHR AND EQ SWAP1 DUP2 PUSH2 0x1D0 JUMPI JUMPDEST POP PUSH2 0x1B5 JUMPI JUMPDEST PUSH2 0x1AD SWAP1 PUSH2 0x31CA JUMP JUMPDEST SWAP7 SWAP5 SWAP7 PUSH2 0xF4 JUMP JUMPDEST SWAP4 PUSH2 0x1C8 DUP2 DUP7 PUSH2 0x16D PUSH2 0x1AD SWAP5 DUP11 PUSH2 0x367F JUMP JUMPDEST SWAP5 SWAP1 POP PUSH2 0x1A4 JUMP JUMPDEST PUSH1 0xFF SWAP2 POP PUSH1 0x9 ADD SLOAD AND CODESIZE PUSH2 0x19E JUMP JUMPDEST PUSH1 0x0 DUP1 REVERT JUMPDEST CALLVALUE PUSH2 0x1DF JUMPI PUSH1 0x60 CALLDATASIZE PUSH1 0x3 NOT ADD SLT PUSH2 0x1DF JUMPI PUSH1 0x4 DUP1 CALLDATALOAD LT ISZERO PUSH2 0x1DF JUMPI PUSH1 0x24 CALLDATALOAD PUSH1 0x1 PUSH1 0x1 PUSH1 0x40 SHL SUB DUP2 GT PUSH2 0x1DF JUMPI PUSH2 0x21E SWAP1 CALLDATASIZE SWAP1 PUSH1 0x4 ADD PUSH2 0x2F29 JUMP JUMPDEST PUSH1 0x44 CALLDATALOAD PUSH1 0x1 PUSH1 0x1 PUSH1 0x40 SHL SUB DUP2 GT PUSH2 0x1DF JUMPI PUSH2 0x23D SWAP1 CALLDATASIZE SWAP1 PUSH1 0x4 ADD PUSH2 0x2F29 JUMP JUMPDEST SWAP1 CALLER PUSH1 0x0 MSTORE PUSH1 0x2 PUSH1 0x20 MSTORE PUSH1 0xFF PUSH1 0x3 PUSH1 0x40 PUSH1 0x0 KECCAK256 ADD SLOAD AND PUSH2 0x600 JUMPI PUSH2 0x263 DUP2 MLOAD ISZERO ISZERO PUSH2 0x3142 JUMP JUMPDEST PUSH2 0x26E PUSH1 0x4 CALLDATALOAD PUSH2 0x30DA JUMP JUMPDEST PUSH1 0x3 PUSH1 0xFF PUSH1 0x4 CALLDATALOAD AND GT PUSH2 0x5CC JUMPI PUSH1 0x40 MLOAD SWAP1 PUSH2 0x288 DUP3 PUSH2 0x2EB6 JUMP JUMPDEST CALLER DUP3 MSTORE PUSH1 0x20 DUP3 ADD SWAP3 PUSH2 0x29B PUSH1 0x4 CALLDATALOAD PUSH2 0x30DA JUMP JUMPDEST PUSH1 0x4 CALLDATALOAD DUP5 MSTORE PUSH1 0x40 DUP4 ADD SWAP1 DUP3 DUP3 MSTORE PUSH1 0x60 DUP5 ADD MSTORE PUSH1 0x1 PUSH1 0x80 DUP5 ADD MSTORE CALLER PUSH1 0x0 MSTORE PUSH1 0x2 PUSH1 0x20 MSTORE PUSH1 0x40 PUSH1 0x0 KECCAK256 SWAP4 PUSH1 0x1 DUP1 PUSH1 0xA0 SHL SUB DUP5 MLOAD AND DUP6 SLOAD SWAP2 MLOAD PUSH2 0x2DA DUP2 PUSH2 0x30DA JUMP JUMPDEST PUSH2 0x2E3 DUP2 PUSH2 0x30DA JUMP JUMPDEST PUSH1 0xFF PUSH1 0xA0 SHL SWAP1 PUSH1 0xA0 SHL AND SWAP2 PUSH11 0xFFFFFFFFFFFFFFFFFFFFFF PUSH1 0xA8 SHL AND OR OR DUP5 SSTORE MLOAD SWAP3 DUP4 MLOAD PUSH1 0x1 PUSH1 0x1 PUSH1 0x40 SHL SUB DUP2 GT PUSH2 0x4F5 JUMPI PUSH2 0x321 PUSH1 0x1 DUP4 ADD SLOAD PUSH2 0x2FFA JUMP JUMPDEST PUSH1 0x1F DUP2 GT PUSH2 0x585 JUMPI JUMPDEST POP PUSH1 0x20 PUSH1 0x1F DUP3 GT PUSH1 0x1 EQ PUSH2 0x516 JUMPI DUP2 SWAP3 SWAP4 SWAP5 SWAP6 PUSH1 0x0 SWAP3 PUSH2 0x50B JUMPI JUMPDEST POP POP DUP2 PUSH1 0x1 SHL SWAP2 PUSH1 0x0 NOT SWAP1 PUSH1 0x3 SHL SHR NOT AND OR PUSH1 0x1 DUP3 ADD SSTORE JUMPDEST PUSH1 0x60 DUP4 ADD MLOAD SWAP3 DUP4 MLOAD PUSH1 0x1 PUSH1 0x1 PUSH1 0x40 SHL SUB DUP2 GT PUSH2 0x4F5 JUMPI PUSH2 0x380 PUSH1 0x2 DUP5 ADD SLOAD PUSH2 0x2FFA JUMP JUMPDEST PUSH1 0x1F DUP2 GT PUSH2 0x4AA JUMPI JUMPDEST POP PUSH1 0x20 PUSH1 0x1F DUP3 GT PUSH1 0x1 EQ PUSH2 0x435 JUMPI SWAP2 DUP2 PUSH1 0x80 SWAP3 PUSH1 0x3 SWAP5 PUSH2 0x3DA SWAP8 SWAP9 PUSH1 0x0 SWAP3 PUSH2 0x42A JUMPI JUMPDEST POP POP DUP2 PUSH1 0x1 SHL SWAP2 PUSH1 0x0 NOT SWAP1 DUP7 SHL SHR NOT AND OR PUSH1 0x2 DUP6 ADD SSTORE JUMPDEST ADD MLOAD ISZERO ISZERO SWAP2 ADD SWAP1 PUSH1 0xFF DUP1 NOT DUP4 SLOAD AND SWAP2 ISZERO ISZERO AND OR SWAP1 SSTORE JUMP JUMPDEST PUSH32 0x110B738EBB1BE6A0003A04BC69DEA2D42DCE2FF6424F866E30A39749B1C24598 PUSH1 0x40 MLOAD PUSH2 0x409 PUSH1 0x4 CALLDATALOAD PUSH2 0x30DA JUMP JUMPDEST PUSH1 0x4 CALLDATALOAD DUP2 MSTORE PUSH1 0x40 PUSH1 0x20 DUP3 ADD MSTORE DUP1 PUSH2 0x425 CALLER SWAP5 PUSH1 0x40 DUP4 ADD SWAP1 PUSH2 0x311D JUMP JUMPDEST SUB SWAP1 LOG2 STOP JUMPDEST ADD MLOAD SWAP1 POP DUP9 DUP1 PUSH2 0x3AC JUMP JUMPDEST PUSH1 0x1F NOT DUP3 AND SWAP6 PUSH1 0x2 DUP6 ADD PUSH1 0x0 MSTORE PUSH1 0x20 PUSH1 0x0 KECCAK256 SWAP7 PUSH1 0x0 JUMPDEST DUP2 DUP2 LT PUSH2 0x492 JUMPI POP SWAP3 PUSH2 0x3DA SWAP7 SWAP8 PUSH1 0x3 SWAP6 SWAP4 PUSH1 0x1 SWAP4 DUP4 PUSH1 0x80 SWAP8 LT PUSH2 0x47A JUMPI JUMPDEST POP POP POP DUP2 SHL ADD PUSH1 0x2 DUP6 ADD SSTORE PUSH2 0x3C3 JUMP JUMPDEST ADD MLOAD PUSH1 0x0 NOT DUP4 DUP9 SHL PUSH1 0xF8 AND SHR NOT AND SWAP1 SSTORE DUP9 DUP1 DUP1 PUSH2 0x46A JUMP JUMPDEST DUP4 DUP4 ADD MLOAD DUP10 SSTORE PUSH1 0x1 SWAP1 SWAP9 ADD SWAP8 PUSH1 0x20 SWAP4 DUP5 ADD SWAP4 ADD PUSH2 0x44B JUMP JUMPDEST PUSH1 0x2 DUP5 ADD PUSH1 0x0 MSTORE PUSH1 0x20 PUSH1 0x0 KECCAK256 PUSH1 0x1F DUP4 ADD PUSH1 0x5 SHR DUP2 ADD SWAP2 PUSH1 0x20 DUP5 LT PUSH2 0x4EB JUMPI JUMPDEST PUSH1 0x1F ADD PUSH1 0x5 SHR ADD SWAP1 JUMPDEST DUP2 DUP2 LT PUSH2 0x4DF JUMPI POP PUSH2 0x389 JUMP JUMPDEST PUSH1 0x0 DUP2 SSTORE PUSH1 0x1 ADD PUSH2 0x4D2 JUMP JUMPDEST SWAP1 SWAP2 POP DUP2 SWAP1 PUSH2 0x4C9 JUMP JUMPDEST PUSH4 0x4E487B71 PUSH1 0xE0 SHL PUSH1 0x0 MSTORE PUSH1 0x41 PUSH1 0x4 MSTORE PUSH1 0x24 PUSH1 0x0 REVERT JUMPDEST ADD MLOAD SWAP1 POP DUP6 DUP1 PUSH2 0x345 JUMP JUMPDEST PUSH1 0x1 DUP4 ADD PUSH1 0x0 MSTORE PUSH1 0x20 PUSH1 0x0 KECCAK256 SWAP1 PUSH1 0x0 JUMPDEST PUSH1 0x1F NOT DUP5 AND DUP2 LT PUSH2 0x56D JUMPI POP PUSH1 0x1 SWAP4 SWAP5 SWAP6 SWAP7 DUP4 PUSH1 0x1F NOT DUP2 AND LT PUSH2 0x554 JUMPI JUMPDEST POP POP POP DUP2 SHL ADD PUSH1 0x1 DUP3 ADD SSTORE PUSH2 0x35D JUMP JUMPDEST ADD MLOAD PUSH1 0x0 NOT PUSH1 0xF8 DUP5 PUSH1 0x3 SHL AND SHR NOT AND SWAP1 SSTORE DUP6 DUP1 DUP1 PUSH2 0x544 JUMP JUMPDEST SWAP1 SWAP2 PUSH1 0x20 PUSH1 0x1 DUP2 SWAP3 DUP6 DUP12 ADD MLOAD DUP2 SSTORE ADD SWAP4 ADD SWAP2 ADD PUSH2 0x526 JUMP JUMPDEST PUSH1 0x1 DUP4 ADD PUSH1 0x0 MSTORE PUSH1 0x20 PUSH1 0x0 KECCAK256 PUSH1 0x1F DUP4 ADD PUSH1 0x5 SHR DUP2 ADD PUSH1 0x20 DUP5 LT PUSH2 0x5C5 JUMPI JUMPDEST PUSH1 0x1F DUP4 ADD PUSH1 0x5 SHR DUP3 ADD DUP2 LT PUSH2 0x5B9 JUMPI POP POP PUSH2 0x32A JUMP JUMPDEST PUSH1 0x0 DUP2 SSTORE PUSH1 0x1 ADD PUSH2 0x5A3 JUMP JUMPDEST POP DUP1 PUSH2 0x5A3 JUMP JUMPDEST PUSH1 0x40 MLOAD PUSH3 0x461BCD PUSH1 0xE5 SHL DUP2 MSTORE PUSH1 0x20 PUSH1 0x4 DUP3 ADD MSTORE PUSH1 0xC PUSH1 0x24 DUP3 ADD MSTORE PUSH12 0x496E76616C696420726F6C65 PUSH1 0xA0 SHL PUSH1 0x44 DUP3 ADD MSTORE PUSH1 0x64 SWAP1 REVERT JUMPDEST PUSH1 0x40 MLOAD PUSH3 0x461BCD PUSH1 0xE5 SHL DUP2 MSTORE PUSH1 0x20 PUSH1 0x4 DUP3 ADD MSTORE PUSH1 0x12 PUSH1 0x24 DUP3 ADD MSTORE PUSH18 0x105B1C9958591E481C9959DA5CDD195C9959 PUSH1 0x72 SHL PUSH1 0x44 DUP3 ADD MSTORE PUSH1 0x64 SWAP1 REVERT JUMPDEST CALLVALUE PUSH2 0x1DF JUMPI PUSH1 0x40 CALLDATASIZE PUSH1 0x3 NOT ADD SLT PUSH2 0x1DF JUMPI PUSH1 0x4 CALLDATALOAD PUSH1 0x24 CALLDATALOAD PUSH1 0x1 PUSH1 0x1 PUSH1 0x40 SHL SUB DUP2 GT PUSH2 0x1DF JUMPI PUSH2 0x66D SWAP1 CALLDATASIZE SWAP1 PUSH1 0x4 ADD PUSH2 0x2F29 JUMP JUMPDEST DUP2 PUSH1 0x0 MSTORE PUSH1 0x20 SWAP2 PUSH1 0x0 DUP4 MSTORE PUSH2 0x68C PUSH1 0xFF PUSH1 0x9 PUSH1 0x40 PUSH1 0x0 KECCAK256 ADD SLOAD AND PUSH2 0x35F1 JUMP JUMPDEST PUSH1 0x0 MSTORE PUSH1 0x0 DUP3 MSTORE PUSH1 0x8 PUSH1 0x40 PUSH1 0x0 KECCAK256 ADD PUSH1 0x40 MLOAD DUP4 DUP2 DUP2 DUP2 ADD SWAP4 PUSH1 0x0 SWAP1 DUP1 SLOAD PUSH2 0x6B2 DUP2 PUSH2 0x2FFA JUMP JUMPDEST SWAP2 PUSH1 0x1 SWAP2 DUP1 DUP4 AND SWAP1 DUP2 ISZERO PUSH2 0x756 JUMPI POP PUSH1 0x1 EQ PUSH2 0x718 JUMPI JUMPDEST POP POP POP PUSH2 0x6DF SWAP3 POP SUB PUSH1 0x1F NOT DUP2 ADD DUP4 MSTORE DUP3 PUSH2 0x2F08 JUMP JUMPDEST MLOAD SWAP1 KECCAK256 SWAP1 PUSH1 0x40 MLOAD PUSH2 0x70C DUP5 DUP3 DUP2 PUSH2 0x6FF DUP2 DUP4 ADD SWAP7 DUP8 DUP2 MLOAD SWAP4 DUP5 SWAP3 ADD PUSH2 0x30FA JUMP JUMPDEST DUP2 ADD SUB DUP1 DUP5 MSTORE ADD DUP3 PUSH2 0x2F08 JUMP JUMPDEST MLOAD SWAP1 KECCAK256 EQ PUSH1 0x40 MLOAD SWAP1 DUP2 MSTORE RETURN JUMPDEST PUSH1 0x0 SWAP1 DUP2 MSTORE DUP6 DUP2 KECCAK256 SWAP3 SWAP4 POP SWAP2 JUMPDEST DUP4 DUP4 LT PUSH2 0x740 JUMPI POP POP POP SWAP2 PUSH2 0x6DF SWAP3 DUP3 ADD ADD DUP7 SWAP3 DUP9 DUP1 PUSH2 0x6C9 JUMP JUMPDEST DUP1 SLOAD DUP8 DUP5 ADD DUP8 ADD MSTORE DUP7 SWAP5 POP SWAP2 DUP6 ADD SWAP2 DUP2 ADD PUSH2 0x725 JUMP JUMPDEST SWAP3 POP POP POP PUSH2 0x6DF SWAP5 SWAP3 POP PUSH1 0xFF NOT AND DUP7 MSTORE DUP1 ISZERO ISZERO MUL DUP3 ADD ADD DUP7 SWAP3 DUP9 DUP1 PUSH2 0x6C9 JUMP JUMPDEST CALLVALUE PUSH2 0x1DF JUMPI PUSH1 0x20 CALLDATASIZE PUSH1 0x3 NOT ADD SLT PUSH2 0x1DF JUMPI PUSH1 0x1 PUSH1 0x1 PUSH1 0xA0 SHL SUB DUP1 PUSH2 0x798 PUSH2 0x2E84 JUMP JUMPDEST AND PUSH1 0x0 MSTORE PUSH1 0x2 PUSH1 0x20 MSTORE PUSH1 0x40 PUSH1 0x0 KECCAK256 DUP1 SLOAD SWAP1 PUSH2 0x80E PUSH1 0xFF DUP4 PUSH1 0xA0 SHR AND SWAP2 PUSH2 0x800 PUSH2 0x7C3 PUSH1 0x1 DUP4 ADD PUSH2 0x3034 JUMP JUMPDEST PUSH1 0xFF PUSH1 0x3 PUSH2 0x7D3 PUSH1 0x2 DUP7 ADD PUSH2 0x3034 JUMP JUMPDEST SWAP5 ADD SLOAD AND SWAP5 PUSH1 0x40 MLOAD SWAP8 DUP9 SWAP8 AND DUP8 MSTORE PUSH2 0x7EA DUP2 PUSH2 0x30DA JUMP JUMPDEST PUSH1 0x20 DUP8 ADD MSTORE PUSH1 0xA0 PUSH1 0x40 DUP8 ADD MSTORE PUSH1 0xA0 DUP7 ADD SWAP1 PUSH2 0x311D JUMP JUMPDEST SWAP1 DUP5 DUP3 SUB PUSH1 0x60 DUP7 ADD MSTORE PUSH2 0x311D JUMP JUMPDEST SWAP1 ISZERO ISZERO PUSH1 0x80 DUP4 ADD MSTORE SUB SWAP1 RETURN JUMPDEST CALLVALUE PUSH2 0x1DF JUMPI PUSH1 0x20 CALLDATASIZE PUSH1 0x3 NOT ADD SLT PUSH2 0x1DF JUMPI PUSH1 0x0 PUSH2 0x2C0 PUSH1 0x40 MLOAD PUSH2 0x83C DUP2 PUSH2 0x2ED1 JUMP JUMPDEST DUP3 DUP2 MSTORE PUSH1 0x60 PUSH1 0x20 DUP3 ADD MSTORE PUSH1 0x60 PUSH1 0x40 DUP3 ADD MSTORE DUP3 PUSH1 0x60 DUP3 ADD MSTORE PUSH1 0x60 PUSH1 0x80 DUP3 ADD MSTORE DUP3 PUSH1 0xA0 DUP3 ADD MSTORE PUSH1 0x60 PUSH1 0xC0 DUP3 ADD MSTORE DUP3 PUSH1 0xE0 DUP3 ADD MSTORE DUP3 PUSH2 0x100 DUP3 ADD MSTORE PUSH1 0x60 PUSH2 0x120 DUP3 ADD MSTORE DUP3 PUSH2 0x140 DUP3 ADD MSTORE PUSH1 0x60 PUSH2 0x160 DUP3 ADD MSTORE PUSH1 0x60 PUSH2 0x180 DUP3 ADD MSTORE DUP3 PUSH2 0x1A0 DUP3 ADD MSTORE PUSH1 0x60 PUSH2 0x1C0 DUP3 ADD MSTORE PUSH1 0x60 PUSH2 0x1E0 DUP3 ADD MSTORE DUP3 PUSH2 0x200 DUP3 ADD MSTORE PUSH1 0x60 PUSH2 0x220 DUP3 ADD MSTORE PUSH1 0x60 PUSH2 0x240 DUP3 ADD MSTORE DUP3 PUSH2 0x260 DUP3 ADD MSTORE DUP3 PUSH2 0x280 DUP3 ADD MSTORE DUP3 PUSH2 0x2A0 DUP3 ADD MSTORE ADD MSTORE PUSH1 0x4 CALLDATALOAD DUP1 PUSH1 0x0 MSTORE PUSH1 0x0 PUSH1 0x20 MSTORE PUSH2 0x8F8 PUSH1 0xFF PUSH1 0x9 PUSH1 0x40 PUSH1 0x0 KECCAK256 ADD SLOAD AND PUSH2 0x35F1 JUMP JUMPDEST PUSH1 0x0 MSTORE PUSH1 0x0 PUSH1 0x20 MSTORE PUSH1 0x40 PUSH1 0x0 KECCAK256 PUSH1 0x15 PUSH1 0x40 MLOAD SWAP2 PUSH2 0x914 DUP4 PUSH2 0x2ED1 JUMP JUMPDEST DUP1 SLOAD DUP4 MSTORE PUSH2 0x924 PUSH1 0x1 DUP3 ADD PUSH2 0x3034 JUMP JUMPDEST PUSH1 0x20 DUP5 ADD MSTORE PUSH2 0x935 PUSH1 0x2 DUP3 ADD PUSH2 0x3034 JUMP JUMPDEST PUSH1 0x40 DUP5 ADD MSTORE PUSH1 0x3 DUP2 ADD SLOAD PUSH1 0x60 DUP5 ADD MSTORE PUSH2 0x950 PUSH1 0x4 DUP3 ADD PUSH2 0x3034 JUMP JUMPDEST PUSH1 0x80 DUP5 ADD MSTORE PUSH1 0x5 DUP2 ADD SLOAD PUSH1 0xA0 DUP5 ADD MSTORE PUSH2 0x96B PUSH1 0x6 DUP3 ADD PUSH2 0x3034 JUMP JUMPDEST PUSH1 0xC0 DUP5 ADD MSTORE PUSH1 0x7 DUP2 ADD SLOAD PUSH1 0xFF DUP2 AND PUSH2 0x982 DUP2 PUSH2 0x30DA JUMP JUMPDEST PUSH1 0xE0 DUP6 ADD MSTORE PUSH1 0x8 SWAP1 DUP2 SHR PUSH1 0x1 PUSH1 0x1 PUSH1 0xA0 SHL SUB AND PUSH2 0x100 DUP6 ADD MSTORE PUSH2 0x9A6 SWAP1 DUP3 ADD PUSH2 0x3034 JUMP JUMPDEST PUSH2 0x120 DUP5 ADD MSTORE PUSH1 0xFF PUSH1 0x9 DUP3 ADD SLOAD AND ISZERO ISZERO PUSH2 0x140 DUP5 ADD MSTORE PUSH2 0x9C8 PUSH1 0xA DUP3 ADD PUSH2 0x3034 JUMP JUMPDEST PUSH2 0x160 DUP5 ADD MSTORE PUSH2 0x9DA PUSH1 0xB DUP3 ADD PUSH2 0x3034 JUMP JUMPDEST PUSH2 0x180 DUP5 ADD MSTORE PUSH1 0xC DUP2 ADD SLOAD PUSH1 0x1 PUSH1 0x1 PUSH1 0xA0 SHL SUB AND PUSH2 0x1A0 DUP5 ADD MSTORE PUSH2 0xA00 PUSH1 0xD DUP3 ADD PUSH2 0x3034 JUMP JUMPDEST PUSH2 0x1C0 DUP5 ADD MSTORE PUSH2 0xA12 PUSH1 0xE DUP3 ADD PUSH2 0x3034 JUMP JUMPDEST PUSH2 0x1E0 DUP5 ADD MSTORE PUSH1 0xF DUP2 ADD SLOAD PUSH1 0x1 PUSH1 0x1 PUSH1 0xA0 SHL SUB AND PUSH2 0x200 DUP5 ADD MSTORE PUSH2 0xA38 PUSH1 0x10 DUP3 ADD PUSH2 0x3034 JUMP JUMPDEST PUSH2 0x220 DUP5 ADD MSTORE PUSH2 0xA4A PUSH1 0x11 DUP3 ADD PUSH2 0x3034 JUMP JUMPDEST PUSH2 0x240 DUP5 ADD MSTORE PUSH1 0x12 DUP2 ADD SLOAD PUSH2 0x260 DUP5 ADD MSTORE PUSH1 0x13 DUP2 ADD SLOAD PUSH2 0x280 DUP5 ADD MSTORE PUSH1 0x14 DUP2 ADD SLOAD PUSH2 0x2A0 DUP5 ADD MSTORE ADD SLOAD PUSH2 0x2C0 DUP3 ADD MSTORE PUSH1 0x40 MLOAD DUP1 SWAP2 PUSH1 0x20 DUP3 MSTORE DUP1 MLOAD PUSH1 0x20 DUP4 ADD MSTORE PUSH2 0x2C0 PUSH2 0xC27 PUSH2 0xC0F PUSH2 0xBE1 PUSH2 0xBC9 PUSH2 0xB9B PUSH2 0xB83 PUSH2 0xB5D PUSH2 0xB1D PUSH2 0xAFC DUP11 DUP13 PUSH1 0x80 PUSH1 0x60 PUSH2 0xAE0 PUSH2 0xACB PUSH1 0x20 DUP7 ADD MLOAD PUSH2 0x2E0 PUSH1 0x40 DUP8 ADD MSTORE PUSH2 0x300 DUP7 ADD SWAP1 PUSH2 0x311D JUMP JUMPDEST PUSH1 0x40 DUP7 ADD MLOAD DUP6 DUP3 SUB PUSH1 0x1F NOT ADD DUP5 DUP8 ADD MSTORE PUSH2 0x311D JUMP JUMPDEST SWAP4 ADD MLOAD SWAP2 ADD MSTORE PUSH1 0x80 DUP13 ADD MLOAD DUP14 DUP3 SUB PUSH1 0x1F NOT ADD PUSH1 0xA0 DUP16 ADD MSTORE PUSH2 0x311D JUMP JUMPDEST PUSH1 0xA0 DUP12 ADD MLOAD PUSH1 0xC0 DUP14 ADD MSTORE PUSH1 0xC0 DUP12 ADD MLOAD DUP13 PUSH1 0xE0 PUSH1 0x1F NOT DUP3 DUP6 SUB ADD SWAP2 ADD MSTORE PUSH2 0x311D JUMP JUMPDEST PUSH1 0xE0 DUP11 ADD MLOAD PUSH2 0xB2B DUP2 PUSH2 0x30DA JUMP JUMPDEST PUSH2 0x100 DUP13 ADD MSTORE PUSH1 0x1 DUP1 PUSH1 0xA0 SHL SUB PUSH2 0x100 DUP12 ADD MLOAD AND PUSH2 0x120 DUP13 ADD MSTORE PUSH2 0x120 DUP11 ADD MLOAD PUSH1 0x1F NOT DUP13 DUP4 SUB ADD PUSH2 0x140 DUP14 ADD MSTORE PUSH2 0x311D JUMP JUMPDEST PUSH2 0x140 DUP10 ADD MLOAD ISZERO ISZERO PUSH2 0x160 DUP12 ADD MSTORE PUSH2 0x160 DUP10 ADD MLOAD PUSH1 0x1F NOT DUP12 DUP4 SUB ADD PUSH2 0x180 DUP13 ADD MSTORE PUSH2 0x311D JUMP JUMPDEST PUSH2 0x180 DUP9 ADD MLOAD DUP10 DUP3 SUB PUSH1 0x1F NOT ADD PUSH2 0x1A0 DUP12 ADD MSTORE PUSH2 0x311D JUMP JUMPDEST PUSH2 0x1A0 DUP8 ADD MLOAD PUSH1 0x1 PUSH1 0x1 PUSH1 0xA0 SHL SUB AND PUSH2 0x1C0 DUP10 DUP2 ADD SWAP2 SWAP1 SWAP2 MSTORE DUP8 ADD MLOAD DUP9 DUP3 SUB PUSH1 0x1F NOT ADD PUSH2 0x1E0 DUP11 ADD MSTORE PUSH2 0x311D JUMP JUMPDEST PUSH2 0x1E0 DUP7 ADD MLOAD DUP8 DUP3 SUB PUSH1 0x1F NOT ADD PUSH2 0x200 DUP10 ADD MSTORE PUSH2 0x311D JUMP JUMPDEST PUSH2 0x200 DUP6 ADD MLOAD PUSH1 0x1 PUSH1 0x1 PUSH1 0xA0 SHL SUB AND PUSH2 0x220 DUP8 DUP2 ADD SWAP2 SWAP1 SWAP2 MSTORE DUP6 ADD MLOAD DUP7 DUP3 SUB PUSH1 0x1F NOT ADD PUSH2 0x240 DUP9 ADD MSTORE PUSH2 0x311D JUMP JUMPDEST PUSH2 0x240 DUP5 ADD MLOAD DUP6 DUP3 SUB PUSH1 0x1F NOT ADD PUSH2 0x260 DUP8 ADD MSTORE PUSH2 0x311D JUMP JUMPDEST SWAP2 PUSH2 0x260 DUP2 ADD MLOAD PUSH2 0x280 DUP6 ADD MSTORE PUSH2 0x280 DUP2 ADD MLOAD PUSH2 0x2A0 DUP6 ADD MSTORE PUSH2 0x2A0 DUP2 ADD MLOAD DUP3 DUP6 ADD MSTORE ADD MLOAD PUSH2 0x2E0 DUP4 ADD MSTORE SUB SWAP1 RETURN JUMPDEST CALLVALUE PUSH2 0x1DF JUMPI PUSH1 0x20 DUP1 PUSH1 0x3 NOT CALLDATASIZE ADD SLT PUSH2 0x1DF JUMPI PUSH1 0x4 CALLDATALOAD DUP1 PUSH1 0x0 MSTORE PUSH1 0x0 DUP3 MSTORE PUSH1 0xFF SWAP1 PUSH2 0xC89 DUP3 PUSH1 0x9 PUSH1 0x40 PUSH1 0x0 KECCAK256 ADD SLOAD AND PUSH2 0x35F1 JUMP JUMPDEST PUSH1 0x0 MSTORE PUSH1 0x1 DUP1 DUP4 MSTORE PUSH1 0x40 PUSH1 0x0 KECCAK256 SWAP3 DUP4 SLOAD PUSH2 0xCA2 DUP2 PUSH2 0x3636 JUMP JUMPDEST SWAP4 PUSH2 0xCB0 PUSH1 0x40 MLOAD SWAP6 DUP7 PUSH2 0x2F08 JUMP JUMPDEST DUP2 DUP6 MSTORE PUSH1 0x0 SWAP6 DUP7 MSTORE DUP3 DUP7 KECCAK256 DUP4 DUP7 ADD SWAP7 SWAP2 DUP8 JUMPDEST DUP5 DUP5 LT PUSH2 0xDA7 JUMPI POP POP POP POP POP PUSH1 0x40 MLOAD SWAP3 DUP2 DUP5 ADD SWAP1 DUP3 DUP6 MSTORE MLOAD DUP1 SWAP2 MSTORE PUSH1 0x40 DUP5 ADD SWAP2 PUSH1 0x40 DUP3 PUSH1 0x5 SHL DUP7 ADD ADD SWAP6 SWAP3 PUSH1 0x0 SWAP1 JUMPDEST DUP4 DUP3 LT PUSH2 0xCFE JUMPI DUP7 DUP9 SUB DUP8 RETURN JUMPDEST SWAP1 SWAP2 SWAP3 SWAP4 SWAP5 DUP4 DUP1 PUSH2 0xD96 DUP4 SWAP11 PUSH1 0x3F NOT DUP12 DUP3 SUB ADD DUP7 MSTORE DUP10 MLOAD SWAP1 DUP2 MLOAD DUP2 MSTORE PUSH1 0x1 DUP1 PUSH1 0xA0 SHL SUB DUP1 DUP6 DUP5 ADD MLOAD AND DUP6 DUP4 ADD MSTORE PUSH1 0x40 DUP4 ADD MLOAD AND PUSH1 0x40 DUP3 ADD MSTORE PUSH1 0x60 DUP1 DUP4 ADD MLOAD SWAP1 PUSH2 0xD46 DUP3 PUSH2 0x30DA JUMP JUMPDEST DUP3 ADD MSTORE PUSH1 0xE0 PUSH2 0xD85 PUSH2 0xD68 PUSH1 0x80 DUP1 DUP7 ADD MLOAD SWAP1 PUSH2 0x100 DUP1 SWAP2 DUP8 ADD MSTORE DUP6 ADD SWAP1 PUSH2 0x311D JUMP JUMPDEST PUSH1 0xA0 DUP1 DUP7 ADD MLOAD SWAP1 DUP6 ADD MSTORE PUSH1 0xC0 DUP1 DUP7 ADD MLOAD SWAP1 DUP6 DUP4 SUB SWAP1 DUP7 ADD MSTORE PUSH2 0x311D JUMP JUMPDEST SWAP3 ADD MLOAD SWAP1 PUSH1 0xE0 DUP2 DUP5 SUB SWAP2 ADD MSTORE PUSH2 0x311D JUMP JUMPDEST SWAP10 SWAP8 ADD SWAP6 SWAP5 SWAP4 SWAP2 SWAP1 SWAP2 ADD SWAP2 ADD PUSH2 0xCF1 JUMP JUMPDEST SWAP6 PUSH1 0x7 DUP7 DUP3 SWAP11 SWAP9 PUSH1 0x40 SWAP11 SWAP9 SWAP11 MLOAD PUSH2 0xDBD DUP2 PUSH2 0x2E9A JUMP JUMPDEST DUP7 SLOAD DUP2 MSTORE DUP5 DUP8 ADD SLOAD PUSH1 0x1 PUSH1 0x1 PUSH1 0xA0 SHL SUB SWAP1 DUP2 AND DUP5 DUP4 ADD MSTORE PUSH1 0x2 DUP9 ADD SLOAD SWAP1 DUP2 AND PUSH1 0x40 DUP4 ADD MSTORE PUSH1 0xA0 SWAP1 DUP2 SHR DUP8 AND PUSH2 0xDF1 DUP2 PUSH2 0x30DA JUMP JUMPDEST PUSH1 0x60 DUP4 ADD MSTORE PUSH2 0xE02 PUSH1 0x3 DUP10 ADD PUSH2 0x3034 JUMP JUMPDEST PUSH1 0x80 DUP4 ADD MSTORE PUSH1 0x4 DUP9 ADD SLOAD SWAP1 DUP3 ADD MSTORE PUSH2 0xE1C PUSH1 0x5 DUP9 ADD PUSH2 0x3034 JUMP JUMPDEST PUSH1 0xC0 DUP3 ADD MSTORE PUSH2 0xE2D PUSH1 0x6 DUP9 ADD PUSH2 0x3034 JUMP JUMPDEST PUSH1 0xE0 DUP3 ADD MSTORE DUP2 MSTORE ADD SWAP4 ADD SWAP4 ADD SWAP3 SWAP2 SWAP8 SWAP6 SWAP8 SWAP7 SWAP5 SWAP7 PUSH2 0xCC2 JUMP JUMPDEST CALLVALUE PUSH2 0x1DF JUMPI PUSH1 0x20 CALLDATASIZE PUSH1 0x3 NOT ADD SLT PUSH2 0x1DF JUMPI PUSH1 0x4 CALLDATALOAD PUSH1 0x0 MSTORE PUSH1 0x0 PUSH1 0x20 MSTORE PUSH1 0x40 PUSH1 0x0 KECCAK256 DUP1 PUSH2 0x180 MSTORE DUP1 SLOAD SWAP1 PUSH1 0x1 ADD PUSH2 0xE7B SWAP1 PUSH2 0x3034 JUMP JUMPDEST PUSH1 0x80 MSTORE PUSH2 0x180 MLOAD PUSH1 0x2 ADD PUSH2 0xE8E SWAP1 PUSH2 0x3034 JUMP JUMPDEST PUSH1 0xC0 MSTORE PUSH2 0x180 MLOAD PUSH1 0x3 DUP2 ADD SLOAD PUSH2 0x100 MSTORE PUSH1 0x4 ADD PUSH2 0xEAA SWAP1 PUSH2 0x3034 JUMP JUMPDEST PUSH2 0x180 MLOAD PUSH1 0x5 DUP2 ADD SLOAD SWAP1 PUSH1 0x6 ADD PUSH2 0xEC0 SWAP1 PUSH2 0x3034 JUMP JUMPDEST PUSH2 0x180 MLOAD PUSH1 0x7 DUP2 ADD SLOAD SWAP1 PUSH1 0x8 ADD PUSH2 0xED6 SWAP1 PUSH2 0x3034 JUMP JUMPDEST PUSH2 0x180 MLOAD PUSH1 0x9 DUP2 ADD SLOAD PUSH1 0xFF AND SWAP1 PUSH1 0xA ADD PUSH2 0xEEF SWAP1 PUSH2 0x3034 JUMP JUMPDEST SWAP2 PUSH2 0x180 MLOAD PUSH1 0xB ADD PUSH2 0xF00 SWAP1 PUSH2 0x3034 JUMP JUMPDEST PUSH2 0x180 MLOAD PUSH1 0xC DUP2 ADD SLOAD PUSH1 0x1 PUSH1 0x1 PUSH1 0xA0 SHL SUB AND SWAP7 SWAP2 SWAP6 SWAP2 SWAP1 PUSH2 0xF23 SWAP1 PUSH1 0xD ADD PUSH2 0x3034 JUMP JUMPDEST SWAP8 PUSH2 0x180 MLOAD PUSH1 0xE ADD PUSH2 0xF34 SWAP1 PUSH2 0x3034 JUMP JUMPDEST PUSH2 0x180 MLOAD PUSH1 0xF DUP2 ADD SLOAD PUSH1 0x1 PUSH1 0x1 PUSH1 0xA0 SHL SUB AND SWAP13 SWAP2 SWAP12 SWAP2 SWAP1 PUSH2 0xF57 SWAP1 PUSH1 0x10 ADD PUSH2 0x3034 JUMP JUMPDEST PUSH2 0x120 MSTORE PUSH2 0x180 MLOAD PUSH1 0x11 ADD PUSH2 0xF6B SWAP1 PUSH2 0x3034 JUMP JUMPDEST PUSH2 0x1C0 MSTORE PUSH2 0x180 MLOAD PUSH1 0x12 DUP2 ADD SLOAD PUSH1 0xE0 MSTORE PUSH1 0x13 DUP2 ADD SLOAD PUSH2 0x160 MSTORE PUSH1 0x14 DUP2 ADD SLOAD PUSH2 0x140 MSTORE PUSH1 0x15 ADD SLOAD PUSH1 0xA0 MSTORE PUSH1 0x40 MLOAD DUP1 PUSH2 0x1A0 MSTORE MSTORE PUSH2 0x2E0 DUP1 PUSH2 0x1A0 MLOAD PUSH1 0x20 ADD MSTORE PUSH2 0x1A0 MLOAD ADD PUSH1 0x80 MLOAD SWAP1 PUSH2 0xFBB SWAP2 PUSH2 0x311D JUMP JUMPDEST PUSH2 0x1A0 MLOAD DUP1 DUP3 SUB SWAP1 PUSH1 0x40 ADD MSTORE PUSH1 0xC0 MLOAD SWAP1 PUSH2 0xFD4 SWAP2 PUSH2 0x311D JUMP JUMPDEST PUSH2 0x100 MLOAD PUSH2 0x1A0 MLOAD PUSH1 0x60 ADD MSTORE PUSH2 0x1A0 MLOAD DUP1 DUP3 SUB SWAP1 PUSH1 0x80 ADD MSTORE PUSH2 0xFF5 SWAP2 PUSH2 0x311D JUMP JUMPDEST SWAP1 PUSH2 0x1A0 MLOAD PUSH1 0xA0 ADD MSTORE PUSH2 0x1A0 MLOAD DUP1 DUP3 SUB SWAP1 PUSH1 0xC0 ADD MSTORE PUSH2 0x1013 SWAP2 PUSH2 0x311D JUMP JUMPDEST SWAP1 PUSH1 0xFF DUP2 AND PUSH2 0x1021 DUP2 PUSH2 0x30DA JUMP JUMPDEST PUSH2 0x1A0 MLOAD PUSH1 0xE0 ADD MSTORE PUSH1 0x1 PUSH1 0xA0 SHL PUSH1 0x1 SWAP1 SUB SWAP1 PUSH1 0x8 SHR AND PUSH2 0x1A0 MLOAD PUSH2 0x100 ADD MSTORE PUSH2 0x1A0 MLOAD DUP1 DUP3 SUB SWAP1 PUSH2 0x120 ADD MSTORE PUSH2 0x1056 SWAP2 PUSH2 0x311D JUMP JUMPDEST SWAP1 ISZERO ISZERO PUSH2 0x1A0 MLOAD PUSH2 0x140 ADD MSTORE PUSH2 0x1A0 MLOAD DUP1 DUP3 SUB SWAP1 PUSH2 0x160 ADD MSTORE PUSH2 0x1078 SWAP2 PUSH2 0x311D JUMP JUMPDEST PUSH2 0x1A0 MLOAD DUP1 DUP3 SUB SWAP1 PUSH2 0x180 ADD MSTORE PUSH2 0x108E SWAP2 PUSH2 0x311D JUMP JUMPDEST SWAP1 PUSH2 0x1A0 MLOAD PUSH2 0x1A0 ADD MSTORE PUSH2 0x1A0 MLOAD DUP1 DUP3 SUB SWAP1 PUSH2 0x1C0 ADD MSTORE PUSH2 0x10AE SWAP2 PUSH2 0x311D JUMP JUMPDEST PUSH2 0x1A0 MLOAD DUP1 DUP3 SUB SWAP1 PUSH2 0x1E0 ADD MSTORE PUSH2 0x10C4 SWAP2 PUSH2 0x311D JUMP JUMPDEST SWAP1 PUSH2 0x1A0 MLOAD PUSH2 0x200 ADD MSTORE PUSH2 0x1A0 MLOAD DUP1 DUP3 SUB SWAP1 PUSH2 0x220 ADD MSTORE PUSH2 0x120 MLOAD SWAP1 PUSH2 0x10E9 SWAP2 PUSH2 0x311D JUMP JUMPDEST PUSH2 0x1A0 MLOAD DUP1 DUP3 SUB SWAP1 PUSH2 0x240 ADD MSTORE PUSH2 0x1C0 MLOAD SWAP1 PUSH2 0x1104 SWAP2 PUSH2 0x311D JUMP JUMPDEST PUSH1 0xE0 MLOAD PUSH2 0x1A0 MLOAD PUSH2 0x260 ADD MSTORE PUSH2 0x160 MLOAD PUSH2 0x1A0 MLOAD PUSH2 0x280 ADD MSTORE PUSH2 0x140 MLOAD PUSH2 0x1A0 MLOAD PUSH2 0x2A0 ADD MSTORE PUSH1 0xA0 MLOAD PUSH2 0x1A0 MLOAD PUSH2 0x2C0 ADD MSTORE PUSH2 0x1A0 MLOAD DUP1 SWAP2 SUB SWAP1 RETURN JUMPDEST CALLVALUE PUSH2 0x1DF JUMPI PUSH1 0x20 DUP1 PUSH1 0x3 NOT CALLDATASIZE ADD SLT PUSH2 0x1DF JUMPI PUSH2 0x115A PUSH2 0x2E84 JUMP JUMPDEST SWAP1 PUSH1 0x0 PUSH1 0x80 PUSH1 0x40 MLOAD PUSH2 0x116B DUP2 PUSH2 0x2EB6 JUMP JUMPDEST DUP3 DUP2 MSTORE DUP3 DUP5 DUP3 ADD MSTORE PUSH1 0x60 PUSH1 0x40 DUP3 ADD MSTORE PUSH1 0x60 DUP1 DUP3 ADD MSTORE ADD MSTORE PUSH1 0x1 DUP1 PUSH1 0xA0 SHL SUB DUP1 SWAP3 AND PUSH1 0x0 MSTORE PUSH1 0x2 DUP2 MSTORE PUSH1 0x40 PUSH1 0x0 KECCAK256 SWAP1 PUSH2 0x1244 PUSH1 0x40 MLOAD SWAP3 PUSH2 0x11A9 DUP5 PUSH2 0x2EB6 JUMP JUMPDEST PUSH2 0x1231 PUSH1 0xFF DUP3 SLOAD DUP8 DUP2 AND DUP8 MSTORE PUSH1 0xA0 SHR AND DUP5 DUP7 ADD SWAP1 PUSH2 0x11C6 DUP2 PUSH2 0x30DA JUMP JUMPDEST DUP2 MSTORE PUSH2 0x11D4 PUSH1 0x1 DUP5 ADD PUSH2 0x3034 JUMP JUMPDEST SWAP1 PUSH1 0x40 DUP8 ADD SWAP2 DUP3 MSTORE PUSH1 0xFF PUSH1 0x3 PUSH2 0x11EC PUSH1 0x2 DUP8 ADD PUSH2 0x3034 JUMP JUMPDEST SWAP6 PUSH1 0x60 DUP11 ADD SWAP7 DUP8 MSTORE ADD SLOAD AND SWAP6 PUSH1 0x80 DUP9 ADD SWAP7 ISZERO ISZERO DUP8 MSTORE PUSH1 0x40 MLOAD SWAP9 DUP10 SWAP9 DUP3 DUP11 MSTORE MLOAD AND SWAP1 DUP9 ADD MSTORE MLOAD PUSH2 0x121A DUP2 PUSH2 0x30DA JUMP JUMPDEST PUSH1 0x40 DUP8 ADD MSTORE MLOAD PUSH1 0xA0 PUSH1 0x60 DUP8 ADD MSTORE PUSH1 0xC0 DUP7 ADD SWAP1 PUSH2 0x311D JUMP JUMPDEST SWAP1 MLOAD DUP5 DUP3 SUB PUSH1 0x1F NOT ADD PUSH1 0x80 DUP7 ADD MSTORE PUSH2 0x311D JUMP JUMPDEST SWAP1 MLOAD ISZERO ISZERO PUSH1 0xA0 DUP4 ADD MSTORE SUB SWAP1 RETURN JUMPDEST CALLVALUE PUSH2 0x1DF JUMPI PUSH2 0x125F CALLDATASIZE PUSH2 0x2F7F JUMP JUMPDEST SWAP2 DUP1 PUSH1 0x0 MSTORE PUSH1 0x20 SWAP1 PUSH1 0x0 DUP3 MSTORE PUSH2 0x127F PUSH1 0xFF PUSH1 0x9 PUSH1 0x40 PUSH1 0x0 KECCAK256 ADD SLOAD AND PUSH2 0x35F1 JUMP JUMPDEST PUSH1 0x0 MSTORE PUSH1 0x0 DUP2 MSTORE PUSH1 0x40 PUSH1 0x0 KECCAK256 SWAP2 PUSH1 0xF DUP4 ADD DUP1 SLOAD PUSH1 0x1 DUP1 PUSH1 0xA0 SHL SUB DUP2 AND PUSH2 0x14DF JUMPI PUSH2 0x12AB DUP4 MLOAD ISZERO ISZERO PUSH2 0x3142 JUMP JUMPDEST PUSH1 0x1 PUSH1 0x1 PUSH1 0xA0 SHL SUB NOT AND CALLER OR SWAP1 SSTORE DUP1 MLOAD PUSH1 0x1 PUSH1 0x1 PUSH1 0x40 SHL SUB SWAP2 SWAP1 PUSH1 0x10 DUP6 ADD SWAP1 DUP4 DUP2 GT PUSH2 0x4F5 JUMPI DUP1 PUSH2 0x12DC DUP4 SLOAD PUSH2 0x2FFA JUMP JUMPDEST SWAP4 PUSH1 0x1F SWAP5 DUP6 DUP2 GT PUSH2 0x1490 JUMPI JUMPDEST POP DUP7 SWAP1 DUP6 DUP4 GT PUSH1 0x1 EQ PUSH2 0x142B JUMPI PUSH1 0x0 SWAP3 PUSH2 0x1420 JUMPI JUMPDEST POP POP DUP2 PUSH1 0x1 SHL SWAP2 PUSH1 0x0 NOT SWAP1 PUSH1 0x3 SHL SHR NOT AND OR SWAP1 SSTORE JUMPDEST PUSH1 0x11 DUP5 ADD SWAP3 DUP6 MLOAD SWAP3 DUP4 GT PUSH2 0x4F5 JUMPI PUSH2 0x132A DUP5 SLOAD PUSH2 0x2FFA JUMP JUMPDEST DUP3 DUP2 GT PUSH2 0x13DD JUMPI JUMPDEST POP DUP1 SWAP2 DUP4 GT PUSH1 0x1 EQ PUSH2 0x1376 JUMPI POP DUP2 SWAP3 SWAP4 SWAP5 PUSH1 0x0 SWAP3 PUSH2 0x136B JUMPI JUMPDEST POP POP DUP2 PUSH1 0x1 SHL SWAP2 PUSH1 0x0 NOT SWAP1 PUSH1 0x3 SHL SHR NOT AND OR SWAP1 SSTORE JUMPDEST PUSH1 0x14 TIMESTAMP SWAP2 ADD SSTORE PUSH1 0x0 DUP1 RETURN JUMPDEST ADD MLOAD SWAP1 POP DUP5 DUP1 PUSH2 0x134B JUMP JUMPDEST SWAP1 PUSH1 0x1F NOT DUP4 AND SWAP6 DUP5 PUSH1 0x0 MSTORE DUP3 PUSH1 0x0 KECCAK256 SWAP3 PUSH1 0x0 SWAP1 JUMPDEST DUP9 DUP3 LT PUSH2 0x13C5 JUMPI POP POP DUP4 PUSH1 0x1 SWAP6 SWAP7 SWAP8 LT PUSH2 0x13AC JUMPI JUMPDEST POP POP POP DUP2 SHL ADD SWAP1 SSTORE PUSH2 0x1360 JUMP JUMPDEST ADD MLOAD PUSH1 0x0 NOT PUSH1 0xF8 DUP5 PUSH1 0x3 SHL AND SHR NOT AND SWAP1 SSTORE DUP5 DUP1 DUP1 PUSH2 0x139F JUMP JUMPDEST DUP1 PUSH1 0x1 DUP6 SWAP7 DUP3 SWAP5 SWAP7 DUP7 ADD MLOAD DUP2 SSTORE ADD SWAP6 ADD SWAP4 ADD SWAP1 PUSH2 0x138A JUMP JUMPDEST DUP5 PUSH1 0x0 MSTORE DUP2 PUSH1 0x0 KECCAK256 DUP4 DUP1 DUP7 ADD PUSH1 0x5 SHR DUP3 ADD SWAP3 DUP5 DUP8 LT PUSH2 0x1417 JUMPI JUMPDEST ADD PUSH1 0x5 SHR ADD SWAP1 JUMPDEST DUP2 DUP2 LT PUSH2 0x140B JUMPI POP PUSH2 0x1332 JUMP JUMPDEST PUSH1 0x0 DUP2 SSTORE PUSH1 0x1 ADD PUSH2 0x13FE JUMP JUMPDEST SWAP3 POP DUP2 SWAP3 PUSH2 0x13F7 JUMP JUMPDEST ADD MLOAD SWAP1 POP DUP9 DUP1 PUSH2 0x12FD JUMP JUMPDEST PUSH1 0x0 DUP6 DUP2 MSTORE DUP9 DUP2 KECCAK256 SWAP4 POP PUSH1 0x1F NOT DUP6 AND SWAP1 JUMPDEST DUP10 DUP3 DUP3 LT PUSH2 0x147A JUMPI POP POP SWAP1 DUP5 PUSH1 0x1 SWAP6 SWAP5 SWAP4 SWAP3 LT PUSH2 0x1461 JUMPI JUMPDEST POP POP POP DUP2 SHL ADD SWAP1 SSTORE PUSH2 0x1312 JUMP JUMPDEST ADD MLOAD PUSH1 0x0 NOT PUSH1 0xF8 DUP5 PUSH1 0x3 SHL AND SHR NOT AND SWAP1 SSTORE DUP9 DUP1 DUP1 PUSH2 0x1454 JUMP JUMPDEST PUSH1 0x1 DUP6 SWAP7 DUP3 SWAP4 SWAP7 DUP7 ADD MLOAD DUP2 SSTORE ADD SWAP6 ADD SWAP4 ADD PUSH2 0x143C JUMP JUMPDEST SWAP1 SWAP2 POP DUP4 PUSH1 0x0 MSTORE DUP7 PUSH1 0x0 KECCAK256 DUP6 DUP1 DUP6 ADD PUSH1 0x5 SHR DUP3 ADD SWAP3 DUP10 DUP7 LT PUSH2 0x14D6 JUMPI JUMPDEST SWAP1 DUP6 SWAP5 SWAP4 SWAP3 SWAP2 ADD PUSH1 0x5 SHR ADD SWAP1 JUMPDEST DUP2 DUP2 LT PUSH2 0x14C7 JUMPI POP PUSH2 0x12E8 JUMP JUMPDEST PUSH1 0x0 DUP2 SSTORE DUP5 SWAP4 POP PUSH1 0x1 ADD PUSH2 0x14BA JUMP JUMPDEST SWAP3 POP DUP2 SWAP3 PUSH2 0x14AD JUMP JUMPDEST PUSH1 0x40 MLOAD PUSH3 0x461BCD PUSH1 0xE5 SHL DUP2 MSTORE PUSH1 0x4 DUP2 ADD DUP6 SWAP1 MSTORE PUSH1 0x14 PUSH1 0x24 DUP3 ADD MSTORE PUSH20 0x14995D185A5B195C88185B1C9958591E481CD95D PUSH1 0x62 SHL PUSH1 0x44 DUP3 ADD MSTORE PUSH1 0x64 SWAP1 REVERT JUMPDEST CALLVALUE PUSH2 0x1DF JUMPI PUSH1 0x40 CALLDATASIZE PUSH1 0x3 NOT ADD SLT PUSH2 0x1DF JUMPI PUSH1 0x24 CALLDATALOAD PUSH1 0x4 CALLDATALOAD PUSH1 0x0 MSTORE PUSH1 0x1 PUSH1 0x20 MSTORE PUSH1 0x40 PUSH1 0x0 KECCAK256 SWAP1 DUP2 SLOAD DUP2 LT ISZERO PUSH2 0x1DF JUMPI PUSH2 0x1552 SWAP2 PUSH2 0x2FC8 JUMP JUMPDEST POP DUP1 SLOAD PUSH1 0x1 DUP3 ADD SLOAD PUSH1 0x2 DUP4 ADD SLOAD PUSH1 0x1 PUSH1 0x1 PUSH1 0xA0 SHL SUB SWAP2 DUP3 AND SWAP4 PUSH2 0x15FD SWAP3 PUSH2 0x15EF SWAP2 PUSH2 0x15DC PUSH1 0xA0 DUP6 SWAP1 SHR PUSH1 0xFF AND PUSH2 0x158A PUSH1 0x3 DUP5 ADD PUSH2 0x3034 JUMP JUMPDEST SWAP1 PUSH1 0x4 DUP5 ADD SLOAD SWAP5 PUSH2 0x15A9 PUSH1 0x6 PUSH2 0x15A2 PUSH1 0x5 DUP9 ADD PUSH2 0x3034 JUMP JUMPDEST SWAP7 ADD PUSH2 0x3034 JUMP JUMPDEST SWAP8 PUSH1 0x40 MLOAD SWAP12 DUP13 SWAP12 DUP13 MSTORE PUSH1 0x20 DUP13 ADD MSTORE AND PUSH1 0x40 DUP11 ADD MSTORE PUSH2 0x15C6 DUP2 PUSH2 0x30DA JUMP JUMPDEST PUSH1 0x60 DUP10 ADD MSTORE PUSH2 0x100 DUP1 PUSH1 0x80 DUP11 ADD MSTORE DUP9 ADD SWAP1 PUSH2 0x311D JUMP JUMPDEST SWAP2 PUSH1 0xA0 DUP8 ADD MSTORE DUP6 DUP3 SUB PUSH1 0xC0 DUP8 ADD MSTORE PUSH2 0x311D JUMP JUMPDEST SWAP1 DUP4 DUP3 SUB PUSH1 0xE0 DUP6 ADD MSTORE PUSH2 0x311D JUMP JUMPDEST SUB SWAP1 RETURN JUMPDEST CALLVALUE PUSH2 0x1DF JUMPI PUSH1 0x0 CALLDATASIZE PUSH1 0x3 NOT ADD SLT PUSH2 0x1DF JUMPI PUSH1 0x20 PUSH1 0x3 SLOAD PUSH1 0x40 MLOAD SWAP1 DUP2 MSTORE RETURN JUMPDEST CALLVALUE PUSH2 0x1DF JUMPI PUSH1 0xE0 CALLDATASIZE PUSH1 0x3 NOT ADD SLT PUSH2 0x1DF JUMPI PUSH1 0x4 CALLDATALOAD PUSH1 0x1 PUSH1 0x1 PUSH1 0x40 SHL SUB DUP2 GT PUSH2 0x1DF JUMPI PUSH2 0x164F SWAP1 CALLDATASIZE SWAP1 PUSH1 0x4 ADD PUSH2 0x2F29 JUMP JUMPDEST PUSH1 0x24 CALLDATALOAD PUSH1 0x1 PUSH1 0x1 PUSH1 0x40 SHL SUB DUP2 GT PUSH2 0x1DF JUMPI PUSH2 0x166E SWAP1 CALLDATASIZE SWAP1 PUSH1 0x4 ADD PUSH2 0x2F29 JUMP JUMPDEST PUSH1 0x64 CALLDATALOAD PUSH1 0x1 PUSH1 0x1 PUSH1 0x40 SHL SUB DUP2 GT PUSH2 0x1DF JUMPI PUSH2 0x168D SWAP1 CALLDATASIZE SWAP1 PUSH1 0x4 ADD PUSH2 0x2F29 JUMP JUMPDEST SWAP2 PUSH1 0xA4 CALLDATALOAD PUSH1 0x1 PUSH1 0x1 PUSH1 0x40 SHL SUB DUP2 GT PUSH2 0x1DF JUMPI PUSH2 0x16AD SWAP1 CALLDATASIZE SWAP1 PUSH1 0x4 ADD PUSH2 0x2F29 JUMP JUMPDEST SWAP2 PUSH1 0xC4 CALLDATALOAD PUSH1 0x1 PUSH1 0x1 PUSH1 0x40 SHL SUB DUP2 GT PUSH2 0x1DF JUMPI PUSH2 0x16CD SWAP1 CALLDATASIZE SWAP1 PUSH1 0x4 ADD PUSH2 0x2F29 JUMP JUMPDEST SWAP1 CALLER PUSH1 0x0 MSTORE PUSH1 0x2 PUSH1 0x20 MSTORE PUSH2 0x16EB PUSH1 0xFF PUSH1 0x3 PUSH1 0x40 PUSH1 0x0 KECCAK256 ADD SLOAD AND PUSH2 0x317E JUMP JUMPDEST CALLER PUSH1 0x0 MSTORE PUSH1 0x2 PUSH1 0x20 MSTORE PUSH1 0xFF PUSH1 0x40 PUSH1 0x0 KECCAK256 SLOAD PUSH1 0xA0 SHR AND PUSH2 0x1709 DUP2 PUSH2 0x30DA JUMP JUMPDEST PUSH2 0x273D JUMPI PUSH2 0x1718 PUSH1 0x3 SLOAD PUSH2 0x31CA JUMP JUMPDEST SWAP4 DUP5 PUSH1 0x3 SSTORE CALLER PUSH1 0x0 MSTORE PUSH1 0x2 PUSH1 0x20 MSTORE PUSH1 0x40 PUSH1 0x0 KECCAK256 SWAP1 PUSH1 0x40 MLOAD PUSH2 0x1738 DUP2 PUSH2 0x2EB6 JUMP JUMPDEST DUP3 SLOAD PUSH1 0x1 PUSH1 0x1 PUSH1 0xA0 SHL SUB DUP2 AND DUP3 MSTORE PUSH1 0xA0 SHR PUSH1 0xFF AND PUSH2 0x1755 DUP2 PUSH2 0x30DA JUMP JUMPDEST PUSH1 0x20 DUP3 ADD MSTORE PUSH2 0x1766 PUSH1 0x1 DUP5 ADD PUSH2 0x3034 JUMP JUMPDEST SWAP1 PUSH1 0x40 DUP2 ADD SWAP2 DUP3 MSTORE PUSH1 0x80 PUSH1 0xFF PUSH1 0x3 PUSH2 0x1780 PUSH1 0x2 DUP9 ADD PUSH2 0x3034 JUMP JUMPDEST SWAP7 DUP8 PUSH1 0x60 DUP7 ADD MSTORE ADD SLOAD AND ISZERO ISZERO SWAP2 ADD MSTORE MLOAD SWAP1 PUSH1 0x40 MLOAD SWAP4 PUSH2 0x179E DUP6 PUSH2 0x2ED1 JUMP JUMPDEST DUP8 DUP6 MSTORE DUP7 PUSH1 0x20 DUP7 ADD MSTORE PUSH1 0x40 DUP6 ADD MSTORE PUSH1 0x44 CALLDATALOAD PUSH1 0x60 DUP6 ADD MSTORE DUP8 PUSH1 0x80 DUP6 ADD MSTORE PUSH1 0x84 CALLDATALOAD PUSH1 0xA0 DUP6 ADD MSTORE PUSH1 0xC0 DUP5 ADD MSTORE PUSH1 0x0 PUSH1 0xE0 DUP5 ADD MSTORE CALLER PUSH2 0x100 DUP5 ADD MSTORE DUP4 PUSH2 0x120 DUP5 ADD MSTORE PUSH1 0x1 PUSH2 0x140 DUP5 ADD MSTORE PUSH2 0x160 DUP4 ADD MSTORE PUSH2 0x180 DUP3 ADD MSTORE PUSH1 0x0 PUSH2 0x1A0 DUP3 ADD MSTORE PUSH1 0x40 MLOAD PUSH2 0x1804 DUP2 PUSH2 0x2EED JUMP JUMPDEST PUSH1 0x0 DUP2 MSTORE PUSH2 0x1C0 DUP3 ADD MSTORE PUSH1 0x40 MLOAD PUSH2 0x181A DUP2 PUSH2 0x2EED JUMP JUMPDEST PUSH1 0x0 DUP2 MSTORE PUSH2 0x1E0 DUP3 ADD MSTORE PUSH1 0x0 PUSH2 0x200 DUP3 ADD MSTORE PUSH1 0x40 MLOAD PUSH2 0x1838 DUP2 PUSH2 0x2EED JUMP JUMPDEST PUSH1 0x0 DUP2 MSTORE PUSH2 0x220 DUP3 ADD MSTORE PUSH1 0x40 MLOAD PUSH2 0x184E DUP2 PUSH2 0x2EED JUMP JUMPDEST PUSH1 0x0 DUP2 MSTORE PUSH2 0x240 DUP3 ADD MSTORE TIMESTAMP PUSH2 0x260 DUP3 ADD MSTORE PUSH1 0x0 PUSH2 0x280 DUP3 ADD MSTORE PUSH1 0x0 PUSH2 0x2A0 DUP3 ADD MSTORE PUSH1 0x0 PUSH2 0x2C0 DUP3 ADD MSTORE DUP4 PUSH1 0x0 MSTORE PUSH1 0x0 PUSH1 0x20 MSTORE PUSH1 0x40 PUSH1 0x0 KECCAK256 SWAP1 DUP1 MLOAD DUP3 SSTORE PUSH1 0x20 DUP2 ADD MLOAD DUP1 MLOAD SWAP1 PUSH1 0x1 PUSH1 0x1 PUSH1 0x40 SHL SUB DUP3 GT PUSH2 0x4F5 JUMPI DUP2 SWAP1 PUSH2 0x18AF PUSH1 0x1 DUP7 ADD SLOAD PUSH2 0x2FFA JUMP JUMPDEST PUSH1 0x1F DUP2 GT PUSH2 0x26EA JUMPI JUMPDEST POP PUSH1 0x20 SWAP1 PUSH1 0x1F DUP4 GT PUSH1 0x1 EQ PUSH2 0x2678 JUMPI PUSH1 0x0 SWAP3 PUSH2 0x266D JUMPI JUMPDEST POP POP DUP2 PUSH1 0x1 SHL SWAP2 PUSH1 0x0 NOT SWAP1 PUSH1 0x3 SHL SHR NOT AND OR PUSH1 0x1 DUP4 ADD SSTORE JUMPDEST PUSH1 0x40 DUP2 ADD MLOAD DUP1 MLOAD SWAP1 PUSH1 0x1 PUSH1 0x1 PUSH1 0x40 SHL SUB DUP3 GT PUSH2 0x4F5 JUMPI DUP2 SWAP1 PUSH2 0x190C PUSH1 0x2 DUP7 ADD SLOAD PUSH2 0x2FFA JUMP JUMPDEST PUSH1 0x1F DUP2 GT PUSH2 0x261A JUMPI JUMPDEST POP PUSH1 0x20 SWAP1 PUSH1 0x1F DUP4 GT PUSH1 0x1 EQ PUSH2 0x25A8 JUMPI PUSH1 0x0 SWAP3 PUSH2 0x259D JUMPI JUMPDEST POP POP DUP2 PUSH1 0x1 SHL SWAP2 PUSH1 0x0 NOT SWAP1 PUSH1 0x3 SHL SHR NOT AND OR PUSH1 0x2 DUP4 ADD SSTORE JUMPDEST PUSH1 0x60 DUP2 ADD MLOAD PUSH1 0x3 DUP4 ADD SSTORE PUSH1 0x80 DUP2 ADD MLOAD DUP1 MLOAD SWAP1 PUSH1 0x1 PUSH1 0x1 PUSH1 0x40 SHL SUB DUP3 GT PUSH2 0x4F5 JUMPI DUP2 SWAP1 PUSH2 0x1973 PUSH1 0x4 DUP7 ADD SLOAD PUSH2 0x2FFA JUMP JUMPDEST PUSH1 0x1F DUP2 GT PUSH2 0x254A JUMPI JUMPDEST POP PUSH1 0x20 SWAP1 PUSH1 0x1F DUP4 GT PUSH1 0x1 EQ PUSH2 0x24D8 JUMPI PUSH1 0x0 SWAP3 PUSH2 0x24CD JUMPI JUMPDEST POP POP DUP2 PUSH1 0x1 SHL SWAP2 PUSH1 0x0 NOT SWAP1 PUSH1 0x3 SHL SHR NOT AND OR PUSH1 0x4 DUP4 ADD SSTORE JUMPDEST PUSH1 0xA0 DUP2 ADD MLOAD PUSH1 0x5 DUP4 ADD SSTORE PUSH1 0xC0 DUP2 ADD MLOAD DUP1 MLOAD SWAP1 PUSH1 0x1 PUSH1 0x1 PUSH1 0x40 SHL SUB DUP3 GT PUSH2 0x4F5 JUMPI DUP2 SWAP1 PUSH2 0x19DA PUSH1 0x6 DUP7 ADD SLOAD PUSH2 0x2FFA JUMP JUMPDEST PUSH1 0x1F DUP2 GT PUSH2 0x247A JUMPI JUMPDEST POP PUSH1 0x20 SWAP1 PUSH1 0x1F DUP4 GT PUSH1 0x1 EQ PUSH2 0x2408 JUMPI PUSH1 0x0 SWAP3 PUSH2 0x23FD JUMPI JUMPDEST POP POP DUP2 PUSH1 0x1 SHL SWAP2 PUSH1 0x0 NOT SWAP1 PUSH1 0x3 SHL SHR NOT AND OR PUSH1 0x6 DUP4 ADD SSTORE JUMPDEST PUSH1 0x7 DUP3 ADD PUSH2 0x1A2D PUSH1 0xE0 DUP4 ADD MLOAD PUSH2 0x1A27 DUP2 PUSH2 0x30DA JUMP JUMPDEST DUP3 PUSH2 0x31EF JUMP JUMPDEST PUSH2 0x100 DUP3 ADD MLOAD DUP2 SLOAD PUSH2 0x100 PUSH1 0x1 PUSH1 0xA8 SHL SUB NOT AND PUSH1 0x8 SWAP2 SWAP1 SWAP2 SHL PUSH2 0x100 PUSH1 0x1 PUSH1 0xA8 SHL SUB AND OR SWAP1 SSTORE PUSH2 0x120 DUP2 ADD MLOAD DUP1 MLOAD SWAP1 PUSH1 0x1 PUSH1 0x1 PUSH1 0x40 SHL SUB DUP3 GT PUSH2 0x4F5 JUMPI DUP2 SWAP1 PUSH2 0x1A79 PUSH1 0x8 DUP7 ADD SLOAD PUSH2 0x2FFA JUMP JUMPDEST PUSH1 0x1F DUP2 GT PUSH2 0x23AA JUMPI JUMPDEST POP PUSH1 0x20 SWAP1 PUSH1 0x1F DUP4 GT PUSH1 0x1 EQ PUSH2 0x2338 JUMPI PUSH1 0x0 SWAP3 PUSH2 0x232D JUMPI JUMPDEST POP POP DUP2 PUSH1 0x1 SHL SWAP2 PUSH1 0x0 NOT SWAP1 PUSH1 0x3 SHL SHR NOT AND OR PUSH1 0x8 DUP4 ADD SSTORE JUMPDEST PUSH2 0x1AD1 PUSH2 0x140 DUP3 ADD MLOAD ISZERO ISZERO PUSH1 0x9 DUP5 ADD SWAP1 PUSH1 0xFF DUP1 NOT DUP4 SLOAD AND SWAP2 ISZERO ISZERO AND OR SWAP1 SSTORE JUMP JUMPDEST PUSH2 0x160 DUP2 ADD MLOAD DUP1 MLOAD SWAP1 PUSH1 0x1 PUSH1 0x1 PUSH1 0x40 SHL SUB DUP3 GT PUSH2 0x4F5 JUMPI DUP2 SWAP1 PUSH2 0x1AF7 PUSH1 0xA DUP7 ADD SLOAD PUSH2 0x2FFA JUMP JUMPDEST PUSH1 0x1F DUP2 GT PUSH2 0x22DA JUMPI JUMPDEST POP PUSH1 0x20 SWAP1 PUSH1 0x1F DUP4 GT PUSH1 0x1 EQ PUSH2 0x2268 JUMPI PUSH1 0x0 SWAP3 PUSH2 0x225D JUMPI JUMPDEST POP POP DUP2 PUSH1 0x1 SHL SWAP2 PUSH1 0x0 NOT SWAP1 PUSH1 0x3 SHL SHR NOT AND OR PUSH1 0xA DUP4 ADD SSTORE JUMPDEST PUSH2 0x180 DUP2 ADD MLOAD DUP1 MLOAD SWAP1 PUSH1 0x1 PUSH1 0x1 PUSH1 0x40 SHL SUB DUP3 GT PUSH2 0x4F5 JUMPI DUP2 SWAP1 PUSH2 0x1B55 PUSH1 0xB DUP7 ADD SLOAD PUSH2 0x2FFA JUMP JUMPDEST PUSH1 0x1F DUP2 GT PUSH2 0x220A JUMPI JUMPDEST POP PUSH1 0x20 SWAP1 PUSH1 0x1F DUP4 GT PUSH1 0x1 EQ PUSH2 0x2198 JUMPI PUSH1 0x0 SWAP3 PUSH2 0x218D JUMPI JUMPDEST POP POP DUP2 PUSH1 0x1 SHL SWAP2 PUSH1 0x0 NOT SWAP1 PUSH1 0x3 SHL SHR NOT AND OR PUSH1 0xB DUP4 ADD SSTORE JUMPDEST PUSH1 0xC DUP3 ADD PUSH1 0x1 DUP1 PUSH1 0xA0 SHL SUB PUSH2 0x1A0 DUP4 ADD MLOAD AND PUSH12 0xFFFFFFFFFFFFFFFFFFFFFFFF PUSH1 0xA0 SHL DUP3 SLOAD AND OR SWAP1 SSTORE PUSH2 0x1C0 DUP2 ADD MLOAD DUP1 MLOAD SWAP1 PUSH1 0x1 PUSH1 0x1 PUSH1 0x40 SHL SUB DUP3 GT PUSH2 0x4F5 JUMPI DUP2 SWAP1 PUSH2 0x1BDB PUSH1 0xD DUP7 ADD SLOAD PUSH2 0x2FFA JUMP JUMPDEST PUSH1 0x1F DUP2 GT PUSH2 0x213A JUMPI JUMPDEST POP PUSH1 0x20 SWAP1 PUSH1 0x1F DUP4 GT PUSH1 0x1 EQ PUSH2 0x20C8 JUMPI PUSH1 0x0 SWAP3 PUSH2 0x20BD JUMPI JUMPDEST POP POP DUP2 PUSH1 0x1 SHL SWAP2 PUSH1 0x0 NOT SWAP1 PUSH1 0x3 SHL SHR NOT AND OR PUSH1 0xD DUP4 ADD SSTORE JUMPDEST PUSH2 0x1E0 DUP2 ADD MLOAD DUP1 MLOAD SWAP1 PUSH1 0x1 PUSH1 0x1 PUSH1 0x40 SHL SUB DUP3 GT PUSH2 0x4F5 JUMPI DUP2 SWAP1 PUSH2 0x1C39 PUSH1 0xE DUP7 ADD SLOAD PUSH2 0x2FFA JUMP JUMPDEST PUSH1 0x1F DUP2 GT PUSH2 0x206A JUMPI JUMPDEST POP PUSH1 0x20 SWAP1 PUSH1 0x1F DUP4 GT PUSH1 0x1 EQ PUSH2 0x1FF8 JUMPI PUSH1 0x0 SWAP3 PUSH2 0x1FED JUMPI JUMPDEST POP POP DUP2 PUSH1 0x1 SHL SWAP2 PUSH1 0x0 NOT SWAP1 PUSH1 0x3 SHL SHR NOT AND OR PUSH1 0xE DUP4 ADD SSTORE JUMPDEST PUSH1 0xF DUP3 ADD PUSH1 0x1 DUP1 PUSH1 0xA0 SHL SUB PUSH2 0x200 DUP4 ADD MLOAD AND PUSH12 0xFFFFFFFFFFFFFFFFFFFFFFFF PUSH1 0xA0 SHL DUP3 SLOAD AND OR SWAP1 SSTORE PUSH2 0x220 DUP2 ADD MLOAD DUP1 MLOAD SWAP1 PUSH1 0x1 PUSH1 0x1 PUSH1 0x40 SHL SUB DUP3 GT PUSH2 0x4F5 JUMPI DUP2 SWAP1 PUSH2 0x1CBF PUSH1 0x10 DUP7 ADD SLOAD PUSH2 0x2FFA JUMP JUMPDEST PUSH1 0x1F DUP2 GT PUSH2 0x1F9A JUMPI JUMPDEST POP PUSH1 0x20 SWAP1 PUSH1 0x1F DUP4 GT PUSH1 0x1 EQ PUSH2 0x1F28 JUMPI PUSH1 0x0 SWAP3 PUSH2 0x1F1D JUMPI JUMPDEST POP POP DUP2 PUSH1 0x1 SHL SWAP2 PUSH1 0x0 NOT SWAP1 PUSH1 0x3 SHL SHR NOT AND OR PUSH1 0x10 DUP4 ADD SSTORE JUMPDEST PUSH2 0x240 DUP2 ADD MLOAD DUP1 MLOAD SWAP1 PUSH1 0x1 PUSH1 0x1 PUSH1 0x40 SHL SUB DUP3 GT PUSH2 0x4F5 JUMPI PUSH2 0x1D1B PUSH1 0x11 DUP6 ADD SLOAD PUSH2 0x2FFA JUMP JUMPDEST PUSH1 0x1F DUP2 GT PUSH2 0x1ED6 JUMPI JUMPDEST POP PUSH1 0x20 SWAP1 PUSH1 0x1F DUP4 GT PUSH1 0x1 EQ PUSH2 0x1E60 JUMPI SWAP2 DUP1 PUSH1 0x15 SWAP5 SWAP3 PUSH2 0x2C0 SWAP5 PUSH1 0x0 SWAP3 PUSH2 0x1E55 JUMPI JUMPDEST POP POP DUP2 PUSH1 0x1 SHL SWAP2 PUSH1 0x0 NOT SWAP1 PUSH1 0x3 SHL SHR NOT AND OR PUSH1 0x11 DUP6 ADD SSTORE JUMPDEST PUSH2 0x260 DUP2 ADD MLOAD PUSH1 0x12 DUP6 ADD SSTORE PUSH2 0x280 DUP2 ADD MLOAD PUSH1 0x13 DUP6 ADD SSTORE PUSH2 0x2A0 DUP2 ADD MLOAD PUSH1 0x14 DUP6 ADD SSTORE ADD MLOAD SWAP2 ADD SSTORE DUP3 PUSH1 0x0 MSTORE PUSH1 0x1 PUSH1 0x20 MSTORE PUSH1 0x40 PUSH1 0x0 KECCAK256 SWAP4 PUSH1 0x40 MLOAD SWAP1 PUSH2 0x1D9F DUP3 PUSH2 0x2E9A JUMP JUMPDEST DUP5 DUP3 MSTORE PUSH1 0x0 PUSH1 0x20 DUP4 ADD MSTORE CALLER PUSH1 0x40 DUP4 ADD MSTORE PUSH1 0x0 PUSH1 0x60 DUP4 ADD MSTORE PUSH1 0x80 DUP3 ADD MSTORE TIMESTAMP PUSH1 0xA0 DUP3 ADD MSTORE PUSH1 0x40 MLOAD SWAP5 PUSH1 0x40 DUP7 ADD SWAP3 DUP7 DUP5 LT PUSH1 0x1 PUSH1 0x1 PUSH1 0x40 SHL SUB DUP6 GT OR PUSH2 0x4F5 JUMPI PUSH1 0x20 SWAP7 PUSH2 0x1E08 SWAP5 PUSH1 0x40 MSTORE PUSH1 0x7 DUP2 MSTORE PUSH7 0x1A185C9D995CDD PUSH1 0xCA SHL DUP9 DUP3 ADD MSTORE PUSH1 0xC0 DUP5 ADD MSTORE PUSH1 0xE0 DUP4 ADD MSTORE PUSH2 0x3207 JUMP JUMPDEST DUP2 PUSH32 0x5B750C34FF65E7500B4250EF0DB18CF3A3F0D4CE3131EF7E64D457B0BEA7236F PUSH2 0x1E3F PUSH1 0x40 MLOAD SWAP4 PUSH1 0x40 DUP6 MSTORE PUSH1 0x40 DUP6 ADD SWAP1 PUSH2 0x311D JUMP JUMPDEST SWAP3 PUSH1 0x84 CALLDATALOAD DUP7 DUP3 ADD MSTORE DUP1 CALLER SWAP5 SUB SWAP1 LOG3 PUSH1 0x40 MLOAD SWAP1 DUP2 MSTORE RETURN JUMPDEST ADD MLOAD SWAP1 POP DUP11 DUP1 PUSH2 0x1D45 JUMP JUMPDEST SWAP1 PUSH1 0x11 DUP6 ADD PUSH1 0x0 MSTORE PUSH1 0x20 PUSH1 0x0 KECCAK256 SWAP2 PUSH1 0x0 JUMPDEST PUSH1 0x1F NOT DUP6 AND DUP2 LT PUSH2 0x1EBE JUMPI POP SWAP3 PUSH1 0x15 SWAP5 SWAP3 PUSH1 0x1 SWAP3 PUSH2 0x2C0 SWAP6 DUP4 PUSH1 0x1F NOT DUP2 AND LT PUSH2 0x1EA5 JUMPI JUMPDEST POP POP POP DUP2 SHL ADD PUSH1 0x11 DUP6 ADD SSTORE PUSH2 0x1D5D JUMP JUMPDEST ADD MLOAD PUSH1 0x0 NOT PUSH1 0xF8 DUP5 PUSH1 0x3 SHL AND SHR NOT AND SWAP1 SSTORE DUP11 DUP1 DUP1 PUSH2 0x1E95 JUMP JUMPDEST SWAP2 SWAP3 PUSH1 0x20 PUSH1 0x1 DUP2 SWAP3 DUP7 DUP6 ADD MLOAD DUP2 SSTORE ADD SWAP5 ADD SWAP3 ADD PUSH2 0x1E71 JUMP JUMPDEST PUSH1 0x11 DUP6 ADD PUSH1 0x0 MSTORE PUSH1 0x20 PUSH1 0x0 KECCAK256 PUSH1 0x1F DUP5 ADD PUSH1 0x5 SHR DUP2 ADD PUSH1 0x20 DUP6 LT PUSH2 0x1F16 JUMPI JUMPDEST PUSH1 0x1F DUP4 ADD PUSH1 0x5 SHR DUP3 ADD DUP2 LT PUSH2 0x1F0A JUMPI POP POP PUSH2 0x1D24 JUMP JUMPDEST PUSH1 0x0 DUP2 SSTORE PUSH1 0x1 ADD PUSH2 0x1EF4 JUMP JUMPDEST POP DUP1 PUSH2 0x1EF4 JUMP JUMPDEST ADD MLOAD SWAP1 POP DUP9 DUP1 PUSH2 0x1CDF JUMP JUMPDEST SWAP3 POP PUSH1 0x10 DUP6 ADD PUSH1 0x0 MSTORE PUSH1 0x20 PUSH1 0x0 KECCAK256 SWAP1 PUSH1 0x0 SWAP4 JUMPDEST PUSH1 0x1F NOT DUP5 AND DUP6 LT PUSH2 0x1F7F JUMPI PUSH1 0x1 SWAP5 POP DUP4 PUSH1 0x1F NOT DUP2 AND LT PUSH2 0x1F66 JUMPI JUMPDEST POP POP POP DUP2 SHL ADD PUSH1 0x10 DUP4 ADD SSTORE PUSH2 0x1CF7 JUMP JUMPDEST ADD MLOAD PUSH1 0x0 NOT PUSH1 0xF8 DUP5 PUSH1 0x3 SHL AND SHR NOT AND SWAP1 SSTORE DUP9 DUP1 DUP1 PUSH2 0x1F56 JUMP JUMPDEST DUP2 DUP2 ADD MLOAD DUP4 SSTORE PUSH1 0x20 SWAP5 DUP6 ADD SWAP5 PUSH1 0x1 SWAP1 SWAP4 ADD SWAP3 SWAP1 SWAP2 ADD SWAP1 PUSH2 0x1F3B JUMP JUMPDEST SWAP1 SWAP2 POP PUSH1 0x10 DUP6 ADD PUSH1 0x0 MSTORE PUSH1 0x20 PUSH1 0x0 KECCAK256 PUSH1 0x1F DUP5 ADD PUSH1 0x5 SHR DUP2 ADD PUSH1 0x20 DUP6 LT PUSH2 0x1FE6 JUMPI JUMPDEST SWAP1 DUP5 SWAP4 SWAP3 SWAP2 JUMPDEST PUSH1 0x1F DUP4 ADD PUSH1 0x5 SHR DUP3 ADD DUP2 LT PUSH2 0x1FD7 JUMPI POP POP PUSH2 0x1CC8 JUMP JUMPDEST PUSH1 0x0 DUP2 SSTORE DUP6 SWAP5 POP PUSH1 0x1 ADD PUSH2 0x1FC1 JUMP JUMPDEST POP DUP1 PUSH2 0x1FBB JUMP JUMPDEST ADD MLOAD SWAP1 POP DUP9 DUP1 PUSH2 0x1C59 JUMP JUMPDEST SWAP3 POP PUSH1 0xE DUP6 ADD PUSH1 0x0 MSTORE PUSH1 0x20 PUSH1 0x0 KECCAK256 SWAP1 PUSH1 0x0 SWAP4 JUMPDEST PUSH1 0x1F NOT DUP5 AND DUP6 LT PUSH2 0x204F JUMPI PUSH1 0x1 SWAP5 POP DUP4 PUSH1 0x1F NOT DUP2 AND LT PUSH2 0x2036 JUMPI JUMPDEST POP POP POP DUP2 SHL ADD PUSH1 0xE DUP4 ADD SSTORE PUSH2 0x1C71 JUMP JUMPDEST ADD MLOAD PUSH1 0x0 NOT PUSH1 0xF8 DUP5 PUSH1 0x3 SHL AND SHR NOT AND SWAP1 SSTORE DUP9 DUP1 DUP1 PUSH2 0x2026 JUMP JUMPDEST DUP2 DUP2 ADD MLOAD DUP4 SSTORE PUSH1 0x20 SWAP5 DUP6 ADD SWAP5 PUSH1 0x1 SWAP1 SWAP4 ADD SWAP3 SWAP1 SWAP2 ADD SWAP1 PUSH2 0x200B JUMP JUMPDEST SWAP1 SWAP2 POP PUSH1 0xE DUP6 ADD PUSH1 0x0 MSTORE PUSH1 0x20 PUSH1 0x0 KECCAK256 PUSH1 0x1F DUP5 ADD PUSH1 0x5 SHR DUP2 ADD PUSH1 0x20 DUP6 LT PUSH2 0x20B6 JUMPI JUMPDEST SWAP1 DUP5 SWAP4 SWAP3 SWAP2 JUMPDEST PUSH1 0x1F DUP4 ADD PUSH1 0x5 SHR DUP3 ADD DUP2 LT PUSH2 0x20A7 JUMPI POP POP PUSH2 0x1C42 JUMP JUMPDEST PUSH1 0x0 DUP2 SSTORE DUP6 SWAP5 POP PUSH1 0x1 ADD PUSH2 0x2091 JUMP JUMPDEST POP DUP1 PUSH2 0x208B JUMP JUMPDEST ADD MLOAD SWAP1 POP DUP9 DUP1 PUSH2 0x1BFB JUMP JUMPDEST SWAP3 POP PUSH1 0xD DUP6 ADD PUSH1 0x0 MSTORE PUSH1 0x20 PUSH1 0x0 KECCAK256 SWAP1 PUSH1 0x0 SWAP4 JUMPDEST PUSH1 0x1F NOT DUP5 AND DUP6 LT PUSH2 0x211F JUMPI PUSH1 0x1 SWAP5 POP DUP4 PUSH1 0x1F NOT DUP2 AND LT PUSH2 0x2106 JUMPI JUMPDEST POP POP POP DUP2 SHL ADD PUSH1 0xD DUP4 ADD SSTORE PUSH2 0x1C13 JUMP JUMPDEST ADD MLOAD PUSH1 0x0 NOT PUSH1 0xF8 DUP5 PUSH1 0x3 SHL AND SHR NOT AND SWAP1 SSTORE DUP9 DUP1 DUP1 PUSH2 0x20F6 JUMP JUMPDEST DUP2 DUP2 ADD MLOAD DUP4 SSTORE PUSH1 0x20 SWAP5 DUP6 ADD SWAP5 PUSH1 0x1 SWAP1 SWAP4 ADD SWAP3 SWAP1 SWAP2 ADD SWAP1 PUSH2 0x20DB JUMP JUMPDEST SWAP1 SWAP2 POP PUSH1 0xD DUP6 ADD PUSH1 0x0 MSTORE PUSH1 0x20 PUSH1 0x0 KECCAK256 PUSH1 0x1F DUP5 ADD PUSH1 0x5 SHR DUP2 ADD PUSH1 0x20 DUP6 LT PUSH2 0x2186 JUMPI JUMPDEST SWAP1 DUP5 SWAP4 SWAP3 SWAP2 JUMPDEST PUSH1 0x1F DUP4 ADD PUSH1 0x5 SHR DUP3 ADD DUP2 LT PUSH2 0x2177 JUMPI POP POP PUSH2 0x1BE4 JUMP JUMPDEST PUSH1 0x0 DUP2 SSTORE DUP6 SWAP5 POP PUSH1 0x1 ADD PUSH2 0x2161 JUMP JUMPDEST POP DUP1 PUSH2 0x215B JUMP JUMPDEST ADD MLOAD SWAP1 POP DUP9 DUP1 PUSH2 0x1B75 JUMP JUMPDEST SWAP3 POP PUSH1 0xB DUP6 ADD PUSH1 0x0 MSTORE PUSH1 0x20 PUSH1 0x0 KECCAK256 SWAP1 PUSH1 0x0 SWAP4 JUMPDEST PUSH1 0x1F NOT DUP5 AND DUP6 LT PUSH2 0x21EF JUMPI PUSH1 0x1 SWAP5 POP DUP4 PUSH1 0x1F NOT DUP2 AND LT PUSH2 0x21D6 JUMPI JUMPDEST POP POP POP DUP2 SHL ADD PUSH1 0xB DUP4 ADD SSTORE PUSH2 0x1B8D JUMP JUMPDEST ADD MLOAD PUSH1 0x0 NOT PUSH1 0xF8 DUP5 PUSH1 0x3 SHL AND SHR NOT AND SWAP1 SSTORE DUP9 DUP1 DUP1 PUSH2 0x21C6 JUMP JUMPDEST DUP2 DUP2 ADD MLOAD DUP4 SSTORE PUSH1 0x20 SWAP5 DUP6 ADD SWAP5 PUSH1 0x1 SWAP1 SWAP4 ADD SWAP3 SWAP1 SWAP2 ADD SWAP1 PUSH2 0x21AB JUMP JUMPDEST SWAP1 SWAP2 POP PUSH1 0xB DUP6 ADD PUSH1 0x0 MSTORE PUSH1 0x20 PUSH1 0x0 KECCAK256 PUSH1 0x1F DUP5 ADD PUSH1 0x5 SHR DUP2 ADD PUSH1 0x20 DUP6 LT PUSH2 0x2256 JUMPI JUMPDEST SWAP1 DUP5 SWAP4 SWAP3 SWAP2 JUMPDEST PUSH1 0x1F DUP4 ADD PUSH1 0x5 SHR DUP3 ADD DUP2 LT PUSH2 0x2247 JUMPI POP POP PUSH2 0x1B5E JUMP JUMPDEST PUSH1 0x0 DUP2 SSTORE DUP6 SWAP5 POP PUSH1 0x1 ADD PUSH2 0x2231 JUMP JUMPDEST POP DUP1 PUSH2 0x222B JUMP JUMPDEST ADD MLOAD SWAP1 POP DUP9 DUP1 PUSH2 0x1B17 JUMP JUMPDEST SWAP3 POP PUSH1 0xA DUP6 ADD PUSH1 0x0 MSTORE PUSH1 0x20 PUSH1 0x0 KECCAK256 SWAP1 PUSH1 0x0 SWAP4 JUMPDEST PUSH1 0x1F NOT DUP5 AND DUP6 LT PUSH2 0x22BF JUMPI PUSH1 0x1 SWAP5 POP DUP4 PUSH1 0x1F NOT DUP2 AND LT PUSH2 0x22A6 JUMPI JUMPDEST POP POP POP DUP2 SHL ADD PUSH1 0xA DUP4 ADD SSTORE PUSH2 0x1B2F JUMP JUMPDEST ADD MLOAD PUSH1 0x0 NOT PUSH1 0xF8 DUP5 PUSH1 0x3 SHL AND SHR NOT AND SWAP1 SSTORE DUP9 DUP1 DUP1 PUSH2 0x2296 JUMP JUMPDEST DUP2 DUP2 ADD MLOAD DUP4 SSTORE PUSH1 0x20 SWAP5 DUP6 ADD SWAP5 PUSH1 0x1 SWAP1 SWAP4 ADD SWAP3 SWAP1 SWAP2 ADD SWAP1 PUSH2 0x227B JUMP JUMPDEST SWAP1 SWAP2 POP PUSH1 0xA DUP6 ADD PUSH1 0x0 MSTORE PUSH1 0x20 PUSH1 0x0 KECCAK256 PUSH1 0x1F DUP5 ADD PUSH1 0x5 SHR DUP2 ADD PUSH1 0x20 DUP6 LT PUSH2 0x2326 JUMPI JUMPDEST SWAP1 DUP5 SWAP4 SWAP3 SWAP2 JUMPDEST PUSH1 0x1F DUP4 ADD PUSH1 0x5 SHR DUP3 ADD DUP2 LT PUSH2 0x2317 JUMPI POP POP PUSH2 0x1B00 JUMP JUMPDEST PUSH1 0x0 DUP2 SSTORE DUP6 SWAP5 POP PUSH1 0x1 ADD PUSH2 0x2301 JUMP JUMPDEST POP DUP1 PUSH2 0x22FB JUMP JUMPDEST ADD MLOAD SWAP1 POP DUP9 DUP1 PUSH2 0x1A99 JUMP JUMPDEST SWAP3 POP PUSH1 0x8 DUP6 ADD PUSH1 0x0 MSTORE PUSH1 0x20 PUSH1 0x0 KECCAK256 SWAP1 PUSH1 0x0 SWAP4 JUMPDEST PUSH1 0x1F NOT DUP5 AND DUP6 LT PUSH2 0x238F JUMPI PUSH1 0x1 SWAP5 POP DUP4 PUSH1 0x1F NOT DUP2 AND LT PUSH2 0x2376 JUMPI JUMPDEST POP POP POP DUP2 SHL ADD PUSH1 0x8 DUP4 ADD SSTORE PUSH2 0x1AB1 JUMP JUMPDEST ADD MLOAD PUSH1 0x0 NOT PUSH1 0xF8 DUP5 PUSH1 0x3 SHL AND SHR NOT AND SWAP1 SSTORE DUP9 DUP1 DUP1 PUSH2 0x2366 JUMP JUMPDEST DUP2 DUP2 ADD MLOAD DUP4 SSTORE PUSH1 0x20 SWAP5 DUP6 ADD SWAP5 PUSH1 0x1 SWAP1 SWAP4 ADD SWAP3 SWAP1 SWAP2 ADD SWAP1 PUSH2 0x234B JUMP JUMPDEST SWAP1 SWAP2 POP PUSH1 0x8 DUP6 ADD PUSH1 0x0 MSTORE PUSH1 0x20 PUSH1 0x0 KECCAK256 PUSH1 0x1F DUP5 ADD PUSH1 0x5 SHR DUP2 ADD PUSH1 0x20 DUP6 LT PUSH2 0x23F6 JUMPI JUMPDEST SWAP1 DUP5 SWAP4 SWAP3 SWAP2 JUMPDEST PUSH1 0x1F DUP4 ADD PUSH1 0x5 SHR DUP3 ADD DUP2 LT PUSH2 0x23E7 JUMPI POP POP PUSH2 0x1A82 JUMP JUMPDEST PUSH1 0x0 DUP2 SSTORE DUP6 SWAP5 POP PUSH1 0x1 ADD PUSH2 0x23D1 JUMP JUMPDEST POP DUP1 PUSH2 0x23CB JUMP JUMPDEST ADD MLOAD SWAP1 POP DUP9 DUP1 PUSH2 0x19FA JUMP JUMPDEST SWAP3 POP PUSH1 0x6 DUP6 ADD PUSH1 0x0 MSTORE PUSH1 0x20 PUSH1 0x0 KECCAK256 SWAP1 PUSH1 0x0 SWAP4 JUMPDEST PUSH1 0x1F NOT DUP5 AND DUP6 LT PUSH2 0x245F JUMPI PUSH1 0x1 SWAP5 POP DUP4 PUSH1 0x1F NOT DUP2 AND LT PUSH2 0x2446 JUMPI JUMPDEST POP POP POP DUP2 SHL ADD PUSH1 0x6 DUP4 ADD SSTORE PUSH2 0x1A12 JUMP JUMPDEST ADD MLOAD PUSH1 0x0 NOT PUSH1 0xF8 DUP5 PUSH1 0x3 SHL AND SHR NOT AND SWAP1 SSTORE DUP9 DUP1 DUP1 PUSH2 0x2436 JUMP JUMPDEST DUP2 DUP2 ADD MLOAD DUP4 SSTORE PUSH1 0x20 SWAP5 DUP6 ADD SWAP5 PUSH1 0x1 SWAP1 SWAP4 ADD SWAP3 SWAP1 SWAP2 ADD SWAP1 PUSH2 0x241B JUMP JUMPDEST SWAP1 SWAP2 POP PUSH1 0x6 DUP6 ADD PUSH1 0x0 MSTORE PUSH1 0x20 PUSH1 0x0 KECCAK256 PUSH1 0x1F DUP5 ADD PUSH1 0x5 SHR DUP2 ADD PUSH1 0x20 DUP6 LT PUSH2 0x24C6 JUMPI JUMPDEST SWAP1 DUP5 SWAP4 SWAP3 SWAP2 JUMPDEST PUSH1 0x1F DUP4 ADD PUSH1 0x5 SHR DUP3 ADD DUP2 LT PUSH2 0x24B7 JUMPI POP POP PUSH2 0x19E3 JUMP JUMPDEST PUSH1 0x0 DUP2 SSTORE DUP6 SWAP5 POP PUSH1 0x1 ADD PUSH2 0x24A1 JUMP JUMPDEST POP DUP1 PUSH2 0x249B JUMP JUMPDEST ADD MLOAD SWAP1 POP DUP9 DUP1 PUSH2 0x1993 JUMP JUMPDEST SWAP3 POP PUSH1 0x4 DUP6 ADD PUSH1 0x0 MSTORE PUSH1 0x20 PUSH1 0x0 KECCAK256 SWAP1 PUSH1 0x0 SWAP4 JUMPDEST PUSH1 0x1F NOT DUP5 AND DUP6 LT PUSH2 0x252F JUMPI PUSH1 0x1 SWAP5 POP DUP4 PUSH1 0x1F NOT DUP2 AND LT PUSH2 0x2516 JUMPI JUMPDEST POP POP POP DUP2 SHL ADD PUSH1 0x4 DUP4 ADD SSTORE PUSH2 0x19AB JUMP JUMPDEST ADD MLOAD PUSH1 0x0 NOT PUSH1 0xF8 DUP5 PUSH1 0x3 SHL AND SHR NOT AND SWAP1 SSTORE DUP9 DUP1 DUP1 PUSH2 0x2506 JUMP JUMPDEST DUP2 DUP2 ADD MLOAD DUP4 SSTORE PUSH1 0x20 SWAP5 DUP6 ADD SWAP5 PUSH1 0x1 SWAP1 SWAP4 ADD SWAP3 SWAP1 SWAP2 ADD SWAP1 PUSH2 0x24EB JUMP JUMPDEST SWAP1 SWAP2 POP PUSH1 0x4 DUP6 ADD PUSH1 0x0 MSTORE PUSH1 0x20 PUSH1 0x0 KECCAK256 PUSH1 0x1F DUP5 ADD PUSH1 0x5 SHR DUP2 ADD PUSH1 0x20 DUP6 LT PUSH2 0x2596 JUMPI JUMPDEST SWAP1 DUP5 SWAP4 SWAP3 SWAP2 JUMPDEST PUSH1 0x1F DUP4 ADD PUSH1 0x5 SHR DUP3 ADD DUP2 LT PUSH2 0x2587 JUMPI POP POP PUSH2 0x197C JUMP JUMPDEST PUSH1 0x0 DUP2 SSTORE DUP6 SWAP5 POP PUSH1 0x1 ADD PUSH2 0x2571 JUMP JUMPDEST POP DUP1 PUSH2 0x256B JUMP JUMPDEST ADD MLOAD SWAP1 POP DUP9 DUP1 PUSH2 0x192C JUMP JUMPDEST SWAP3 POP PUSH1 0x2 DUP6 ADD PUSH1 0x0 MSTORE PUSH1 0x20 PUSH1 0x0 KECCAK256 SWAP1 PUSH1 0x0 SWAP4 JUMPDEST PUSH1 0x1F NOT DUP5 AND DUP6 LT PUSH2 0x25FF JUMPI PUSH1 0x1 SWAP5 POP DUP4 PUSH1 0x1F NOT DUP2 AND LT PUSH2 0x25E6 JUMPI JUMPDEST POP POP POP DUP2 SHL ADD PUSH1 0x2 DUP4 ADD SSTORE PUSH2 0x1944 JUMP JUMPDEST ADD MLOAD PUSH1 0x0 NOT PUSH1 0xF8 DUP5 PUSH1 0x3 SHL AND SHR NOT AND SWAP1 SSTORE DUP9 DUP1 DUP1 PUSH2 0x25D6 JUMP JUMPDEST DUP2 DUP2 ADD MLOAD DUP4 SSTORE PUSH1 0x20 SWAP5 DUP6 ADD SWAP5 PUSH1 0x1 SWAP1 SWAP4 ADD SWAP3 SWAP1 SWAP2 ADD SWAP1 PUSH2 0x25BB JUMP JUMPDEST SWAP1 SWAP2 POP PUSH1 0x2 DUP6 ADD PUSH1 0x0 MSTORE PUSH1 0x20 PUSH1 0x0 KECCAK256 PUSH1 0x1F DUP5 ADD PUSH1 0x5 SHR DUP2 ADD PUSH1 0x20 DUP6 LT PUSH2 0x2666 JUMPI JUMPDEST SWAP1 DUP5 SWAP4 SWAP3 SWAP2 JUMPDEST PUSH1 0x1F DUP4 ADD PUSH1 0x5 SHR DUP3 ADD DUP2 LT PUSH2 0x2657 JUMPI POP POP PUSH2 0x1915 JUMP JUMPDEST PUSH1 0x0 DUP2 SSTORE DUP6 SWAP5 POP PUSH1 0x1 ADD PUSH2 0x2641 JUMP JUMPDEST POP DUP1 PUSH2 0x263B JUMP JUMPDEST ADD MLOAD SWAP1 POP DUP9 DUP1 PUSH2 0x18CF JUMP JUMPDEST SWAP3 POP PUSH1 0x1 DUP6 ADD PUSH1 0x0 MSTORE PUSH1 0x20 PUSH1 0x0 KECCAK256 SWAP1 PUSH1 0x0 SWAP4 JUMPDEST PUSH1 0x1F NOT DUP5 AND DUP6 LT PUSH2 0x26CF JUMPI PUSH1 0x1 SWAP5 POP DUP4 PUSH1 0x1F NOT DUP2 AND LT PUSH2 0x26B6 JUMPI JUMPDEST POP POP POP DUP2 SHL ADD PUSH1 0x1 DUP4 ADD SSTORE PUSH2 0x18E7 JUMP JUMPDEST ADD MLOAD PUSH1 0x0 NOT PUSH1 0xF8 DUP5 PUSH1 0x3 SHL AND SHR NOT AND SWAP1 SSTORE DUP9 DUP1 DUP1 PUSH2 0x26A6 JUMP JUMPDEST DUP2 DUP2 ADD MLOAD DUP4 SSTORE PUSH1 0x20 SWAP5 DUP6 ADD SWAP5 PUSH1 0x1 SWAP1 SWAP4 ADD SWAP3 SWAP1 SWAP2 ADD SWAP1 PUSH2 0x268B JUMP JUMPDEST SWAP1 SWAP2 POP PUSH1 0x1 DUP6 ADD PUSH1 0x0 MSTORE PUSH1 0x20 PUSH1 0x0 KECCAK256 PUSH1 0x1F DUP5 ADD PUSH1 0x5 SHR DUP2 ADD PUSH1 0x20 DUP6 LT PUSH2 0x2736 JUMPI JUMPDEST SWAP1 DUP5 SWAP4 SWAP3 SWAP2 JUMPDEST PUSH1 0x1F DUP4 ADD PUSH1 0x5 SHR DUP3 ADD DUP2 LT PUSH2 0x2727 JUMPI POP POP PUSH2 0x18B8 JUMP JUMPDEST PUSH1 0x0 DUP2 SSTORE DUP6 SWAP5 POP PUSH1 0x1 ADD PUSH2 0x2711 JUMP JUMPDEST POP DUP1 PUSH2 0x270B JUMP JUMPDEST PUSH1 0x40 MLOAD PUSH3 0x461BCD PUSH1 0xE5 SHL DUP2 MSTORE PUSH1 0x20 PUSH1 0x4 DUP3 ADD MSTORE PUSH1 0x11 PUSH1 0x24 DUP3 ADD MSTORE PUSH17 0x556E617574686F72697A656420726F6C65 PUSH1 0x78 SHL PUSH1 0x44 DUP3 ADD MSTORE PUSH1 0x64 SWAP1 REVERT JUMPDEST CALLVALUE PUSH2 0x1DF JUMPI PUSH2 0x2784 CALLDATASIZE PUSH2 0x2F7F JUMP JUMPDEST SWAP2 DUP1 PUSH1 0x0 MSTORE PUSH1 0x20 SWAP1 PUSH1 0x0 DUP3 MSTORE PUSH2 0x27A4 PUSH1 0xFF PUSH1 0x9 PUSH1 0x40 PUSH1 0x0 KECCAK256 ADD SLOAD AND PUSH2 0x35F1 JUMP JUMPDEST PUSH1 0x0 MSTORE PUSH1 0x0 DUP2 MSTORE PUSH1 0x40 PUSH1 0x0 KECCAK256 SWAP2 PUSH1 0xC DUP4 ADD DUP1 SLOAD PUSH1 0x1 DUP1 PUSH1 0xA0 SHL SUB DUP2 AND PUSH2 0x2A04 JUMPI PUSH2 0x27D0 DUP4 MLOAD ISZERO ISZERO PUSH2 0x3142 JUMP JUMPDEST PUSH1 0x1 PUSH1 0x1 PUSH1 0xA0 SHL SUB NOT AND CALLER OR SWAP1 SSTORE DUP1 MLOAD PUSH1 0x1 PUSH1 0x1 PUSH1 0x40 SHL SUB SWAP2 SWAP1 PUSH1 0xD DUP6 ADD SWAP1 DUP4 DUP2 GT PUSH2 0x4F5 JUMPI DUP1 PUSH2 0x2801 DUP4 SLOAD PUSH2 0x2FFA JUMP JUMPDEST SWAP4 PUSH1 0x1F SWAP5 DUP6 DUP2 GT PUSH2 0x29B5 JUMPI JUMPDEST POP DUP7 SWAP1 DUP6 DUP4 GT PUSH1 0x1 EQ PUSH2 0x2950 JUMPI PUSH1 0x0 SWAP3 PUSH2 0x2945 JUMPI JUMPDEST POP POP DUP2 PUSH1 0x1 SHL SWAP2 PUSH1 0x0 NOT SWAP1 PUSH1 0x3 SHL SHR NOT AND OR SWAP1 SSTORE JUMPDEST PUSH1 0xE DUP5 ADD SWAP3 DUP6 MLOAD SWAP3 DUP4 GT PUSH2 0x4F5 JUMPI PUSH2 0x284F DUP5 SLOAD PUSH2 0x2FFA JUMP JUMPDEST DUP3 DUP2 GT PUSH2 0x2902 JUMPI JUMPDEST POP DUP1 SWAP2 DUP4 GT PUSH1 0x1 EQ PUSH2 0x289B JUMPI POP DUP2 SWAP3 SWAP4 SWAP5 PUSH1 0x0 SWAP3 PUSH2 0x2890 JUMPI JUMPDEST POP POP DUP2 PUSH1 0x1 SHL SWAP2 PUSH1 0x0 NOT SWAP1 PUSH1 0x3 SHL SHR NOT AND OR SWAP1 SSTORE JUMPDEST PUSH1 0x13 TIMESTAMP SWAP2 ADD SSTORE PUSH1 0x0 DUP1 RETURN JUMPDEST ADD MLOAD SWAP1 POP DUP5 DUP1 PUSH2 0x2870 JUMP JUMPDEST SWAP1 PUSH1 0x1F NOT DUP4 AND SWAP6 DUP5 PUSH1 0x0 MSTORE DUP3 PUSH1 0x0 KECCAK256 SWAP3 PUSH1 0x0 SWAP1 JUMPDEST DUP9 DUP3 LT PUSH2 0x28EA JUMPI POP POP DUP4 PUSH1 0x1 SWAP6 SWAP7 SWAP8 LT PUSH2 0x28D1 JUMPI JUMPDEST POP POP POP DUP2 SHL ADD SWAP1 SSTORE PUSH2 0x2885 JUMP JUMPDEST ADD MLOAD PUSH1 0x0 NOT PUSH1 0xF8 DUP5 PUSH1 0x3 SHL AND SHR NOT AND SWAP1 SSTORE DUP5 DUP1 DUP1 PUSH2 0x28C4 JUMP JUMPDEST DUP1 PUSH1 0x1 DUP6 SWAP7 DUP3 SWAP5 SWAP7 DUP7 ADD MLOAD DUP2 SSTORE ADD SWAP6 ADD SWAP4 ADD SWAP1 PUSH2 0x28AF JUMP JUMPDEST DUP5 PUSH1 0x0 MSTORE DUP2 PUSH1 0x0 KECCAK256 DUP4 DUP1 DUP7 ADD PUSH1 0x5 SHR DUP3 ADD SWAP3 DUP5 DUP8 LT PUSH2 0x293C JUMPI JUMPDEST ADD PUSH1 0x5 SHR ADD SWAP1 JUMPDEST DUP2 DUP2 LT PUSH2 0x2930 JUMPI POP PUSH2 0x2857 JUMP JUMPDEST PUSH1 0x0 DUP2 SSTORE PUSH1 0x1 ADD PUSH2 0x2923 JUMP JUMPDEST SWAP3 POP DUP2 SWAP3 PUSH2 0x291C JUMP JUMPDEST ADD MLOAD SWAP1 POP DUP9 DUP1 PUSH2 0x2822 JUMP JUMPDEST PUSH1 0x0 DUP6 DUP2 MSTORE DUP9 DUP2 KECCAK256 SWAP4 POP PUSH1 0x1F NOT DUP6 AND SWAP1 JUMPDEST DUP10 DUP3 DUP3 LT PUSH2 0x299F JUMPI POP POP SWAP1 DUP5 PUSH1 0x1 SWAP6 SWAP5 SWAP4 SWAP3 LT PUSH2 0x2986 JUMPI JUMPDEST POP POP POP DUP2 SHL ADD SWAP1 SSTORE PUSH2 0x2837 JUMP JUMPDEST ADD MLOAD PUSH1 0x0 NOT PUSH1 0xF8 DUP5 PUSH1 0x3 SHL AND SHR NOT AND SWAP1 SSTORE DUP9 DUP1 DUP1 PUSH2 0x2979 JUMP JUMPDEST PUSH1 0x1 DUP6 SWAP7 DUP3 SWAP4 SWAP7 DUP7 ADD MLOAD DUP2 SSTORE ADD SWAP6 ADD SWAP4 ADD PUSH2 0x2961 JUMP JUMPDEST SWAP1 SWAP2 POP DUP4 PUSH1 0x0 MSTORE DUP7 PUSH1 0x0 KECCAK256 DUP6 DUP1 DUP6 ADD PUSH1 0x5 SHR DUP3 ADD SWAP3 DUP10 DUP7 LT PUSH2 0x29FB JUMPI JUMPDEST SWAP1 DUP6 SWAP5 SWAP4 SWAP3 SWAP2 ADD PUSH1 0x5 SHR ADD SWAP1 JUMPDEST DUP2 DUP2 LT PUSH2 0x29EC JUMPI POP PUSH2 0x280D JUMP JUMPDEST PUSH1 0x0 DUP2 SSTORE DUP5 SWAP4 POP PUSH1 0x1 ADD PUSH2 0x29DF JUMP JUMPDEST SWAP3 POP DUP2 SWAP3 PUSH2 0x29D2 JUMP JUMPDEST PUSH1 0x40 MLOAD PUSH3 0x461BCD PUSH1 0xE5 SHL DUP2 MSTORE PUSH1 0x4 DUP2 ADD DUP6 SWAP1 MSTORE PUSH1 0x17 PUSH1 0x24 DUP3 ADD MSTORE PUSH32 0x4469737472696275746F7220616C726561647920736574000000000000000000 PUSH1 0x44 DUP3 ADD MSTORE PUSH1 0x64 SWAP1 REVERT JUMPDEST CALLVALUE PUSH2 0x1DF JUMPI PUSH1 0xC0 CALLDATASIZE PUSH1 0x3 NOT ADD SLT PUSH2 0x1DF JUMPI PUSH1 0x24 CALLDATALOAD PUSH1 0x1 PUSH1 0x1 PUSH1 0xA0 SHL SUB DUP2 AND DUP2 SUB PUSH2 0x1DF JUMPI PUSH1 0x4 PUSH1 0x44 CALLDATALOAD LT ISZERO PUSH2 0x1DF JUMPI PUSH1 0x1 PUSH1 0x1 PUSH1 0x40 SHL SUB PUSH1 0x64 CALLDATALOAD DUP2 DUP2 GT PUSH2 0x1DF JUMPI PUSH2 0x2A98 SWAP1 CALLDATASIZE SWAP1 PUSH1 0x4 ADD PUSH2 0x2F29 JUMP JUMPDEST PUSH1 0x84 CALLDATALOAD DUP3 DUP2 GT PUSH2 0x1DF JUMPI PUSH2 0x2AB0 SWAP1 CALLDATASIZE SWAP1 PUSH1 0x4 ADD PUSH2 0x2F29 JUMP JUMPDEST SWAP2 PUSH1 0xA4 CALLDATALOAD SWAP1 DUP2 GT PUSH2 0x1DF JUMPI PUSH2 0x2AC9 SWAP1 CALLDATASIZE SWAP1 PUSH1 0x4 ADD PUSH2 0x2F29 JUMP JUMPDEST SWAP2 CALLER PUSH1 0x0 MSTORE PUSH1 0x2 PUSH1 0x20 MSTORE PUSH2 0x2AE7 PUSH1 0xFF PUSH1 0x3 PUSH1 0x40 PUSH1 0x0 KECCAK256 ADD SLOAD AND PUSH2 0x317E JUMP JUMPDEST PUSH1 0x4 CALLDATALOAD PUSH1 0x0 MSTORE PUSH1 0x0 PUSH1 0x20 MSTORE PUSH2 0x2B06 PUSH1 0xFF PUSH1 0x9 PUSH1 0x40 PUSH1 0x0 KECCAK256 ADD SLOAD AND PUSH2 0x35F1 JUMP JUMPDEST PUSH1 0x4 CALLDATALOAD PUSH1 0x0 MSTORE PUSH1 0x0 PUSH1 0x20 MSTORE PUSH1 0x40 PUSH1 0x0 KECCAK256 SWAP3 PUSH1 0x7 DUP5 ADD SLOAD PUSH1 0xFF DUP2 AND PUSH2 0x2B29 DUP2 PUSH2 0x30DA JUMP JUMPDEST DUP1 PUSH2 0x2D0D JUMPI POP PUSH1 0x8 SHR PUSH1 0x1 PUSH1 0x1 PUSH1 0xA0 SHL SUB AND CALLER SUB PUSH2 0x2CB5 JUMPI PUSH1 0x1 PUSH1 0x1 PUSH1 0xA0 SHL SUB DUP6 AND PUSH1 0x0 SWAP1 DUP2 MSTORE PUSH1 0x2 PUSH1 0x20 MSTORE PUSH1 0x40 SWAP1 KECCAK256 SLOAD PUSH1 0x1 SWAP1 PUSH1 0xA0 SHR PUSH1 0xFF AND PUSH2 0x2B6C DUP2 PUSH2 0x30DA JUMP JUMPDEST SUB PUSH2 0x2C71 JUMPI PUSH2 0x2C07 SWAP4 JUMPDEST PUSH2 0x2B85 PUSH1 0x44 CALLDATALOAD PUSH1 0x7 DUP4 ADD PUSH2 0x31EF JUMP JUMPDEST PUSH2 0x2B90 PUSH1 0x44 CALLDATALOAD PUSH2 0x30DA JUMP JUMPDEST PUSH1 0x3 PUSH1 0x44 CALLDATALOAD EQ DUP1 PUSH2 0x2C65 JUMPI JUMPDEST PUSH2 0x2C59 JUMPI JUMPDEST POP PUSH1 0x4 CALLDATALOAD PUSH1 0x0 MSTORE PUSH1 0x1 PUSH1 0x20 MSTORE PUSH1 0x40 PUSH1 0x0 KECCAK256 SWAP2 PUSH1 0x40 MLOAD SWAP4 PUSH2 0x2BC0 DUP6 PUSH2 0x2E9A JUMP JUMPDEST PUSH1 0x4 CALLDATALOAD DUP6 MSTORE CALLER PUSH1 0x20 DUP7 ADD MSTORE PUSH1 0x1 PUSH1 0x1 PUSH1 0xA0 SHL SUB DUP8 AND PUSH1 0x40 DUP7 ADD MSTORE PUSH2 0x2BE5 PUSH1 0x44 CALLDATALOAD PUSH2 0x30DA JUMP JUMPDEST PUSH1 0x44 CALLDATALOAD PUSH1 0x60 DUP7 ADD MSTORE PUSH1 0x80 DUP6 ADD MSTORE TIMESTAMP PUSH1 0xA0 DUP6 ADD MSTORE PUSH1 0xC0 DUP5 ADD MSTORE PUSH1 0xE0 DUP4 ADD MSTORE PUSH2 0x3207 JUMP JUMPDEST PUSH1 0x40 MLOAD SWAP1 PUSH2 0x2C16 PUSH1 0x44 CALLDATALOAD PUSH2 0x30DA JUMP JUMPDEST PUSH1 0x44 CALLDATALOAD DUP3 MSTORE TIMESTAMP PUSH1 0x20 DUP4 ADD MSTORE PUSH1 0x1 PUSH1 0x1 PUSH1 0xA0 SHL SUB AND SWAP1 CALLER SWAP1 PUSH1 0x4 CALLDATALOAD SWAP1 PUSH32 0x9FA92E8B138A6A0678480E61B6E7A0EE30AF964EA75BC7B4A7006435E0F9B537 SWAP1 PUSH1 0x40 SWAP1 LOG4 STOP JUMPDEST PUSH1 0x15 TIMESTAMP SWAP2 ADD SSTORE DUP6 PUSH2 0x2BA1 JUMP JUMPDEST POP PUSH1 0x15 DUP2 ADD SLOAD ISZERO PUSH2 0x2B9C JUMP JUMPDEST PUSH1 0x64 PUSH1 0x40 MLOAD PUSH3 0x461BCD PUSH1 0xE5 SHL DUP2 MSTORE PUSH1 0x20 PUSH1 0x4 DUP3 ADD MSTORE PUSH1 0x20 PUSH1 0x24 DUP3 ADD MSTORE PUSH32 0x43616E206F6E6C79207472616E7366657220746F206469737472696275746F72 PUSH1 0x44 DUP3 ADD MSTORE REVERT JUMPDEST PUSH1 0x40 MLOAD PUSH3 0x461BCD PUSH1 0xE5 SHL DUP2 MSTORE PUSH1 0x20 PUSH1 0x4 DUP3 ADD MSTORE PUSH1 0x2A PUSH1 0x24 DUP3 ADD MSTORE PUSH32 0x4F6E6C79206661726D65722063616E207472616E736665722068617276657374 PUSH1 0x44 DUP3 ADD MSTORE PUSH10 0x1959081C1C9BD91D58DD PUSH1 0xB2 SHL PUSH1 0x64 DUP3 ADD MSTORE PUSH1 0x84 SWAP1 REVERT JUMPDEST SWAP1 POP PUSH2 0x2D18 DUP2 PUSH2 0x30DA JUMP JUMPDEST PUSH1 0x1 DUP2 SUB PUSH2 0x2E06 JUMPI POP CALLER PUSH1 0x0 MSTORE PUSH1 0x2 PUSH1 0x20 MSTORE PUSH1 0x1 PUSH1 0xFF PUSH1 0x40 PUSH1 0x0 KECCAK256 SLOAD PUSH1 0xA0 SHR AND PUSH2 0x2D41 DUP2 PUSH2 0x30DA JUMP JUMPDEST SUB PUSH2 0x2DC1 JUMPI PUSH1 0x1 DUP1 PUSH1 0xA0 SHL SUB DUP6 AND PUSH1 0x0 MSTORE PUSH1 0x2 PUSH1 0x20 MSTORE PUSH1 0x2 PUSH1 0xFF PUSH1 0x40 PUSH1 0x0 KECCAK256 SLOAD PUSH1 0xA0 SHR AND PUSH2 0x2D6E DUP2 PUSH2 0x30DA JUMP JUMPDEST SUB PUSH2 0x2D7C JUMPI PUSH2 0x2C07 SWAP4 PUSH2 0x2B76 JUMP JUMPDEST PUSH1 0x40 MLOAD PUSH3 0x461BCD PUSH1 0xE5 SHL DUP2 MSTORE PUSH1 0x20 PUSH1 0x4 DUP3 ADD MSTORE PUSH1 0x1D PUSH1 0x24 DUP3 ADD MSTORE PUSH32 0x43616E206F6E6C79207472616E7366657220746F2072657461696C6572000000 PUSH1 0x44 DUP3 ADD MSTORE PUSH1 0x64 SWAP1 REVERT JUMPDEST PUSH1 0x40 MLOAD PUSH3 0x461BCD PUSH1 0xE5 SHL DUP2 MSTORE PUSH1 0x20 PUSH1 0x4 DUP3 ADD MSTORE PUSH1 0x1D PUSH1 0x24 DUP3 ADD MSTORE PUSH32 0x4F6E6C79206469737472696275746F722063616E207472616E73666572000000 PUSH1 0x44 DUP3 ADD MSTORE PUSH1 0x64 SWAP1 REVERT JUMPDEST DUP1 PUSH2 0x2E12 PUSH1 0x2 SWAP3 PUSH2 0x30DA JUMP JUMPDEST EQ PUSH2 0x2E21 JUMPI JUMPDEST PUSH2 0x2C07 SWAP4 PUSH2 0x2B76 JUMP JUMPDEST CALLER PUSH1 0x0 MSTORE PUSH1 0x2 PUSH1 0x20 MSTORE PUSH1 0x2 PUSH1 0xFF PUSH1 0x40 PUSH1 0x0 KECCAK256 SLOAD PUSH1 0xA0 SHR AND PUSH2 0x2E41 DUP2 PUSH2 0x30DA JUMP JUMPDEST EQ PUSH2 0x2E18 JUMPI PUSH1 0x40 MLOAD PUSH3 0x461BCD PUSH1 0xE5 SHL DUP2 MSTORE PUSH1 0x20 PUSH1 0x4 DUP3 ADD MSTORE PUSH1 0x16 PUSH1 0x24 DUP3 ADD MSTORE PUSH22 0x13DB9B1E481C995D185A5B195C8818D85B881CD95B1B PUSH1 0x52 SHL PUSH1 0x44 DUP3 ADD MSTORE PUSH1 0x64 SWAP1 REVERT JUMPDEST PUSH1 0x4 CALLDATALOAD SWAP1 PUSH1 0x1 PUSH1 0x1 PUSH1 0xA0 SHL SUB DUP3 AND DUP3 SUB PUSH2 0x1DF JUMPI JUMP JUMPDEST PUSH2 0x100 DUP2 ADD SWAP1 DUP2 LT PUSH1 0x1 PUSH1 0x1 PUSH1 0x40 SHL SUB DUP3 GT OR PUSH2 0x4F5 JUMPI PUSH1 0x40 MSTORE JUMP JUMPDEST PUSH1 0xA0 DUP2 ADD SWAP1 DUP2 LT PUSH1 0x1 PUSH1 0x1 PUSH1 0x40 SHL SUB DUP3 GT OR PUSH2 0x4F5 JUMPI PUSH1 0x40 MSTORE JUMP JUMPDEST PUSH2 0x2E0 DUP2 ADD SWAP1 DUP2 LT PUSH1 0x1 PUSH1 0x1 PUSH1 0x40 SHL SUB DUP3 GT OR PUSH2 0x4F5 JUMPI PUSH1 0x40 MSTORE JUMP JUMPDEST PUSH1 0x20 DUP2 ADD SWAP1 DUP2 LT PUSH1 0x1 PUSH1 0x1 PUSH1 0x40 SHL SUB DUP3 GT OR PUSH2 0x4F5 JUMPI PUSH1 0x40 MSTORE JUMP JUMPDEST SWAP1 PUSH1 0x1F DUP1 NOT SWAP2 ADD AND DUP2 ADD SWAP1 DUP2 LT PUSH1 0x1 PUSH1 0x1 PUSH1 0x40 SHL SUB DUP3 GT OR PUSH2 0x4F5 JUMPI PUSH1 0x40 MSTORE JUMP JUMPDEST DUP2 PUSH1 0x1F DUP3 ADD SLT ISZERO PUSH2 0x1DF JUMPI DUP1 CALLDATALOAD SWAP1 PUSH1 0x1 PUSH1 0x1 PUSH1 0x40 SHL SUB DUP3 GT PUSH2 0x4F5 JUMPI PUSH1 0x40 MLOAD SWAP3 PUSH2 0x2F5D PUSH1 0x1F DUP5 ADD PUSH1 0x1F NOT AND PUSH1 0x20 ADD DUP6 PUSH2 0x2F08 JUMP JUMPDEST DUP3 DUP5 MSTORE PUSH1 0x20 DUP4 DUP4 ADD ADD GT PUSH2 0x1DF JUMPI DUP2 PUSH1 0x0 SWAP3 PUSH1 0x20 DUP1 SWAP4 ADD DUP4 DUP7 ADD CALLDATACOPY DUP4 ADD ADD MSTORE SWAP1 JUMP JUMPDEST PUSH1 0x60 PUSH1 0x3 NOT DUP3 ADD SLT PUSH2 0x1DF JUMPI PUSH1 0x4 CALLDATALOAD SWAP2 PUSH1 0x1 PUSH1 0x1 PUSH1 0x40 SHL SUB PUSH1 0x24 CALLDATALOAD DUP2 DUP2 GT PUSH2 0x1DF JUMPI DUP4 PUSH2 0x2FAE SWAP2 PUSH1 0x4 ADD PUSH2 0x2F29 JUMP JUMPDEST SWAP3 PUSH1 0x44 CALLDATALOAD SWAP2 DUP3 GT PUSH2 0x1DF JUMPI PUSH2 0x2FC5 SWAP2 PUSH1 0x4 ADD PUSH2 0x2F29 JUMP JUMPDEST SWAP1 JUMP JUMPDEST DUP1 SLOAD DUP3 LT ISZERO PUSH2 0x2FE4 JUMPI PUSH1 0x0 MSTORE PUSH1 0x7 PUSH1 0x20 PUSH1 0x0 KECCAK256 SWAP2 MUL ADD SWAP1 PUSH1 0x0 SWAP1 JUMP JUMPDEST PUSH4 0x4E487B71 PUSH1 0xE0 SHL PUSH1 0x0 MSTORE PUSH1 0x32 PUSH1 0x4 MSTORE PUSH1 0x24 PUSH1 0x0 REVERT JUMPDEST SWAP1 PUSH1 0x1 DUP3 DUP2 SHR SWAP3 AND DUP1 ISZERO PUSH2 0x302A JUMPI JUMPDEST PUSH1 0x20 DUP4 LT EQ PUSH2 0x3014 JUMPI JUMP JUMPDEST PUSH4 0x4E487B71 PUSH1 0xE0 SHL PUSH1 0x0 MSTORE PUSH1 0x22 PUSH1 0x4 MSTORE PUSH1 0x24 PUSH1 0x0 REVERT JUMPDEST SWAP2 PUSH1 0x7F AND SWAP2 PUSH2 0x3009 JUMP JUMPDEST SWAP1 PUSH1 0x40 MLOAD SWAP2 DUP3 PUSH1 0x0 DUP3 SLOAD SWAP3 PUSH2 0x3048 DUP5 PUSH2 0x2FFA JUMP JUMPDEST SWAP1 DUP2 DUP5 MSTORE PUSH1 0x1 SWAP5 DUP6 DUP2 AND SWAP1 DUP2 PUSH1 0x0 EQ PUSH2 0x30B7 JUMPI POP PUSH1 0x1 EQ PUSH2 0x3074 JUMPI JUMPDEST POP POP PUSH2 0x3072 SWAP3 POP SUB DUP4 PUSH2 0x2F08 JUMP JUMPDEST JUMP JUMPDEST SWAP1 SWAP4 SWAP2 POP PUSH1 0x0 MSTORE PUSH1 0x20 SWAP1 DUP2 PUSH1 0x0 KECCAK256 SWAP4 PUSH1 0x0 SWAP2 JUMPDEST DUP2 DUP4 LT PUSH2 0x309F JUMPI POP POP PUSH2 0x3072 SWAP4 POP DUP3 ADD ADD CODESIZE DUP1 PUSH2 0x3064 JUMP JUMPDEST DUP6 SLOAD DUP9 DUP5 ADD DUP6 ADD MSTORE SWAP5 DUP6 ADD SWAP5 DUP8 SWAP5 POP SWAP2 DUP4 ADD SWAP2 PUSH2 0x3087 JUMP JUMPDEST SWAP2 POP POP PUSH2 0x3072 SWAP5 POP PUSH1 0x20 SWAP3 POP PUSH1 0xFF NOT AND DUP3 DUP5 ADD MSTORE ISZERO ISZERO PUSH1 0x5 SHL DUP3 ADD ADD CODESIZE DUP1 PUSH2 0x3064 JUMP JUMPDEST PUSH1 0x4 GT ISZERO PUSH2 0x30E4 JUMPI JUMP JUMPDEST PUSH4 0x4E487B71 PUSH1 0xE0 SHL PUSH1 0x0 MSTORE PUSH1 0x21 PUSH1 0x4 MSTORE PUSH1 0x24 PUSH1 0x0 REVERT JUMPDEST PUSH1 0x0 JUMPDEST DUP4 DUP2 LT PUSH2 0x310D JUMPI POP POP PUSH1 0x0 SWAP2 ADD MSTORE JUMP JUMPDEST DUP2 DUP2 ADD MLOAD DUP4 DUP3 ADD MSTORE PUSH1 0x20 ADD PUSH2 0x30FD JUMP JUMPDEST SWAP1 PUSH1 0x20 SWAP2 PUSH2 0x3136 DUP2 MLOAD DUP1 SWAP3 DUP2 DUP6 MSTORE DUP6 DUP1 DUP7 ADD SWAP2 ADD PUSH2 0x30FA JUMP JUMPDEST PUSH1 0x1F ADD PUSH1 0x1F NOT AND ADD ADD SWAP1 JUMP JUMPDEST ISZERO PUSH2 0x3149 JUMPI JUMP JUMPDEST PUSH1 0x40 MLOAD PUSH3 0x461BCD PUSH1 0xE5 SHL DUP2 MSTORE PUSH1 0x20 PUSH1 0x4 DUP3 ADD MSTORE PUSH1 0xD PUSH1 0x24 DUP3 ADD MSTORE PUSH13 0x13985B59481C995C5D5A5C9959 PUSH1 0x9A SHL PUSH1 0x44 DUP3 ADD MSTORE PUSH1 0x64 SWAP1 REVERT JUMPDEST ISZERO PUSH2 0x3185 JUMPI JUMP JUMPDEST PUSH1 0x40 MLOAD PUSH3 0x461BCD PUSH1 0xE5 SHL DUP2 MSTORE PUSH1 0x20 PUSH1 0x4 DUP3 ADD MSTORE PUSH1 0x1C PUSH1 0x24 DUP3 ADD MSTORE PUSH32 0x4E6F7420612072656769737465726564207374616B65686F6C64657200000000 PUSH1 0x44 DUP3 ADD MSTORE PUSH1 0x64 SWAP1 REVERT JUMPDEST PUSH1 0x0 NOT DUP2 EQ PUSH2 0x31D9 JUMPI PUSH1 0x1 ADD SWAP1 JUMP JUMPDEST PUSH4 0x4E487B71 PUSH1 0xE0 SHL PUSH1 0x0 MSTORE PUSH1 0x11 PUSH1 0x4 MSTORE PUSH1 0x24 PUSH1 0x0 REVERT JUMPDEST SWAP1 PUSH2 0x31F9 DUP2 PUSH2 0x30DA JUMP JUMPDEST PUSH1 0xFF DUP1 NOT DUP4 SLOAD AND SWAP2 AND OR SWAP1 SSTORE JUMP JUMPDEST DUP1 SLOAD PUSH9 0x10000000000000000 DUP2 LT ISZERO PUSH2 0x4F5 JUMPI PUSH2 0x322B SWAP1 PUSH1 0x1 SWAP3 DUP4 DUP3 ADD DUP2 SSTORE PUSH2 0x2FC8 JUMP JUMPDEST PUSH2 0x35DB JUMPI DUP3 MLOAD DUP2 SSTORE PUSH1 0x20 DUP1 DUP5 ADD MLOAD DUP4 DUP4 ADD DUP1 SLOAD PUSH1 0x1 PUSH1 0x1 PUSH1 0xA0 SHL SUB NOT AND PUSH1 0x1 PUSH1 0x1 PUSH1 0xA0 SHL SUB SWAP3 DUP4 AND OR SWAP1 SSTORE PUSH1 0x40 DUP6 ADD MLOAD PUSH1 0x2 DUP5 ADD DUP1 SLOAD PUSH1 0x60 DUP9 ADD MLOAD SWAP5 SWAP6 SWAP5 SWAP2 SWAP4 SWAP1 SWAP3 AND SWAP1 PUSH2 0x3278 DUP2 PUSH2 0x30DA JUMP JUMPDEST PUSH2 0x3281 DUP2 PUSH2 0x30DA JUMP JUMPDEST PUSH1 0x1 PUSH1 0x1 PUSH1 0xA8 SHL SUB NOT SWAP1 SWAP3 AND OR PUSH1 0xA0 SWAP2 SWAP1 SWAP2 SHL PUSH1 0xFF PUSH1 0xA0 SHL AND OR SWAP1 SSTORE PUSH1 0x80 DUP5 ADD MLOAD DUP1 MLOAD PUSH1 0x1 PUSH1 0x1 PUSH1 0x40 SHL SUB SWAP4 PUSH1 0x3 SWAP4 SWAP1 SWAP2 DUP2 DUP6 ADD SWAP1 DUP7 DUP2 GT PUSH2 0x4F5 JUMPI DUP1 PUSH2 0x32C8 DUP4 SLOAD PUSH2 0x2FFA JUMP JUMPDEST SWAP6 PUSH1 0x1F SWAP7 DUP8 DUP2 GT PUSH2 0x3589 JUMPI JUMPDEST POP DUP6 SWAP1 DUP8 DUP4 GT PUSH1 0x1 EQ PUSH2 0x3527 JUMPI PUSH1 0x0 SWAP3 PUSH2 0x351C JUMPI JUMPDEST POP POP PUSH1 0x0 NOT DUP3 DUP9 SHL SHR NOT AND SWAP1 DUP9 SHL OR SWAP1 SSTORE JUMPDEST PUSH1 0xA0 DUP8 ADD MLOAD PUSH1 0x4 DUP3 ADD SSTORE PUSH1 0x5 DUP2 ADD PUSH1 0xC0 DUP9 ADD MLOAD DUP1 MLOAD SWAP1 DUP8 DUP3 GT PUSH2 0x4F5 JUMPI PUSH2 0x3322 DUP4 SLOAD PUSH2 0x2FFA JUMP JUMPDEST DUP7 DUP2 GT PUSH2 0x34D6 JUMPI JUMPDEST POP DUP5 SWAP1 DUP7 DUP4 GT PUSH1 0x1 EQ PUSH2 0x3469 JUMPI SWAP2 DUP1 PUSH1 0x6 SWAP5 SWAP3 PUSH1 0xE0 SWAP7 SWAP5 PUSH1 0x0 SWAP3 PUSH2 0x345E JUMPI JUMPDEST POP POP PUSH1 0x0 NOT DUP3 DUP11 SHL SHR NOT AND SWAP1 DUP11 SHL OR SWAP1 SSTORE JUMPDEST ADD SWAP7 ADD MLOAD SWAP1 DUP2 MLOAD SWAP5 DUP6 GT PUSH2 0x4F5 JUMPI PUSH2 0x3373 DUP8 SLOAD PUSH2 0x2FFA JUMP JUMPDEST DUP4 DUP2 GT PUSH2 0x3418 JUMPI JUMPDEST POP DUP1 SWAP3 DUP6 GT PUSH1 0x1 EQ PUSH2 0x33B2 JUMPI POP SWAP4 DUP4 SWAP5 SWAP2 DUP5 SWAP3 PUSH1 0x0 SWAP6 PUSH2 0x33A7 JUMPI JUMPDEST POP POP SHL SWAP3 PUSH1 0x0 NOT SWAP2 SHL SHR NOT AND OR SWAP1 SSTORE JUMP JUMPDEST ADD MLOAD SWAP4 POP CODESIZE DUP1 PUSH2 0x3396 JUMP JUMPDEST SWAP3 SWAP2 SWAP1 DUP5 PUSH1 0x1F NOT DUP2 AND DUP9 PUSH1 0x0 MSTORE DUP6 PUSH1 0x0 KECCAK256 SWAP6 PUSH1 0x0 SWAP1 JUMPDEST DUP10 DUP4 DUP4 LT PUSH2 0x33FE JUMPI POP POP POP LT PUSH2 0x33E4 JUMPI JUMPDEST POP POP POP POP DUP2 SHL ADD SWAP1 SSTORE JUMP JUMPDEST ADD MLOAD SWAP1 PUSH1 0xF8 DUP5 PUSH1 0x0 NOT SWAP3 SHL AND SHR NOT AND SWAP1 SSTORE CODESIZE DUP1 DUP1 DUP1 PUSH2 0x33D9 JUMP JUMPDEST DUP6 DUP8 ADD MLOAD DUP10 SSTORE SWAP1 SWAP8 ADD SWAP7 SWAP5 DUP6 ADD SWAP5 DUP9 SWAP4 POP SWAP1 DUP2 ADD SWAP1 PUSH2 0x33C8 JUMP JUMPDEST DUP8 PUSH1 0x0 MSTORE DUP2 PUSH1 0x0 KECCAK256 DUP5 DUP1 DUP9 ADD PUSH1 0x5 SHR DUP3 ADD SWAP3 DUP5 DUP10 LT PUSH2 0x3455 JUMPI JUMPDEST ADD PUSH1 0x5 SHR ADD SWAP1 DUP8 SWAP1 JUMPDEST DUP3 DUP2 LT PUSH2 0x3449 JUMPI POP POP PUSH2 0x337B JUMP JUMPDEST PUSH1 0x0 DUP2 SSTORE ADD DUP8 SWAP1 PUSH2 0x343B JUMP JUMPDEST SWAP3 POP DUP2 SWAP3 PUSH2 0x3432 JUMP JUMPDEST ADD MLOAD SWAP1 POP CODESIZE DUP1 PUSH2 0x3349 JUMP JUMPDEST DUP10 SWAP3 SWAP2 PUSH1 0x1F NOT DUP4 AND SWAP2 DUP6 PUSH1 0x0 MSTORE DUP8 PUSH1 0x0 KECCAK256 SWAP3 PUSH1 0x0 JUMPDEST DUP10 DUP3 DUP3 LT PUSH2 0x34C0 JUMPI POP POP SWAP2 PUSH1 0xE0 SWAP8 SWAP6 SWAP4 SWAP2 DUP6 PUSH1 0x6 SWAP9 SWAP7 SWAP5 LT PUSH2 0x34A8 JUMPI JUMPDEST POP POP POP DUP2 SHL ADD SWAP1 SSTORE PUSH2 0x335B JUMP JUMPDEST ADD MLOAD PUSH1 0x0 NOT DUP4 DUP13 SHL PUSH1 0xF8 AND SHR NOT AND SWAP1 SSTORE CODESIZE DUP1 DUP1 PUSH2 0x349B JUMP JUMPDEST DUP4 DUP6 ADD MLOAD DUP7 SSTORE DUP15 SWAP8 SWAP1 SWAP6 ADD SWAP5 SWAP4 DUP5 ADD SWAP4 ADD PUSH2 0x347E JUMP JUMPDEST DUP4 PUSH1 0x0 MSTORE DUP6 PUSH1 0x0 KECCAK256 DUP8 DUP1 DUP6 ADD PUSH1 0x5 SHR DUP3 ADD SWAP3 DUP9 DUP7 LT PUSH2 0x3513 JUMPI JUMPDEST ADD PUSH1 0x5 SHR ADD SWAP1 DUP11 SWAP1 JUMPDEST DUP3 DUP2 LT PUSH2 0x3507 JUMPI POP POP PUSH2 0x332A JUMP JUMPDEST PUSH1 0x0 DUP2 SSTORE ADD DUP11 SWAP1 PUSH2 0x34F9 JUMP JUMPDEST SWAP3 POP DUP2 SWAP3 PUSH2 0x34F0 JUMP JUMPDEST ADD MLOAD SWAP1 POP CODESIZE DUP1 PUSH2 0x32E9 JUMP JUMPDEST SWAP1 DUP11 SWAP4 POP PUSH1 0x1F NOT DUP4 AND SWAP2 DUP6 PUSH1 0x0 MSTORE DUP8 PUSH1 0x0 KECCAK256 SWAP3 PUSH1 0x0 JUMPDEST DUP10 DUP3 DUP3 LT PUSH2 0x3573 JUMPI POP POP DUP5 GT PUSH2 0x355B JUMPI JUMPDEST POP POP POP DUP2 SHL ADD SWAP1 SSTORE PUSH2 0x32FB JUMP JUMPDEST ADD MLOAD PUSH1 0x0 NOT DUP4 DUP11 SHL PUSH1 0xF8 AND SHR NOT AND SWAP1 SSTORE CODESIZE DUP1 DUP1 PUSH2 0x354E JUMP JUMPDEST DUP4 DUP6 ADD MLOAD DUP7 SSTORE DUP15 SWAP8 SWAP1 SWAP6 ADD SWAP5 SWAP4 DUP5 ADD SWAP4 ADD PUSH2 0x353D JUMP JUMPDEST SWAP1 SWAP2 POP PUSH1 0x0 DUP5 DUP2 MSTORE DUP7 DUP2 KECCAK256 DUP9 DUP1 DUP7 ADD PUSH1 0x5 SHR DUP3 ADD SWAP4 DUP10 DUP8 LT PUSH2 0x35D2 JUMPI JUMPDEST SWAP2 DUP14 SWAP2 DUP8 SWAP7 SWAP6 SWAP5 SWAP4 ADD PUSH1 0x5 SHR ADD SWAP3 JUMPDEST DUP4 DUP2 LT PUSH2 0x35C4 JUMPI POP POP POP PUSH2 0x32D4 JUMP JUMPDEST DUP3 DUP2 SSTORE DUP7 SWAP6 POP DUP14 SWAP2 ADD PUSH2 0x35B5 JUMP JUMPDEST SWAP4 POP DUP2 SWAP4 PUSH2 0x35A6 JUMP JUMPDEST PUSH4 0x4E487B71 PUSH1 0xE0 SHL PUSH1 0x0 MSTORE PUSH1 0x0 PUSH1 0x4 MSTORE PUSH1 0x24 PUSH1 0x0 REVERT JUMPDEST ISZERO PUSH2 0x35F8 JUMPI JUMP JUMPDEST PUSH1 0x40 MLOAD PUSH3 0x461BCD PUSH1 0xE5 SHL DUP2 MSTORE PUSH1 0x20 PUSH1 0x4 DUP3 ADD MSTORE PUSH1 0x16 PUSH1 0x24 DUP3 ADD MSTORE PUSH22 0x141C9BD91D58DD08191BD95CC81B9BDD08195E1A5CDD PUSH1 0x52 SHL PUSH1 0x44 DUP3 ADD MSTORE PUSH1 0x64 SWAP1 REVERT JUMPDEST PUSH1 0x1 PUSH1 0x1 PUSH1 0x40 SHL SUB DUP2 GT PUSH2 0x4F5 JUMPI PUSH1 0x5 SHL PUSH1 0x20 ADD SWAP1 JUMP JUMPDEST SWAP1 PUSH2 0x3657 DUP3 PUSH2 0x3636 JUMP JUMPDEST PUSH2 0x3664 PUSH1 0x40 MLOAD SWAP2 DUP3 PUSH2 0x2F08 JUMP JUMPDEST DUP3 DUP2 MSTORE DUP1 SWAP3 PUSH2 0x3675 PUSH1 0x1F NOT SWAP2 PUSH2 0x3636 JUMP JUMPDEST ADD SWAP1 PUSH1 0x20 CALLDATASIZE SWAP2 ADD CALLDATACOPY JUMP JUMPDEST DUP1 MLOAD DUP3 LT ISZERO PUSH2 0x2FE4 JUMPI PUSH1 0x20 SWAP2 PUSH1 0x5 SHL ADD ADD SWAP1 JUMP INVALID LOG2 PUSH5 0x6970667358 0x22 SLT KECCAK256 AND 0xEB 0xE6 0xEB DUP7 NOT 0xC7 DUP8 JUMPDEST 0x2A 0xD3 0xC5 0xEC AND 0x4D DUP3 CALLDATASIZE 0xC8 BALANCE 0xCE 0xC 0x5E CALLDATALOAD 0x22 0x5C LOG2 0xA8 0xC4 PUSH11 0x39C98364736F6C63430008 SGT STOP CALLER "},"methodIdentifiers":{"addDistributorDetails(uint256,string,string)":"0ad4ef38","addRetailerDetails(uint256,string,string)":"3c5e5d3a","getProduct(uint256)":"b9db15b4","getProductTransactions(uint256)":"9ab2dfa3","getProductsByFarmer(address)":"ec90a7b0","getStakeholder(address)":"62afde25","isProductAuthentic(uint256,string)":"c3a4e597","productCounter()":"1f16653b","productTransactions(uint256,uint256)":"259132d4","products(uint256)":"7acc0b20","registerProduct(string,string,uint256,string,uint256,string,string)":"0ffe433d","registerStakeholder(uint8,string,string)":"d10e53d3","stakeholders(address)":"c07cfca9","transferProduct(uint256,address,uint8,string,string,string)":"07dd0a0f"}}}}}