{
  "_format": "hh-sol-artifact-1",
  "contractName": "SupplyChain",
  "sourceName": "contracts/SupplyChain.sol",
  "abi": [
    {
      "anonymous": false,
      "inputs": [
        {
          "indexed": true,
          "internalType": "uint256",
          "name": "productId",
          "type": "uint256"
        },
        {
          "indexed": false,
          "internalType": "string",
          "name": "name",
          "type": "string"
        },
        {
          "indexed": true,
          "internalType": "address",
          "name": "farmer",
          "type": "address"
        },
        {
          "indexed": false,
          "internalType": "uint256",
          "name": "harvestDate",
          "type": "uint256"
        }
      ],
      "name": "ProductRegistered",
      "type": "event"
    },
    {
      "anonymous": false,
      "inputs": [
        {
          "indexed": true,
          "internalType": "uint256",
          "name": "productId",
          "type": "uint256"
        },
        {
          "indexed": true,
          "internalType": "address",
          "name": "from",
          "type": "address"
        },
        {
          "indexed": true,
          "internalType": "address",
          "name": "to",
          "type": "address"
        },
        {
          "indexed": false,
          "internalType": "enum SupplyChain.ProductStatus",
          "name": "newStatus",
          "type": "uint8"
        },
        {
          "indexed": false,
          "internalType": "uint256",
          "name": "timestamp",
          "type": "uint256"
        }
      ],
      "name": "ProductTransferred",
      "type": "event"
    },
    {
      "anonymous": false,
      "inputs": [
        {
          "indexed": true,
          "internalType": "address",
          "name": "stakeholder",
          "type": "address"
        },
        {
          "indexed": false,
          "internalType": "enum SupplyChain.StakeholderRole",
          "name": "role",
          "type": "uint8"
        },
        {
          "indexed": false,
          "internalType": "string",
          "name": "name",
          "type": "string"
        }
      ],
      "name": "StakeholderRegistered",
      "type": "event"
    },
    {
      "inputs": [
        {
          "internalType": "uint256",
          "name": "_productId",
          "type": "uint256"
        },
        {
          "internalType": "string",
          "name": "_name",
          "type": "string"
        },
        {
          "internalType": "string",
          "name": "_org",
          "type": "string"
        }
      ],
      "name": "addDistributorDetails",
      "outputs": [],
      "stateMutability": "nonpayable",
      "type": "function"
    },
    {
      "inputs": [
        {
          "internalType": "uint256",
          "name": "_productId",
          "type": "uint256"
        },
        {
          "internalType": "string",
          "name": "_name",
          "type": "string"
        },
        {
          "internalType": "string",
          "name": "_org",
          "type": "string"
        }
      ],
      "name": "addRetailerDetails",
      "outputs": [],
      "stateMutability": "nonpayable",
      "type": "function"
    },
    {
      "inputs": [
        {
          "internalType": "uint256",
          "name": "_productId",
          "type": "uint256"
        }
      ],
      "name": "getProduct",
      "outputs": [
        {
          "components": [
            {
              "internalType": "uint256",
              "name": "id",
              "type": "uint256"
            },
            {
              "internalType": "string",
              "name": "name",
              "type": "string"
            },
            {
              "internalType": "string",
              "name": "variety",
              "type": "string"
            },
            {
              "internalType": "uint256",
              "name": "quantity",
              "type": "uint256"
            },
            {
              "internalType": "string",
              "name": "farmLocation",
              "type": "string"
            },
            {
              "internalType": "uint256",
              "name": "harvestDate",
              "type": "uint256"
            },
            {
              "internalType": "string",
              "name": "qualityGrade",
              "type": "string"
            },
            {
              "internalType": "enum SupplyChain.ProductStatus",
              "name": "status",
              "type": "uint8"
            },
            {
              "internalType": "address",
              "name": "farmer",
              "type": "address"
            },
            {
              "internalType": "string",
              "name": "dataHash",
              "type": "string"
            },
            {
              "internalType": "bool",
              "name": "exists",
              "type": "bool"
            },
            {
              "internalType": "string",
              "name": "farmerName",
              "type": "string"
            },
            {
              "internalType": "string",
              "name": "farmerOrganization",
              "type": "string"
            },
            {
              "internalType": "address",
              "name": "distributor",
              "type": "address"
            },
            {
              "internalType": "string",
              "name": "distributorName",
              "type": "string"
            },
            {
              "internalType": "string",
              "name": "distributorOrganization",
              "type": "string"
            },
            {
              "internalType": "address",
              "name": "retailer",
              "type": "address"
            },
            {
              "internalType": "string",
              "name": "retailerName",
              "type": "string"
            },
            {
              "internalType": "string",
              "name": "retailerOrganization",
              "type": "string"
            },
            {
              "internalType": "uint256",
              "name": "farmerRegisteredAt",
              "type": "uint256"
            },
            {
              "internalType": "uint256",
              "name": "distributorAddedAt",
              "type": "uint256"
            },
            {
              "internalType": "uint256",
              "name": "retailerAddedAt",
              "type": "uint256"
            },
            {
              "internalType": "uint256",
              "name": "soldAt",
              "type": "uint256"
            }
          ],
          "internalType": "struct SupplyChain.Product",
          "name": "",
          "type": "tuple"
        }
      ],
      "stateMutability": "view",
      "type": "function"
    },
    {
      "inputs": [
        {
          "internalType": "uint256",
          "name": "_productId",
          "type": "uint256"
        }
      ],
      "name": "getProductTransactions",
      "outputs": [
        {
          "components": [
            {
              "internalType": "uint256",
              "name": "productId",
              "type": "uint256"
            },
            {
              "internalType": "address",
              "name": "from",
              "type": "address"
            },
            {
              "internalType": "address",
              "name": "to",
              "type": "address"
            },
            {
              "internalType": "enum SupplyChain.ProductStatus",
              "name": "newStatus",
              "type": "uint8"
            },
            {
              "internalType": "string",
              "name": "location",
              "type": "string"
            },
            {
              "internalType": "uint256",
              "name": "timestamp",
              "type": "uint256"
            },
            {
              "internalType": "string",
              "name": "transactionType",
              "type": "string"
            },
            {
              "internalType": "string",
              "name": "additionalData",
              "type": "string"
            }
          ],
          "internalType": "struct SupplyChain.Transaction[]",
          "name": "",
          "type": "tuple[]"
        }
      ],
      "stateMutability": "view",
      "type": "function"
    },
    {
      "inputs": [
        {
          "internalType": "address",
          "name": "_farmer",
          "type": "address"
        }
      ],
      "name": "getProductsByFarmer",
      "outputs": [
        {
          "internalType": "uint256[]",
          "name": "",
          "type": "uint256[]"
        }
      ],
      "stateMutability": "view",
      "type": "function"
    },
    {
      "inputs": [
        {
          "internalType": "address",
          "name": "_address",
          "type": "address"
        }
      ],
      "name": "getStakeholder",
      "outputs": [
        {
          "components": [
            {
              "internalType": "address",
              "name": "walletAddress",
              "type": "address"
            },
            {
              "internalType": "enum SupplyChain.StakeholderRole",
              "name": "role",
              "type": "uint8"
            },
            {
              "internalType": "string",
              "name": "name",
              "type": "string"
            },
            {
              "internalType": "string",
              "name": "organization",
              "type": "string"
            },
            {
              "internalType": "bool",
              "name": "isRegistered",
              "type": "bool"
            }
          ],
          "internalType": "struct SupplyChain.Stakeholder",
          "name": "",
          "type": "tuple"
        }
      ],
      "stateMutability": "view",
      "type": "function"
    },
    {
      "inputs": [
        {
          "internalType": "uint256",
          "name": "_productId",
          "type": "uint256"
        },
        {
          "internalType": "string",
          "name": "_dataHash",
          "type": "string"
        }
      ],
      "name": "isProductAuthentic",
      "outputs": [
        {
          "internalType": "bool",
          "name": "",
          "type": "bool"
        }
      ],
      "stateMutability": "view",
      "type": "function"
    },
    {
      "inputs": [],
      "name": "productCounter",
      "outputs": [
        {
          "internalType": "uint256",
          "name": "",
          "type": "uint256"
        }
      ],
      "stateMutability": "view",
      "type": "function"
    },
    {
      "inputs": [
        {
          "internalType": "uint256",
          "name": "",
          "type": "uint256"
        },
        {
          "internalType": "uint256",
          "name": "",
          "type": "uint256"
        }
      ],
      "name": "productTransactions",
      "outputs": [
        {
          "internalType": "uint256",
          "name": "productId",
          "type": "uint256"
        },
        {
          "internalType": "address",
          "name": "from",
          "type": "address"
        },
        {
          "internalType": "address",
          "name": "to",
          "type": "address"
        },
        {
          "internalType": "enum SupplyChain.ProductStatus",
          "name": "newStatus",
          "type": "uint8"
        },
        {
          "internalType": "string",
          "name": "location",
          "type": "string"
        },
        {
          "internalType": "uint256",
          "name": "timestamp",
          "type": "uint256"
        },
        {
          "internalType": "string",
          "name": "transactionType",
          "type": "string"
        },
        {
          "internalType": "string",
          "name": "additionalData",
          "type": "string"
        }
      ],
      "stateMutability": "view",
      "type": "function"
    },
    {
      "inputs": [
        {
          "internalType": "uint256",
          "name": "",
          "type": "uint256"
        }
      ],
      "name": "products",
      "outputs": [
        {
          "internalType": "uint256",
          "name": "id",
          "type": "uint256"
        },
        {
          "internalType": "string",
          "name": "name",
          "type": "string"
        },
        {
          "internalType": "string",
          "name": "variety",
          "type": "string"
        },
        {
          "internalType": "uint256",
          "name": "quantity",
          "type": "uint256"
        },
        {
          "internalType": "string",
          "name": "farmLocation",
          "type": "string"
        },
        {
          "internalType": "uint256",
          "name": "harvestDate",
          "type": "uint256"
        },
        {
          "internalType": "string",
          "name": "qualityGrade",
          "type": "string"
        },
        {
          "internalType": "enum SupplyChain.ProductStatus",
          "name": "status",
          "type": "uint8"
        },
        {
          "internalType": "address",
          "name": "farmer",
          "type": "address"
        },
        {
          "internalType": "string",
          "name": "dataHash",
          "type": "string"
        },
        {
          "internalType": "bool",
          "name": "exists",
          "type": "bool"
        },
        {
          "internalType": "string",
          "name": "farmerName",
          "type": "string"
        },
        {
          "internalType": "string",
          "name": "farmerOrganization",
          "type": "string"
        },
        {
          "internalType": "address",
          "name": "distributor",
          "type": "address"
        },
        {
          "internalType": "string",
          "name": "distributorName",
          "type": "string"
        },
        {
          "internalType": "string",
          "name": "distributorOrganization",
          "type": "string"
        },
        {
          "internalType": "address",
          "name": "retailer",
          "type": "address"
        },
        {
          "internalType": "string",
          "name": "retailerName",
          "type": "string"
        },
        {
          "internalType": "string",
          "name": "retailerOrganization",
          "type": "string"
        },
        {
          "internalType": "uint256",
          "name": "farmerRegisteredAt",
          "type": "uint256"
        },
        {
          "internalType": "uint256",
          "name": "distributorAddedAt",
          "type": "uint256"
        },
        {
          "internalType": "uint256",
          "name": "retailerAddedAt",
          "type": "uint256"
        },
        {
          "internalType": "uint256",
          "name": "soldAt",
          "type": "uint256"
        }
      ],
      "stateMutability": "view",
      "type": "function"
    },
    {
      "inputs": [
        {
          "internalType": "string",
          "name": "_name",
          "type": "string"
        },
        {
          "internalType": "string",
          "name": "_variety",
          "type": "string"
        },
        {
          "internalType": "uint256",
          "name": "_quantity",
          "type": "uint256"
        },
        {
          "internalType": "string",
          "name": "_farmLocation",
          "type": "string"
        },
        {
          "internalType": "uint256",
          "name": "_harvestDate",
          "type": "uint256"
        },
        {
          "internalType": "string",
          "name": "_qualityGrade",
          "type": "string"
        },
        {
          "internalType": "string",
          "name": "_dataHash",
          "type": "string"
        }
      ],
      "name": "registerProduct",
      "outputs": [
        {
          "internalType": "uint256",
          "name": "",
          "type": "uint256"
        }
      ],
      "stateMutability": "nonpayable",
      "type": "function"
    },
    {
      "inputs": [
        {
          "internalType": "enum SupplyChain.StakeholderRole",
          "name": "_role",
          "type": "uint8"
        },
        {
          "internalType": "string",
          "name": "_name",
          "type": "string"
        },
        {
          "internalType": "string",
          "name": "_organization",
          "type": "string"
        }
      ],
      "name": "registerStakeholder",
      "outputs": [],
      "stateMutability": "nonpayable",
      "type": "function"
    },
    {
      "inputs": [
        {
          "internalType": "address",
          "name": "",
          "type": "address"
        }
      ],
      "name": "stakeholders",
      "outputs": [
        {
          "internalType": "address",
          "name": "walletAddress",
          "type": "address"
        },
        {
          "internalType": "enum SupplyChain.StakeholderRole",
          "name": "role",
          "type": "uint8"
        },
        {
          "internalType": "string",
          "name": "name",
          "type": "string"
        },
        {
          "internalType": "string",
          "name": "organization",
          "type": "string"
        },
        {
          "internalType": "bool",
          "name": "isRegistered",
          "type": "bool"
        }
      ],
      "stateMutability": "view",
      "type": "function"
    },
    {
      "inputs": [
        {
          "internalType": "uint256",
          "name": "_productId",
          "type": "uint256"
        },
        {
          "internalType": "address",
          "name": "_to",
          "type": "address"
        },
        {
          "internalType": "enum SupplyChain.ProductStatus",
          "name": "_newStatus",
          "type": "uint8"
        },
        {
          "internalType": "string",
          "name": "_location",
          "type": "string"
        },
        {
          "internalType": "string",
          "name": "_transactionType",
          "type": "string"
        },
        {
          "internalType": "string",
          "name": "_additionalData",
          "type": "string"
        }
      ],
      "name": "transferProduct",
      "outputs": [],
      "stateMutability": "nonpayable",
      "type": "function"
    }
  ],
  "bytecode": "0x60808060405234610016576136c9908161001c8239f35b600080fdfe6101e0604052600436101561001357600080fd5b60003560e01c806307dd0a0f14612a495780630ad4ef38146127765780630ffe433d1461161f5780631f16653b14611601578063259132d41461151b5780633c5e5d3a1461125157806362afde25146111405780637acc0b2014610e465780639ab2dfa314610c56578063b9db15b41461081a578063c07cfca914610776578063c3a4e5971461063a578063d10e53d3146101e45763ec90a7b0146100b757600080fd5b346101df576020806003193601126101df576100d1612e84565b90600354916100df8361364d565b92600191600091906001600160a01b03908116845b8381111561017b57505050506101098161364d565b9360005b82811061015157505050604051918083018184528451809152816040850195019160005b82811061013e5785870386f35b8351875295810195928101928401610131565b80610162610173928498969861367f565b5161016d828761367f565b526131ca565b94929461010d565b806000989698526000875260406000208284600783015460081c161490816101d0575b506101b5575b6101ad906131ca565b9694966100f4565b936101c8818661016d6101ad948a61367f565b9490506101a4565b60ff915060090154163861019e565b600080fd5b346101df5760603660031901126101df576004803510156101df576024356001600160401b0381116101df5761021e903690600401612f29565b6044356001600160401b0381116101df5761023d903690600401612f29565b9033600052600260205260ff600360406000200154166106005761026381511515613142565b61026e6004356130da565b600360ff60043516116105cc576040519061028882612eb6565b338252602082019261029b6004356130da565b6004358452604083019082825260608401526001608084015233600052600260205260406000209360018060a01b03845116855491516102da816130da565b6102e3816130da565b60ff60a01b9060a01b16916affffffffffffffffffffff60a81b1617178455519283516001600160401b0381116104f5576103216001830154612ffa565b601f8111610585575b506020601f821160011461051657819293949560009261050b575b50508160011b916000199060031b1c19161760018201555b60608301519283516001600160401b0381116104f5576103806002840154612ffa565b601f81116104aa575b506020601f82116001146104355791816080926003946103da979860009261042a575b50508160011b9160001990861b1c19161760028501555b0151151591019060ff801983541691151516179055565b7f110b738ebb1be6a0003a04bc69dea2d42dce2ff6424f866e30a39749b1c245986040516104096004356130da565b600435815260406020820152806104253394604083019061311d565b0390a2005b0151905088806103ac565b601f198216956002850160005260206000209660005b8181106104925750926103da969760039593600193836080971061047a575b505050811b0160028501556103c3565b015160001983881b60f8161c1916905588808061046a565b8383015189556001909801976020938401930161044b565b600284016000526020600020601f830160051c810191602084106104eb575b601f0160051c01905b8181106104df5750610389565b600081556001016104d2565b90915081906104c9565b634e487b7160e01b600052604160045260246000fd5b015190508580610345565b6001830160005260206000209060005b601f198416811061056d575060019394959683601f19811610610554575b505050811b01600182015561035d565b015160001960f88460031b161c19169055858080610544565b9091602060018192858b015181550193019101610526565b600183016000526020600020601f830160051c8101602084106105c5575b601f830160051c820181106105b957505061032a565b600081556001016105a3565b50806105a3565b60405162461bcd60e51b815260206004820152600c60248201526b496e76616c696420726f6c6560a01b6044820152606490fd5b60405162461bcd60e51b8152602060048201526012602482015271105b1c9958591e481c9959da5cdd195c995960721b6044820152606490fd5b346101df5760403660031901126101df576004356024356001600160401b0381116101df5761066d903690600401612f29565b816000526020916000835261068c60ff600960406000200154166135f1565b60005260008252600860406000200160405183818181019360009080546106b281612ffa565b916001918083169081156107565750600114610718575b5050506106df925003601f198101835282612f08565b5190209060405161070c8482816106ff81830196878151938492016130fa565b8101038084520182612f08565b51902014604051908152f35b6000908152858120929350915b83831061074057505050916106df92820101869288806106c9565b8054878401870152869450918501918101610725565b925050506106df94925060ff1916865280151502820101869288806106c9565b346101df5760203660031901126101df576001600160a01b0380610798612e84565b166000526002602052604060002080549061080e60ff8360a01c16916108006107c360018301613034565b60ff60036107d360028601613034565b94015416946040519788971687526107ea816130da565b602087015260a0604087015260a086019061311d565b90848203606086015261311d565b90151560808301520390f35b346101df5760203660031901126101df5760006102c060405161083c81612ed1565b8281526060602082015260606040820152826060820152606060808201528260a0820152606060c08201528260e08201528261010082015260606101208201528261014082015260606101608201526060610180820152826101a082015260606101c082015260606101e082015282610200820152606061022082015260606102408201528261026082015282610280820152826102a082015201526004358060005260006020526108f860ff600960406000200154166135f1565b6000526000602052604060002060156040519161091483612ed1565b8054835261092460018201613034565b602084015261093560028201613034565b60408401526003810154606084015261095060048201613034565b6080840152600581015460a084015261096b60068201613034565b60c0840152600781015460ff8116610982816130da565b60e0850152600890811c6001600160a01b03166101008501526109a6908201613034565b61012084015260ff60098201541615156101408401526109c8600a8201613034565b6101608401526109da600b8201613034565b610180840152600c8101546001600160a01b03166101a0840152610a00600d8201613034565b6101c0840152610a12600e8201613034565b6101e0840152600f8101546001600160a01b0316610200840152610a3860108201613034565b610220840152610a4a60118201613034565b6102408401526012810154610260840152601381015461028084015260148101546102a084015201546102c0820152604051809160208252805160208301526102c0610c27610c0f610be1610bc9610b9b610b83610b5d610b1d610afc8a8c60806060610ae0610acb60208601516102e0604087015261030086019061311d565b6040860151858203601f19018487015261311d565b93015191015260808c01518d8203601f190160a08f015261311d565b60a08b015160c08d015260c08b01518c60e0601f198285030191015261311d565b60e08a0151610b2b816130da565b6101008c015260018060a01b036101008b0151166101208c01526101208a0151601f198c8303016101408d015261311d565b61014089015115156101608b0152610160890151601f198b8303016101808c015261311d565b610180880151898203601f19016101a08b015261311d565b6101a08701516001600160a01b03166101c089810191909152870151888203601f19016101e08a015261311d565b6101e0860151878203601f190161020089015261311d565b6102008501516001600160a01b031661022087810191909152850151868203601f190161024088015261311d565b610240840151858203601f190161026087015261311d565b916102608101516102808501526102808101516102a08501526102a08101518285015201516102e08301520390f35b346101df576020806003193601126101df57600435806000526000825260ff90610c8982600960406000200154166135f1565b60005260018083526040600020928354610ca281613636565b93610cb06040519586612f08565b81855260009586528286208386019691875b848410610da7575050505050604051928184019082855251809152604084019160408260051b86010195926000905b838210610cfe5786880387f35b90919293948380610d96839a603f198b82030186528951908151815260018060a01b0380858401511685830152604083015116604082015260608083015190610d46826130da565b82015260e0610d85610d6860808086015190610100809187015285019061311d565b60a0808601519085015260c080860151908583039086015261311d565b9201519060e081840391015261311d565b999701959493919091019101610cf1565b95600786829a9860409a989a51610dbd81612e9a565b86548152848701546001600160a01b03908116848301526002880154908116604083015260a090811c8716610df1816130da565b6060830152610e0260038901613034565b6080830152600488015490820152610e1c60058801613034565b60c0820152610e2d60068801613034565b60e0820152815201930193019291979597969496610cc2565b346101df5760203660031901126101df57600435600052600060205260406000208061018052805490600101610e7b90613034565b60805261018051600201610e8e90613034565b60c05261018051600381015461010052600401610eaa90613034565b61018051600581015490600601610ec090613034565b61018051600781015490600801610ed690613034565b61018051600981015460ff1690600a01610eef90613034565b9161018051600b01610f0090613034565b61018051600c8101546001600160a01b03169691959190610f2390600d01613034565b9761018051600e01610f3490613034565b61018051600f8101546001600160a01b03169c919b9190610f5790601001613034565b6101205261018051601101610f6b90613034565b6101c05261018051601281015460e0526013810154610160526014810154610140526015015460a052604051806101a052526102e0806101a051602001526101a0510160805190610fbb9161311d565b6101a051808203906040015260c05190610fd49161311d565b610100516101a051606001526101a0518082039060800152610ff59161311d565b906101a05160a001526101a0518082039060c001526110139161311d565b9060ff8116611021816130da565b6101a05160e00152600160a01b600190039060081c166101a05161010001526101a0518082039061012001526110569161311d565b9015156101a05161014001526101a0518082039061016001526110789161311d565b6101a05180820390610180015261108e9161311d565b906101a0516101a001526101a051808203906101c001526110ae9161311d565b6101a051808203906101e001526110c49161311d565b906101a05161020001526101a05180820390610220015261012051906110e99161311d565b6101a0518082039061024001526101c051906111049161311d565b60e0516101a0516102600152610160516101a0516102800152610140516101a0516102a0015260a0516101a0516102c001526101a05180910390f35b346101df576020806003193601126101df5761115a612e84565b906000608060405161116b81612eb6565b828152828482015260606040820152606080820152015260018060a01b0380921660005260028152604060002090611244604051926111a984612eb6565b61123160ff8254878116875260a01c16848601906111c6816130da565b81526111d460018401613034565b906040870191825260ff60036111ec60028701613034565b9560608a0196875201541695608088019615158752604051988998828a525116908801525161121a816130da565b60408701525160a0606087015260c086019061311d565b9051848203601f1901608086015261311d565b9051151560a08301520390f35b346101df5761125f36612f7f565b91806000526020906000825261127f60ff600960406000200154166135f1565b60005260008152604060002091600f8301805460018060a01b0381166114df576112ab83511515613142565b6001600160a01b0319163317905580516001600160401b03919060108501908381116104f557806112dc8354612ffa565b93601f94858111611490575b50869085831160011461142b57600092611420575b50508160011b916000199060031b1c19161790555b601184019285519283116104f55761132a8454612ffa565b8281116113dd575b508091831160011461137657508192939460009261136b575b50508160011b916000199060031b1c19161790555b601442910155600080f35b01519050848061134b565b90601f198316958460005282600020926000905b8882106113c5575050836001959697106113ac575b505050811b019055611360565b015160001960f88460031b161c1916905584808061139f565b8060018596829496860151815501950193019061138a565b84600052816000208380860160051c820192848710611417575b0160051c01905b81811061140b5750611332565b600081556001016113fe565b925081926113f7565b0151905088806112fd565b60008581528881209350601f198516905b8982821061147a575050908460019594939210611461575b505050811b019055611312565b015160001960f88460031b161c19169055888080611454565b600185968293968601518155019501930161143c565b90915083600052866000208580850160051c8201928986106114d6575b9085949392910160051c01905b8181106114c757506112e8565b600081558493506001016114ba565b925081926114ad565b60405162461bcd60e51b815260048101859052601460248201527314995d185a5b195c88185b1c9958591e481cd95d60621b6044820152606490fd5b346101df5760403660031901126101df57602435600435600052600160205260406000209081548110156101df5761155291612fc8565b508054600182015460028301546001600160a01b03918216936115fd926115ef916115dc60a085901c60ff1661158a60038401613034565b906004840154946115a960066115a260058801613034565b9601613034565b976040519b8c9b8c5260208c01521660408a01526115c6816130da565b60608901526101008060808a015288019061311d565b9160a087015285820360c087015261311d565b9083820360e085015261311d565b0390f35b346101df5760003660031901126101df576020600354604051908152f35b346101df5760e03660031901126101df576004356001600160401b0381116101df5761164f903690600401612f29565b6024356001600160401b0381116101df5761166e903690600401612f29565b6064356001600160401b0381116101df5761168d903690600401612f29565b9160a4356001600160401b0381116101df576116ad903690600401612f29565b9160c4356001600160401b0381116101df576116cd903690600401612f29565b903360005260026020526116eb60ff6003604060002001541661317e565b33600052600260205260ff60406000205460a01c16611709816130da565b61273d576117186003546131ca565b938460035533600052600260205260406000209060405161173881612eb6565b82546001600160a01b038116825260a01c60ff16611755816130da565b602082015261176660018401613034565b9060408101918252608060ff600361178060028801613034565b96876060860152015416151591015251906040519361179e85612ed1565b8785528660208601526040850152604435606085015287608085015260843560a085015260c0840152600060e08401523361010084015283610120840152600161014084015261016083015261018082015260006101a082015260405161180481612eed565b600081526101c082015260405161181a81612eed565b600081526101e0820152600061020082015260405161183881612eed565b6000815261022082015260405161184e81612eed565b6000815261024082015242610260820152600061028082015260006102a082015260006102c08201528360005260006020526040600020908051825560208101518051906001600160401b0382116104f55781906118af6001860154612ffa565b601f81116126ea575b50602090601f83116001146126785760009261266d575b50508160011b916000199060031b1c19161760018301555b60408101518051906001600160401b0382116104f557819061190c6002860154612ffa565b601f811161261a575b50602090601f83116001146125a85760009261259d575b50508160011b916000199060031b1c19161760028301555b6060810151600383015560808101518051906001600160401b0382116104f55781906119736004860154612ffa565b601f811161254a575b50602090601f83116001146124d8576000926124cd575b50508160011b916000199060031b1c19161760048301555b60a0810151600583015560c08101518051906001600160401b0382116104f55781906119da6006860154612ffa565b601f811161247a575b50602090601f8311600114612408576000926123fd575b50508160011b916000199060031b1c19161760068301555b60078201611a2d60e0830151611a27816130da565b826131ef565b6101008201518154610100600160a81b03191660089190911b610100600160a81b03161790556101208101518051906001600160401b0382116104f5578190611a796008860154612ffa565b601f81116123aa575b50602090601f83116001146123385760009261232d575b50508160011b916000199060031b1c19161760088301555b611ad16101408201511515600984019060ff801983541691151516179055565b6101608101518051906001600160401b0382116104f5578190611af7600a860154612ffa565b601f81116122da575b50602090601f83116001146122685760009261225d575b50508160011b916000199060031b1c191617600a8301555b6101808101518051906001600160401b0382116104f5578190611b55600b860154612ffa565b601f811161220a575b50602090601f83116001146121985760009261218d575b50508160011b916000199060031b1c191617600b8301555b600c820160018060a01b036101a0830151166bffffffffffffffffffffffff60a01b8254161790556101c08101518051906001600160401b0382116104f5578190611bdb600d860154612ffa565b601f811161213a575b50602090601f83116001146120c8576000926120bd575b50508160011b916000199060031b1c191617600d8301555b6101e08101518051906001600160401b0382116104f5578190611c39600e860154612ffa565b601f811161206a575b50602090601f8311600114611ff857600092611fed575b50508160011b916000199060031b1c191617600e8301555b600f820160018060a01b03610200830151166bffffffffffffffffffffffff60a01b8254161790556102208101518051906001600160401b0382116104f5578190611cbf6010860154612ffa565b601f8111611f9a575b50602090601f8311600114611f2857600092611f1d575b50508160011b916000199060031b1c19161760108301555b6102408101518051906001600160401b0382116104f557611d1b6011850154612ffa565b601f8111611ed6575b50602090601f8311600114611e60579180601594926102c094600092611e55575b50508160011b916000199060031b1c19161760118501555b610260810151601285015561028081015160138501556102a08101516014850155015191015582600052600160205260406000209360405190611d9f82612e9a565b848252600060208301523360408301526000606083015260808201524260a08201526040519460408601928684106001600160401b038511176104f557602096611e089460405260078152661a185c9d995cdd60ca1b8882015260c084015260e0830152613207565b817f5b750c34ff65e7500b4250ef0db18cf3a3f0d4ce3131ef7e64d457b0bea7236f611e3f6040519360408552604085019061311d565b92608435868201528033940390a3604051908152f35b015190508a80611d45565b906011850160005260206000209160005b601f1985168110611ebe575092601594926001926102c09583601f19811610611ea5575b505050811b016011850155611d5d565b015160001960f88460031b161c191690558a8080611e95565b91926020600181928685015181550194019201611e71565b601185016000526020600020601f840160051c810160208510611f16575b601f830160051c82018110611f0a575050611d24565b60008155600101611ef4565b5080611ef4565b015190508880611cdf565b9250601085016000526020600020906000935b601f1984168510611f7f576001945083601f19811610611f66575b505050811b016010830155611cf7565b015160001960f88460031b161c19169055888080611f56565b81810151835560209485019460019093019290910190611f3b565b909150601085016000526020600020601f840160051c810160208510611fe6575b90849392915b601f830160051c82018110611fd7575050611cc8565b60008155859450600101611fc1565b5080611fbb565b015190508880611c59565b9250600e85016000526020600020906000935b601f198416851061204f576001945083601f19811610612036575b505050811b01600e830155611c71565b015160001960f88460031b161c19169055888080612026565b8181015183556020948501946001909301929091019061200b565b909150600e85016000526020600020601f840160051c8101602085106120b6575b90849392915b601f830160051c820181106120a7575050611c42565b60008155859450600101612091565b508061208b565b015190508880611bfb565b9250600d85016000526020600020906000935b601f198416851061211f576001945083601f19811610612106575b505050811b01600d830155611c13565b015160001960f88460031b161c191690558880806120f6565b818101518355602094850194600190930192909101906120db565b909150600d85016000526020600020601f840160051c810160208510612186575b90849392915b601f830160051c82018110612177575050611be4565b60008155859450600101612161565b508061215b565b015190508880611b75565b9250600b85016000526020600020906000935b601f19841685106121ef576001945083601f198116106121d6575b505050811b01600b830155611b8d565b015160001960f88460031b161c191690558880806121c6565b818101518355602094850194600190930192909101906121ab565b909150600b85016000526020600020601f840160051c810160208510612256575b90849392915b601f830160051c82018110612247575050611b5e565b60008155859450600101612231565b508061222b565b015190508880611b17565b9250600a85016000526020600020906000935b601f19841685106122bf576001945083601f198116106122a6575b505050811b01600a830155611b2f565b015160001960f88460031b161c19169055888080612296565b8181015183556020948501946001909301929091019061227b565b909150600a85016000526020600020601f840160051c810160208510612326575b90849392915b601f830160051c82018110612317575050611b00565b60008155859450600101612301565b50806122fb565b015190508880611a99565b9250600885016000526020600020906000935b601f198416851061238f576001945083601f19811610612376575b505050811b016008830155611ab1565b015160001960f88460031b161c19169055888080612366565b8181015183556020948501946001909301929091019061234b565b909150600885016000526020600020601f840160051c8101602085106123f6575b90849392915b601f830160051c820181106123e7575050611a82565b600081558594506001016123d1565b50806123cb565b0151905088806119fa565b9250600685016000526020600020906000935b601f198416851061245f576001945083601f19811610612446575b505050811b016006830155611a12565b015160001960f88460031b161c19169055888080612436565b8181015183556020948501946001909301929091019061241b565b909150600685016000526020600020601f840160051c8101602085106124c6575b90849392915b601f830160051c820181106124b75750506119e3565b600081558594506001016124a1565b508061249b565b015190508880611993565b9250600485016000526020600020906000935b601f198416851061252f576001945083601f19811610612516575b505050811b0160048301556119ab565b015160001960f88460031b161c19169055888080612506565b818101518355602094850194600190930192909101906124eb565b909150600485016000526020600020601f840160051c810160208510612596575b90849392915b601f830160051c8201811061258757505061197c565b60008155859450600101612571565b508061256b565b01519050888061192c565b9250600285016000526020600020906000935b601f19841685106125ff576001945083601f198116106125e6575b505050811b016002830155611944565b015160001960f88460031b161c191690558880806125d6565b818101518355602094850194600190930192909101906125bb565b909150600285016000526020600020601f840160051c810160208510612666575b90849392915b601f830160051c82018110612657575050611915565b60008155859450600101612641565b508061263b565b0151905088806118cf565b9250600185016000526020600020906000935b601f19841685106126cf576001945083601f198116106126b6575b505050811b0160018301556118e7565b015160001960f88460031b161c191690558880806126a6565b8181015183556020948501946001909301929091019061268b565b909150600185016000526020600020601f840160051c810160208510612736575b90849392915b601f830160051c820181106127275750506118b8565b60008155859450600101612711565b508061270b565b60405162461bcd60e51b8152602060048201526011602482015270556e617574686f72697a656420726f6c6560781b6044820152606490fd5b346101df5761278436612f7f565b9180600052602090600082526127a460ff600960406000200154166135f1565b60005260008152604060002091600c8301805460018060a01b038116612a04576127d083511515613142565b6001600160a01b0319163317905580516001600160401b039190600d8501908381116104f557806128018354612ffa565b93601f948581116129b5575b50869085831160011461295057600092612945575b50508160011b916000199060031b1c19161790555b600e84019285519283116104f55761284f8454612ffa565b828111612902575b508091831160011461289b575081929394600092612890575b50508160011b916000199060031b1c19161790555b601342910155600080f35b015190508480612870565b90601f198316958460005282600020926000905b8882106128ea575050836001959697106128d1575b505050811b019055612885565b015160001960f88460031b161c191690558480806128c4565b806001859682949686015181550195019301906128af565b84600052816000208380860160051c82019284871061293c575b0160051c01905b8181106129305750612857565b60008155600101612923565b9250819261291c565b015190508880612822565b60008581528881209350601f198516905b8982821061299f575050908460019594939210612986575b505050811b019055612837565b015160001960f88460031b161c19169055888080612979565b6001859682939686015181550195019301612961565b90915083600052866000208580850160051c8201928986106129fb575b9085949392910160051c01905b8181106129ec575061280d565b600081558493506001016129df565b925081926129d2565b60405162461bcd60e51b815260048101859052601760248201527f4469737472696275746f7220616c7265616479207365740000000000000000006044820152606490fd5b346101df5760c03660031901126101df576024356001600160a01b03811681036101df57600460443510156101df576001600160401b036064358181116101df57612a98903690600401612f29565b6084358281116101df57612ab0903690600401612f29565b9160a4359081116101df57612ac9903690600401612f29565b91336000526002602052612ae760ff6003604060002001541661317e565b6004356000526000602052612b0660ff600960406000200154166135f1565b6004356000526000602052604060002092600784015460ff8116612b29816130da565b80612d0d575060081c6001600160a01b03163303612cb5576001600160a01b03851660009081526002602052604090205460019060a01c60ff16612b6c816130da565b03612c7157612c07935b612b85604435600783016131ef565b612b906044356130da565b60036044351480612c65575b612c59575b50600435600052600160205260406000209160405193612bc085612e9a565b60043585523360208601526001600160a01b0387166040860152612be56044356130da565b604435606086015260808501524260a085015260c084015260e0830152613207565b60405190612c166044356130da565b60443582524260208301526001600160a01b0316903390600435907f9fa92e8b138a6a0678480e61b6e7a0ee30af964ea75bc7b4a7006435e0f9b53790604090a4005b60154291015585612ba1565b50601581015415612b9c565b606460405162461bcd60e51b815260206004820152602060248201527f43616e206f6e6c79207472616e7366657220746f206469737472696275746f726044820152fd5b60405162461bcd60e51b815260206004820152602a60248201527f4f6e6c79206661726d65722063616e207472616e7366657220686172766573746044820152691959081c1c9bd91d58dd60b21b6064820152608490fd5b9050612d18816130da565b60018103612e065750336000526002602052600160ff60406000205460a01c16612d41816130da565b03612dc15760018060a01b0385166000526002602052600260ff60406000205460a01c16612d6e816130da565b03612d7c57612c0793612b76565b60405162461bcd60e51b815260206004820152601d60248201527f43616e206f6e6c79207472616e7366657220746f2072657461696c65720000006044820152606490fd5b60405162461bcd60e51b815260206004820152601d60248201527f4f6e6c79206469737472696275746f722063616e207472616e736665720000006044820152606490fd5b80612e126002926130da565b14612e21575b612c0793612b76565b336000526002602052600260ff60406000205460a01c16612e41816130da565b14612e185760405162461bcd60e51b815260206004820152601660248201527513db9b1e481c995d185a5b195c8818d85b881cd95b1b60521b6044820152606490fd5b600435906001600160a01b03821682036101df57565b61010081019081106001600160401b038211176104f557604052565b60a081019081106001600160401b038211176104f557604052565b6102e081019081106001600160401b038211176104f557604052565b602081019081106001600160401b038211176104f557604052565b90601f801991011681019081106001600160401b038211176104f557604052565b81601f820112156101df578035906001600160401b0382116104f55760405192612f5d601f8401601f191660200185612f08565b828452602083830101116101df57816000926020809301838601378301015290565b60606003198201126101df57600435916001600160401b036024358181116101df5783612fae91600401612f29565b926044359182116101df57612fc591600401612f29565b90565b8054821015612fe4576000526007602060002091020190600090565b634e487b7160e01b600052603260045260246000fd5b90600182811c9216801561302a575b602083101461301457565b634e487b7160e01b600052602260045260246000fd5b91607f1691613009565b906040519182600082549261304884612ffa565b9081845260019485811690816000146130b75750600114613074575b505061307292500383612f08565b565b9093915060005260209081600020936000915b81831061309f57505061307293508201013880613064565b85548884018501529485019487945091830191613087565b91505061307294506020925060ff191682840152151560051b8201013880613064565b600411156130e457565b634e487b7160e01b600052602160045260246000fd5b60005b83811061310d5750506000910152565b81810151838201526020016130fd565b90602091613136815180928185528580860191016130fa565b601f01601f1916010190565b1561314957565b60405162461bcd60e51b815260206004820152600d60248201526c13985b59481c995c5d5a5c9959609a1b6044820152606490fd5b1561318557565b60405162461bcd60e51b815260206004820152601c60248201527f4e6f7420612072656769737465726564207374616b65686f6c646572000000006044820152606490fd5b60001981146131d95760010190565b634e487b7160e01b600052601160045260246000fd5b906131f9816130da565b60ff80198354169116179055565b8054680100000000000000008110156104f55761322b906001928382018155612fc8565b6135db578251815560208084015183830180546001600160a01b0319166001600160a01b0392831617905560408501516002840180546060880151949594919390921690613278816130da565b613281816130da565b6001600160a81b03199092161760a09190911b60ff60a01b16179055608084015180516001600160401b03936003939091818501908681116104f557806132c88354612ffa565b95601f96878111613589575b5085908783116001146135275760009261351c575b505060001982881b1c191690881b1790555b60a087015160048201556005810160c08801518051908782116104f5576133228354612ffa565b8681116134d6575b5084908683116001146134695791806006949260e0969460009261345e575b5050600019828a1b1c1916908a1b1790555b019601519081519485116104f5576133738754612ffa565b838111613418575b50809285116001146133b257509383949184926000956133a7575b50501b92600019911b1c1916179055565b015193503880613396565b92919084601f1981168860005285600020956000905b898383106133fe57505050106133e4575b50505050811b019055565b01519060f884600019921b161c19169055388080806133d9565b8587015189559097019694850194889350908101906133c8565b87600052816000208480880160051c820192848910613455575b0160051c019087905b82811061344957505061337b565b6000815501879061343b565b92508192613432565b015190503880613349565b899291601f1983169185600052876000209260005b898282106134c05750509160e097959391856006989694106134a8575b505050811b01905561335b565b0151600019838c1b60f8161c1916905538808061349b565b8385015186558e9790950194938401930161347e565b83600052856000208780850160051c820192888610613513575b0160051c01908a905b82811061350757505061332a565b60008155018a906134f9565b925081926134f0565b0151905038806132e9565b908a9350601f1983169185600052876000209260005b89828210613573575050841161355b575b505050811b0190556132fb565b0151600019838a1b60f8161c1916905538808061354e565b8385015186558e9790950194938401930161353d565b90915060008481528681208880860160051c8201938987106135d2575b918d9187969594930160051c01925b8381106135c4575050506132d4565b8281558695508d91016135b5565b935081936135a6565b634e487b7160e01b600052600060045260246000fd5b156135f857565b60405162461bcd60e51b8152602060048201526016602482015275141c9bd91d58dd08191bd95cc81b9bdd08195e1a5cdd60521b6044820152606490fd5b6001600160401b0381116104f55760051b60200190565b9061365782613636565b6136646040519182612f08565b8281528092613675601f1991613636565b0190602036910137565b8051821015612fe45760209160051b01019056fea264697066735822122016ebe6eb8619c7875b2ad3c5ec164d8236c831ce0c5e35225ca2a8c46a39c98364736f6c63430008130033",
  "linkReferences": {},
  "deployedLinkReferences": {}
}